{
	"contracts/LiskGarden.sol": {
		"LiskGarden": {
			"abi": [
				{
					"inputs": [],
					"stateMutability": "nonpayable",
					"type": "constructor"
				},
				{
					"anonymous": false,
					"inputs": [
						{
							"indexed": true,
							"internalType": "uint256",
							"name": "plantId",
							"type": "uint256"
						}
					],
					"name": "PlantDied",
					"type": "event"
				},
				{
					"anonymous": false,
					"inputs": [
						{
							"indexed": true,
							"internalType": "uint256",
							"name": "plantId",
							"type": "uint256"
						},
						{
							"indexed": true,
							"internalType": "address",
							"name": "owner",
							"type": "address"
						},
						{
							"indexed": false,
							"internalType": "uint256",
							"name": "reward",
							"type": "uint256"
						}
					],
					"name": "PlantHarvested",
					"type": "event"
				},
				{
					"anonymous": false,
					"inputs": [
						{
							"indexed": true,
							"internalType": "address",
							"name": "owner",
							"type": "address"
						},
						{
							"indexed": true,
							"internalType": "uint256",
							"name": "plantId",
							"type": "uint256"
						}
					],
					"name": "PlantSeeded",
					"type": "event"
				},
				{
					"anonymous": false,
					"inputs": [
						{
							"indexed": true,
							"internalType": "uint256",
							"name": "plantId",
							"type": "uint256"
						},
						{
							"indexed": false,
							"internalType": "uint8",
							"name": "newWaterLevel",
							"type": "uint8"
						}
					],
					"name": "PlantWatered",
					"type": "event"
				},
				{
					"anonymous": false,
					"inputs": [
						{
							"indexed": true,
							"internalType": "uint256",
							"name": "plantId",
							"type": "uint256"
						},
						{
							"indexed": false,
							"internalType": "enum LiskGarden.GrowthStage",
							"name": "newStage",
							"type": "uint8"
						}
					],
					"name": "StageAdvanced",
					"type": "event"
				},
				{
					"inputs": [],
					"name": "HARVEST_REWARD",
					"outputs": [
						{
							"internalType": "uint256",
							"name": "",
							"type": "uint256"
						}
					],
					"stateMutability": "view",
					"type": "function"
				},
				{
					"inputs": [],
					"name": "PLANT_PRICE",
					"outputs": [
						{
							"internalType": "uint256",
							"name": "",
							"type": "uint256"
						}
					],
					"stateMutability": "view",
					"type": "function"
				},
				{
					"inputs": [],
					"name": "STAGE_DURATION",
					"outputs": [
						{
							"internalType": "uint256",
							"name": "",
							"type": "uint256"
						}
					],
					"stateMutability": "view",
					"type": "function"
				},
				{
					"inputs": [],
					"name": "WATER_DEPLETION_RATE",
					"outputs": [
						{
							"internalType": "uint8",
							"name": "",
							"type": "uint8"
						}
					],
					"stateMutability": "view",
					"type": "function"
				},
				{
					"inputs": [],
					"name": "WATER_DEPLETION_TIME",
					"outputs": [
						{
							"internalType": "uint256",
							"name": "",
							"type": "uint256"
						}
					],
					"stateMutability": "view",
					"type": "function"
				},
				{
					"inputs": [
						{
							"internalType": "uint256",
							"name": "plantId",
							"type": "uint256"
						}
					],
					"name": "calculateWaterLevel",
					"outputs": [
						{
							"internalType": "uint8",
							"name": "",
							"type": "uint8"
						}
					],
					"stateMutability": "view",
					"type": "function"
				},
				{
					"inputs": [],
					"name": "deposit",
					"outputs": [],
					"stateMutability": "payable",
					"type": "function"
				},
				{
					"inputs": [
						{
							"internalType": "uint256",
							"name": "plantId",
							"type": "uint256"
						}
					],
					"name": "getPlant",
					"outputs": [
						{
							"components": [
								{
									"internalType": "uint256",
									"name": "id",
									"type": "uint256"
								},
								{
									"internalType": "address",
									"name": "owner",
									"type": "address"
								},
								{
									"internalType": "enum LiskGarden.GrowthStage",
									"name": "stage",
									"type": "uint8"
								},
								{
									"internalType": "uint256",
									"name": "plantedDate",
									"type": "uint256"
								},
								{
									"internalType": "uint256",
									"name": "lastWatered",
									"type": "uint256"
								},
								{
									"internalType": "uint8",
									"name": "waterLevel",
									"type": "uint8"
								},
								{
									"internalType": "bool",
									"name": "exist",
									"type": "bool"
								},
								{
									"internalType": "bool",
									"name": "isDead",
									"type": "bool"
								}
							],
							"internalType": "struct LiskGarden.Plant",
							"name": "",
							"type": "tuple"
						}
					],
					"stateMutability": "view",
					"type": "function"
				},
				{
					"inputs": [
						{
							"internalType": "address",
							"name": "user",
							"type": "address"
						}
					],
					"name": "getUserPlants",
					"outputs": [
						{
							"internalType": "uint256[]",
							"name": "",
							"type": "uint256[]"
						}
					],
					"stateMutability": "view",
					"type": "function"
				},
				{
					"inputs": [
						{
							"internalType": "uint256",
							"name": "plantId",
							"type": "uint256"
						}
					],
					"name": "harvestPlant",
					"outputs": [],
					"stateMutability": "nonpayable",
					"type": "function"
				},
				{
					"inputs": [],
					"name": "owner",
					"outputs": [
						{
							"internalType": "address",
							"name": "",
							"type": "address"
						}
					],
					"stateMutability": "view",
					"type": "function"
				},
				{
					"inputs": [],
					"name": "plantCounter",
					"outputs": [
						{
							"internalType": "uint256",
							"name": "",
							"type": "uint256"
						}
					],
					"stateMutability": "view",
					"type": "function"
				},
				{
					"inputs": [],
					"name": "plantSeed",
					"outputs": [
						{
							"internalType": "uint256",
							"name": "",
							"type": "uint256"
						}
					],
					"stateMutability": "payable",
					"type": "function"
				},
				{
					"inputs": [
						{
							"internalType": "uint256",
							"name": "",
							"type": "uint256"
						}
					],
					"name": "plants",
					"outputs": [
						{
							"internalType": "uint256",
							"name": "id",
							"type": "uint256"
						},
						{
							"internalType": "address",
							"name": "owner",
							"type": "address"
						},
						{
							"internalType": "enum LiskGarden.GrowthStage",
							"name": "stage",
							"type": "uint8"
						},
						{
							"internalType": "uint256",
							"name": "plantedDate",
							"type": "uint256"
						},
						{
							"internalType": "uint256",
							"name": "lastWatered",
							"type": "uint256"
						},
						{
							"internalType": "uint8",
							"name": "waterLevel",
							"type": "uint8"
						},
						{
							"internalType": "bool",
							"name": "exist",
							"type": "bool"
						},
						{
							"internalType": "bool",
							"name": "isDead",
							"type": "bool"
						}
					],
					"stateMutability": "view",
					"type": "function"
				},
				{
					"inputs": [
						{
							"internalType": "uint256",
							"name": "plantId",
							"type": "uint256"
						}
					],
					"name": "updatePlantStage",
					"outputs": [],
					"stateMutability": "nonpayable",
					"type": "function"
				},
				{
					"inputs": [
						{
							"internalType": "address",
							"name": "",
							"type": "address"
						},
						{
							"internalType": "uint256",
							"name": "",
							"type": "uint256"
						}
					],
					"name": "userPlants",
					"outputs": [
						{
							"internalType": "uint256",
							"name": "",
							"type": "uint256"
						}
					],
					"stateMutability": "view",
					"type": "function"
				},
				{
					"inputs": [
						{
							"internalType": "uint256",
							"name": "plantId",
							"type": "uint256"
						}
					],
					"name": "waterPlant",
					"outputs": [],
					"stateMutability": "nonpayable",
					"type": "function"
				},
				{
					"inputs": [],
					"name": "withdraw",
					"outputs": [],
					"stateMutability": "nonpayable",
					"type": "function"
				},
				{
					"stateMutability": "payable",
					"type": "receive"
				}
			],
			"devdoc": {
				"kind": "dev",
				"methods": {},
				"version": 1
			},
			"evm": {
				"assembly": "    /* \"contracts/LiskGarden.sol\":61:6072  contract LiskGarden {... */\n  mstore(0x40, 0x80)\n    /* \"contracts/LiskGarden.sol\":1308:1359  constructor() {... */\n  callvalue\n  dup1\n  iszero\n  tag_1\n  jumpi\n  revert(0x00, 0x00)\ntag_1:\n  pop\n    /* \"contracts/LiskGarden.sol\":1341:1351  msg.sender */\n  caller\n    /* \"contracts/LiskGarden.sol\":1333:1338  owner */\n  0x03\n  0x00\n    /* \"contracts/LiskGarden.sol\":1333:1351  owner = msg.sender */\n  0x0100\n  exp\n  dup2\n  sload\n  dup2\n  0xffffffffffffffffffffffffffffffffffffffff\n  mul\n  not\n  and\n  swap1\n  dup4\n  0xffffffffffffffffffffffffffffffffffffffff\n  and\n  mul\n  or\n  swap1\n  sstore\n  pop\n    /* \"contracts/LiskGarden.sol\":61:6072  contract LiskGarden {... */\n  dataSize(sub_0)\n  dup1\n  dataOffset(sub_0)\n  0x00\n  codecopy\n  0x00\n  return\nstop\n\nsub_0: assembly {\n        /* \"contracts/LiskGarden.sol\":61:6072  contract LiskGarden {... */\n      mstore(0x40, 0x80)\n      jumpi(tag_1, lt(calldatasize, 0x04))\n      shr(0xe0, calldataload(0x00))\n      dup1\n      0x8dd2361c\n      gt\n      tag_21\n      jumpi\n      dup1\n      0xcfc9a5f8\n      gt\n      tag_22\n      jumpi\n      dup1\n      0xcfc9a5f8\n      eq\n      tag_16\n      jumpi\n      dup1\n      0xd0e30db0\n      eq\n      tag_17\n      jumpi\n      dup1\n      0xddd42596\n      eq\n      tag_18\n      jumpi\n      dup1\n      0xe38f8448\n      eq\n      tag_19\n      jumpi\n      dup1\n      0xed0b1f5f\n      eq\n      tag_20\n      jumpi\n      jump(tag_2)\n    tag_22:\n      dup1\n      0x8dd2361c\n      eq\n      tag_12\n      jumpi\n      dup1\n      0x9886bcfa\n      eq\n      tag_13\n      jumpi\n      dup1\n      0x9c471749\n      eq\n      tag_14\n      jumpi\n      dup1\n      0xbacb5ebd\n      eq\n      tag_15\n      jumpi\n      jump(tag_2)\n    tag_21:\n      dup1\n      0x754e150d\n      gt\n      tag_23\n      jumpi\n      dup1\n      0x754e150d\n      eq\n      tag_7\n      jumpi\n      dup1\n      0x7ed4c5be\n      eq\n      tag_8\n      jumpi\n      dup1\n      0x891c0785\n      eq\n      tag_9\n      jumpi\n      dup1\n      0x8aee578b\n      eq\n      tag_10\n      jumpi\n      dup1\n      0x8da5cb5b\n      eq\n      tag_11\n      jumpi\n      jump(tag_2)\n    tag_23:\n      dup1\n      0x30cec0eb\n      eq\n      tag_3\n      jumpi\n      dup1\n      0x3ccfd60b\n      eq\n      tag_4\n      jumpi\n      dup1\n      0x51f9efde\n      eq\n      tag_5\n      jumpi\n      dup1\n      0x74119a38\n      eq\n      tag_6\n      jumpi\n      jump(tag_2)\n    tag_1:\n      jumpi(tag_2, calldatasize)\n      stop\n    tag_2:\n      revert(0x00, 0x00)\n        /* \"contracts/LiskGarden.sol\":5668:5788  function getUserPlants(address user) external view returns (uint256[] memory) {... */\n    tag_3:\n      callvalue\n      dup1\n      iszero\n      tag_26\n      jumpi\n      revert(0x00, 0x00)\n    tag_26:\n      pop\n      tag_27\n      0x04\n      dup1\n      calldatasize\n      sub\n      dup2\n      add\n      swap1\n      tag_28\n      swap2\n      swap1\n      tag_29\n      jump\t// in\n    tag_28:\n      tag_30\n      jump\t// in\n    tag_27:\n      mload(0x40)\n      tag_31\n      swap2\n      swap1\n      tag_32\n      jump\t// in\n    tag_31:\n      mload(0x40)\n      dup1\n      swap2\n      sub\n      swap1\n      return\n        /* \"contracts/LiskGarden.sol\":5796:6006  function withdraw() external {... */\n    tag_4:\n      callvalue\n      dup1\n      iszero\n      tag_33\n      jumpi\n      revert(0x00, 0x00)\n    tag_33:\n      pop\n      tag_34\n      tag_35\n      jump\t// in\n    tag_34:\n      stop\n        /* \"contracts/LiskGarden.sol\":731:782  uint256 public  constant STAGE_DURATION = 1 minutes */\n    tag_5:\n      callvalue\n      dup1\n      iszero\n      tag_36\n      jumpi\n      revert(0x00, 0x00)\n    tag_36:\n      pop\n      tag_37\n      tag_38\n      jump\t// in\n    tag_37:\n      mload(0x40)\n      tag_39\n      swap2\n      swap1\n      tag_40\n      jump\t// in\n    tag_39:\n      mload(0x40)\n      dup1\n      swap2\n      sub\n      swap1\n      return\n        /* \"contracts/LiskGarden.sol\":1520:2218  function plantSeed() external payable returns (uint256) { ... */\n    tag_6:\n      tag_41\n      tag_42\n      jump\t// in\n    tag_41:\n      mload(0x40)\n      tag_43\n      swap2\n      swap1\n      tag_40\n      jump\t// in\n    tag_43:\n      mload(0x40)\n      dup1\n      swap2\n      sub\n      swap1\n      return\n        /* \"contracts/LiskGarden.sol\":2226:2808  function calculateWaterLevel(uint256 plantId) public view returns (uint8) {... */\n    tag_7:\n      callvalue\n      dup1\n      iszero\n      tag_44\n      jumpi\n      revert(0x00, 0x00)\n    tag_44:\n      pop\n      tag_45\n      0x04\n      dup1\n      calldatasize\n      sub\n      dup2\n      add\n      swap1\n      tag_46\n      swap2\n      swap1\n      tag_47\n      jump\t// in\n    tag_46:\n      tag_48\n      jump\t// in\n    tag_45:\n      mload(0x40)\n      tag_49\n      swap2\n      swap1\n      tag_50\n      jump\t// in\n    tag_49:\n      mload(0x40)\n      dup1\n      swap2\n      sub\n      swap1\n      return\n        /* \"contracts/LiskGarden.sol\":789:847  uint256 public  constant WATER_DEPLETION_TIME = 30 seconds */\n    tag_8:\n      callvalue\n      dup1\n      iszero\n      tag_51\n      jumpi\n      revert(0x00, 0x00)\n    tag_51:\n      pop\n      tag_52\n      tag_53\n      jump\t// in\n    tag_52:\n      mload(0x40)\n      tag_54\n      swap2\n      swap1\n      tag_40\n      jump\t// in\n    tag_54:\n      mload(0x40)\n      dup1\n      swap2\n      sub\n      swap1\n      return\n        /* \"contracts/LiskGarden.sol\":671:724  uint256 public  constant HARVEST_REWARD = 0.003 ether */\n    tag_9:\n      callvalue\n      dup1\n      iszero\n      tag_55\n      jumpi\n      revert(0x00, 0x00)\n    tag_55:\n      pop\n      tag_56\n      tag_57\n      jump\t// in\n    tag_56:\n      mload(0x40)\n      tag_58\n      swap2\n      swap1\n      tag_40\n      jump\t// in\n    tag_58:\n      mload(0x40)\n      dup1\n      swap2\n      sub\n      swap1\n      return\n        /* \"contracts/LiskGarden.sol\":473:521  mapping(address => uint256[]) public  userPlants */\n    tag_10:\n      callvalue\n      dup1\n      iszero\n      tag_59\n      jumpi\n      revert(0x00, 0x00)\n    tag_59:\n      pop\n      tag_60\n      0x04\n      dup1\n      calldatasize\n      sub\n      dup2\n      add\n      swap1\n      tag_61\n      swap2\n      swap1\n      tag_62\n      jump\t// in\n    tag_61:\n      tag_63\n      jump\t// in\n    tag_60:\n      mload(0x40)\n      tag_64\n      swap2\n      swap1\n      tag_40\n      jump\t// in\n    tag_64:\n      mload(0x40)\n      dup1\n      swap2\n      sub\n      swap1\n      return\n        /* \"contracts/LiskGarden.sol\":563:584  address public  owner */\n    tag_11:\n      callvalue\n      dup1\n      iszero\n      tag_65\n      jumpi\n      revert(0x00, 0x00)\n    tag_65:\n      pop\n      tag_66\n      tag_67\n      jump\t// in\n    tag_66:\n      mload(0x40)\n      tag_68\n      swap2\n      swap1\n      tag_69\n      jump\t// in\n    tag_68:\n      mload(0x40)\n      dup1\n      swap2\n      sub\n      swap1\n      return\n        /* \"contracts/LiskGarden.sol\":427:466  mapping(uint256 => Plant) public plants */\n    tag_12:\n      callvalue\n      dup1\n      iszero\n      tag_70\n      jumpi\n      revert(0x00, 0x00)\n    tag_70:\n      pop\n      tag_71\n      0x04\n      dup1\n      calldatasize\n      sub\n      dup2\n      add\n      swap1\n      tag_72\n      swap2\n      swap1\n      tag_47\n      jump\t// in\n    tag_72:\n      tag_73\n      jump\t// in\n    tag_71:\n      mload(0x40)\n      tag_74\n      swap9\n      swap8\n      swap7\n      swap6\n      swap5\n      swap4\n      swap3\n      swap2\n      swap1\n      tag_75\n      jump\t// in\n    tag_74:\n      mload(0x40)\n      dup1\n      swap2\n      sub\n      swap1\n      return\n        /* \"contracts/LiskGarden.sol\":3191:3683  function waterPlant(uint256 plantId) external {... */\n    tag_13:\n      callvalue\n      dup1\n      iszero\n      tag_76\n      jumpi\n      revert(0x00, 0x00)\n    tag_76:\n      pop\n      tag_77\n      0x04\n      dup1\n      calldatasize\n      sub\n      dup2\n      add\n      swap1\n      tag_78\n      swap2\n      swap1\n      tag_47\n      jump\t// in\n    tag_78:\n      tag_79\n      jump\t// in\n    tag_77:\n      stop\n        /* \"contracts/LiskGarden.sol\":528:556  uint256 public  plantCounter */\n    tag_14:\n      callvalue\n      dup1\n      iszero\n      tag_80\n      jumpi\n      revert(0x00, 0x00)\n    tag_80:\n      pop\n      tag_81\n      tag_82\n      jump\t// in\n    tag_81:\n      mload(0x40)\n      tag_83\n      swap2\n      swap1\n      tag_40\n      jump\t// in\n    tag_83:\n      mload(0x40)\n      dup1\n      swap2\n      sub\n      swap1\n      return\n        /* \"contracts/LiskGarden.sol\":854:902  uint8 public  constant WATER_DEPLETION_RATE  = 2 */\n    tag_15:\n      callvalue\n      dup1\n      iszero\n      tag_84\n      jumpi\n      revert(0x00, 0x00)\n    tag_84:\n      pop\n      tag_85\n      tag_86\n      jump\t// in\n    tag_85:\n      mload(0x40)\n      tag_87\n      swap2\n      swap1\n      tag_50\n      jump\t// in\n    tag_87:\n      mload(0x40)\n      dup1\n      swap2\n      sub\n      swap1\n      return\n        /* \"contracts/LiskGarden.sol\":614:664  uint256 public  constant PLANT_PRICE = 0.001 ether */\n    tag_16:\n      callvalue\n      dup1\n      iszero\n      tag_88\n      jumpi\n      revert(0x00, 0x00)\n    tag_88:\n      pop\n      tag_89\n      tag_90\n      jump\t// in\n    tag_89:\n      mload(0x40)\n      tag_91\n      swap2\n      swap1\n      tag_40\n      jump\t// in\n    tag_91:\n      mload(0x40)\n      dup1\n      swap2\n      sub\n      swap1\n      return\n        /* \"contracts/LiskGarden.sol\":1407:1512  function deposit() public payable {... */\n    tag_17:\n      tag_92\n      tag_93\n      jump\t// in\n    tag_92:\n      stop\n        /* \"contracts/LiskGarden.sol\":3691:4714  function updatePlantStage(uint256 plantId) public {... */\n    tag_18:\n      callvalue\n      dup1\n      iszero\n      tag_94\n      jumpi\n      revert(0x00, 0x00)\n    tag_94:\n      pop\n      tag_95\n      0x04\n      dup1\n      calldatasize\n      sub\n      dup2\n      add\n      swap1\n      tag_96\n      swap2\n      swap1\n      tag_47\n      jump\t// in\n    tag_96:\n      tag_97\n      jump\t// in\n    tag_95:\n      stop\n        /* \"contracts/LiskGarden.sol\":4722:5399  function harvestPlant(uint256 plantId) external {... */\n    tag_19:\n      callvalue\n      dup1\n      iszero\n      tag_98\n      jumpi\n      revert(0x00, 0x00)\n    tag_98:\n      pop\n      tag_99\n      0x04\n      dup1\n      calldatasize\n      sub\n      dup2\n      add\n      swap1\n      tag_100\n      swap2\n      swap1\n      tag_47\n      jump\t// in\n    tag_100:\n      tag_101\n      jump\t// in\n    tag_99:\n      stop\n        /* \"contracts/LiskGarden.sol\":5452:5660  function getPlant(uint256 plantId) external view returns (Plant memory) {... */\n    tag_20:\n      callvalue\n      dup1\n      iszero\n      tag_102\n      jumpi\n      revert(0x00, 0x00)\n    tag_102:\n      pop\n      tag_103\n      0x04\n      dup1\n      calldatasize\n      sub\n      dup2\n      add\n      swap1\n      tag_104\n      swap2\n      swap1\n      tag_47\n      jump\t// in\n    tag_104:\n      tag_105\n      jump\t// in\n    tag_103:\n      mload(0x40)\n      tag_106\n      swap2\n      swap1\n      tag_107\n      jump\t// in\n    tag_106:\n      mload(0x40)\n      dup1\n      swap2\n      sub\n      swap1\n      return\n        /* \"contracts/LiskGarden.sol\":5668:5788  function getUserPlants(address user) external view returns (uint256[] memory) {... */\n    tag_30:\n        /* \"contracts/LiskGarden.sol\":5728:5744  uint256[] memory */\n      0x60\n        /* \"contracts/LiskGarden.sol\":5764:5774  userPlants */\n      0x01\n        /* \"contracts/LiskGarden.sol\":5764:5780  userPlants[user] */\n      0x00\n        /* \"contracts/LiskGarden.sol\":5775:5779  user */\n      dup4\n        /* \"contracts/LiskGarden.sol\":5764:5780  userPlants[user] */\n      0xffffffffffffffffffffffffffffffffffffffff\n      and\n      0xffffffffffffffffffffffffffffffffffffffff\n      and\n      dup2\n      mstore\n      0x20\n      add\n      swap1\n      dup2\n      mstore\n      0x20\n      add\n      0x00\n      keccak256\n        /* \"contracts/LiskGarden.sol\":5757:5780  return userPlants[user] */\n      dup1\n      sload\n      dup1\n      0x20\n      mul\n      0x20\n      add\n      mload(0x40)\n      swap1\n      dup2\n      add\n      0x40\n      mstore\n      dup1\n      swap3\n      swap2\n      swap1\n      dup2\n      dup2\n      mstore\n      0x20\n      add\n      dup3\n      dup1\n      sload\n      dup1\n      iszero\n      tag_109\n      jumpi\n      0x20\n      mul\n      dup3\n      add\n      swap2\n      swap1\n      0x00\n      mstore\n      keccak256(0x00, 0x20)\n      swap1\n    tag_110:\n      dup2\n      sload\n      dup2\n      mstore\n      0x20\n      add\n      swap1\n      0x01\n      add\n      swap1\n      dup1\n      dup4\n      gt\n      tag_110\n      jumpi\n    tag_109:\n      pop\n      pop\n      pop\n      pop\n      pop\n      swap1\n      pop\n        /* \"contracts/LiskGarden.sol\":5668:5788  function getUserPlants(address user) external view returns (uint256[] memory) {... */\n      swap2\n      swap1\n      pop\n      jump\t// out\n        /* \"contracts/LiskGarden.sol\":5796:6006  function withdraw() external {... */\n    tag_35:\n        /* \"contracts/LiskGarden.sol\":5858:5863  owner */\n      0x03\n      0x00\n      swap1\n      sload\n      swap1\n      0x0100\n      exp\n      swap1\n      div\n      0xffffffffffffffffffffffffffffffffffffffff\n      and\n        /* \"contracts/LiskGarden.sol\":5844:5863  msg.sender == owner */\n      0xffffffffffffffffffffffffffffffffffffffff\n      and\n        /* \"contracts/LiskGarden.sol\":5844:5854  msg.sender */\n      caller\n        /* \"contracts/LiskGarden.sol\":5844:5863  msg.sender == owner */\n      0xffffffffffffffffffffffffffffffffffffffff\n      and\n      eq\n        /* \"contracts/LiskGarden.sol\":5836:5879  require(msg.sender == owner, \"Bukan owner\") */\n      tag_112\n      jumpi\n      mload(0x40)\n      0x08c379a000000000000000000000000000000000000000000000000000000000\n      dup2\n      mstore\n      0x04\n      add\n      tag_113\n      swap1\n      tag_114\n      jump\t// in\n    tag_113:\n      mload(0x40)\n      dup1\n      swap2\n      sub\n      swap1\n      revert\n    tag_112:\n        /* \"contracts/LiskGarden.sol\":5891:5903  bool success */\n      0x00\n        /* \"contracts/LiskGarden.sol\":5909:5914  owner */\n      0x03\n      0x00\n      swap1\n      sload\n      swap1\n      0x0100\n      exp\n      swap1\n      div\n      0xffffffffffffffffffffffffffffffffffffffff\n      and\n        /* \"contracts/LiskGarden.sol\":5909:5919  owner.call */\n      0xffffffffffffffffffffffffffffffffffffffff\n      and\n        /* \"contracts/LiskGarden.sol\":5927:5948  address(this).balance */\n      selfbalance\n        /* \"contracts/LiskGarden.sol\":5909:5953  owner.call{value: address(this).balance}(\"\") */\n      mload(0x40)\n      tag_115\n      swap1\n      tag_116\n      jump\t// in\n    tag_115:\n      0x00\n      mload(0x40)\n      dup1\n      dup4\n      sub\n      dup2\n      dup6\n      dup8\n      gas\n      call\n      swap3\n      pop\n      pop\n      pop\n      returndatasize\n      dup1\n      0x00\n      dup2\n      eq\n      tag_119\n      jumpi\n      mload(0x40)\n      swap2\n      pop\n      and(add(returndatasize, 0x3f), not(0x1f))\n      dup3\n      add\n      0x40\n      mstore\n      returndatasize\n      dup3\n      mstore\n      returndatasize\n      0x00\n      0x20\n      dup5\n      add\n      returndatacopy\n      jump(tag_118)\n    tag_119:\n      0x60\n      swap2\n      pop\n    tag_118:\n      pop\n        /* \"contracts/LiskGarden.sol\":5890:5953  (bool success, ) = owner.call{value: address(this).balance}(\"\") */\n      pop\n      swap1\n      pop\n        /* \"contracts/LiskGarden.sol\":5972:5979  success */\n      dup1\n        /* \"contracts/LiskGarden.sol\":5964:5998  require(success, \"Transfer gagal\") */\n      tag_120\n      jumpi\n      mload(0x40)\n      0x08c379a000000000000000000000000000000000000000000000000000000000\n      dup2\n      mstore\n      0x04\n      add\n      tag_121\n      swap1\n      tag_122\n      jump\t// in\n    tag_121:\n      mload(0x40)\n      dup1\n      swap2\n      sub\n      swap1\n      revert\n    tag_120:\n        /* \"contracts/LiskGarden.sol\":5825:6006  {... */\n      pop\n        /* \"contracts/LiskGarden.sol\":5796:6006  function withdraw() external {... */\n      jump\t// out\n        /* \"contracts/LiskGarden.sol\":731:782  uint256 public  constant STAGE_DURATION = 1 minutes */\n    tag_38:\n        /* \"contracts/LiskGarden.sol\":773:782  1 minutes */\n      0x3c\n        /* \"contracts/LiskGarden.sol\":731:782  uint256 public  constant STAGE_DURATION = 1 minutes */\n      dup2\n      jump\t// out\n        /* \"contracts/LiskGarden.sol\":1520:2218  function plantSeed() external payable returns (uint256) { ... */\n    tag_42:\n        /* \"contracts/LiskGarden.sol\":1567:1574  uint256 */\n      0x00\n        /* \"contracts/LiskGarden.sol\":653:664  0.001 ether */\n      0x038d7ea4c68000\n        /* \"contracts/LiskGarden.sol\":1596:1605  msg.value */\n      callvalue\n        /* \"contracts/LiskGarden.sol\":1596:1620  msg.value >= PLANT_PRICE */\n      lt\n      iszero\n        /* \"contracts/LiskGarden.sol\":1588:1640  require(msg.value >= PLANT_PRICE, \"Perlu 0.001 ETH\") */\n      tag_124\n      jumpi\n      mload(0x40)\n      0x08c379a000000000000000000000000000000000000000000000000000000000\n      dup2\n      mstore\n      0x04\n      add\n      tag_125\n      swap1\n      tag_126\n      jump\t// in\n    tag_125:\n      mload(0x40)\n      dup1\n      swap2\n      sub\n      swap1\n      revert\n    tag_124:\n        /* \"contracts/LiskGarden.sol\":1651:1663  plantCounter */\n      0x02\n      0x00\n        /* \"contracts/LiskGarden.sol\":1651:1665  plantCounter++ */\n      dup2\n      sload\n      dup1\n      swap3\n      swap2\n      swap1\n      tag_127\n      swap1\n      tag_128\n      jump\t// in\n    tag_127:\n      swap2\n      swap1\n      pop\n      sstore\n      pop\n        /* \"contracts/LiskGarden.sol\":1676:1694  uint256 newPlantId */\n      0x00\n        /* \"contracts/LiskGarden.sol\":1697:1709  plantCounter */\n      sload(0x02)\n        /* \"contracts/LiskGarden.sol\":1676:1709  uint256 newPlantId = plantCounter */\n      swap1\n      pop\n        /* \"contracts/LiskGarden.sol\":1722:1743  Plant memory newPlant */\n      0x00\n        /* \"contracts/LiskGarden.sol\":1746:2033  Plant({... */\n      mload(0x40)\n      dup1\n      0x0100\n      add\n      0x40\n      mstore\n      dup1\n        /* \"contracts/LiskGarden.sol\":1771:1781  newPlantId */\n      dup4\n        /* \"contracts/LiskGarden.sol\":1746:2033  Plant({... */\n      dup2\n      mstore\n      0x20\n      add\n        /* \"contracts/LiskGarden.sol\":1803:1813  msg.sender */\n      caller\n        /* \"contracts/LiskGarden.sol\":1746:2033  Plant({... */\n      0xffffffffffffffffffffffffffffffffffffffff\n      and\n      dup2\n      mstore\n      0x20\n      add\n        /* \"contracts/LiskGarden.sol\":1835:1851  GrowthStage.SEED */\n      0x00\n        /* \"contracts/LiskGarden.sol\":1746:2033  Plant({... */\n      0x03\n      dup2\n      gt\n      iszero\n      tag_129\n      jumpi\n      tag_130\n      tag_131\n      jump\t// in\n    tag_130:\n    tag_129:\n      dup2\n      mstore\n      0x20\n      add\n        /* \"contracts/LiskGarden.sol\":1879:1894  block.timestamp */\n      timestamp\n        /* \"contracts/LiskGarden.sol\":1746:2033  Plant({... */\n      dup2\n      mstore\n      0x20\n      add\n        /* \"contracts/LiskGarden.sol\":1922:1937  block.timestamp */\n      timestamp\n        /* \"contracts/LiskGarden.sol\":1746:2033  Plant({... */\n      dup2\n      mstore\n      0x20\n      add\n        /* \"contracts/LiskGarden.sol\":1964:1967  100 */\n      0x64\n        /* \"contracts/LiskGarden.sol\":1746:2033  Plant({... */\n      0xff\n      and\n      dup2\n      mstore\n      0x20\n      add\n        /* \"contracts/LiskGarden.sol\":1989:1993  true */\n      0x01\n        /* \"contracts/LiskGarden.sol\":1746:2033  Plant({... */\n      iszero\n      iszero\n      dup2\n      mstore\n      0x20\n      add\n        /* \"contracts/LiskGarden.sol\":2016:2021  false */\n      0x00\n        /* \"contracts/LiskGarden.sol\":1746:2033  Plant({... */\n      iszero\n      iszero\n      dup2\n      mstore\n      pop\n        /* \"contracts/LiskGarden.sol\":1722:2033  Plant memory newPlant = Plant({... */\n      swap1\n      pop\n        /* \"contracts/LiskGarden.sol\":2069:2077  newPlant */\n      dup1\n        /* \"contracts/LiskGarden.sol\":2046:2052  plants */\n      0x00\n        /* \"contracts/LiskGarden.sol\":2046:2066  plants[plantCounter] */\n      0x00\n        /* \"contracts/LiskGarden.sol\":2053:2065  plantCounter */\n      sload(0x02)\n        /* \"contracts/LiskGarden.sol\":2046:2066  plants[plantCounter] */\n      dup2\n      mstore\n      0x20\n      add\n      swap1\n      dup2\n      mstore\n      0x20\n      add\n      0x00\n      keccak256\n        /* \"contracts/LiskGarden.sol\":2046:2077  plants[plantCounter] = newPlant */\n      0x00\n      dup3\n      add\n      mload\n      dup2\n      0x00\n      add\n      sstore\n      0x20\n      dup3\n      add\n      mload\n      dup2\n      0x01\n      add\n      exp(0x0100, 0x00)\n      dup2\n      sload\n      dup2\n      0xffffffffffffffffffffffffffffffffffffffff\n      mul\n      not\n      and\n      swap1\n      dup4\n      0xffffffffffffffffffffffffffffffffffffffff\n      and\n      mul\n      or\n      swap1\n      sstore\n      pop\n      0x40\n      dup3\n      add\n      mload\n      dup2\n      0x01\n      add\n      exp(0x0100, 0x14)\n      dup2\n      sload\n      dup2\n      0xff\n      mul\n      not\n      and\n      swap1\n      dup4\n      0x03\n      dup2\n      gt\n      iszero\n      tag_132\n      jumpi\n      tag_133\n      tag_131\n      jump\t// in\n    tag_133:\n    tag_132:\n      mul\n      or\n      swap1\n      sstore\n      pop\n      0x60\n      dup3\n      add\n      mload\n      dup2\n      0x02\n      add\n      sstore\n      0x80\n      dup3\n      add\n      mload\n      dup2\n      0x03\n      add\n      sstore\n      0xa0\n      dup3\n      add\n      mload\n      dup2\n      0x04\n      add\n      exp(0x0100, 0x00)\n      dup2\n      sload\n      dup2\n      0xff\n      mul\n      not\n      and\n      swap1\n      dup4\n      0xff\n      and\n      mul\n      or\n      swap1\n      sstore\n      pop\n      0xc0\n      dup3\n      add\n      mload\n      dup2\n      0x04\n      add\n      exp(0x0100, 0x01)\n      dup2\n      sload\n      dup2\n      0xff\n      mul\n      not\n      and\n      swap1\n      dup4\n      iszero\n      iszero\n      mul\n      or\n      swap1\n      sstore\n      pop\n      0xe0\n      dup3\n      add\n      mload\n      dup2\n      0x04\n      add\n      exp(0x0100, 0x02)\n      dup2\n      sload\n      dup2\n      0xff\n      mul\n      not\n      and\n      swap1\n      dup4\n      iszero\n      iszero\n      mul\n      or\n      swap1\n      sstore\n      pop\n      swap1\n      pop\n      pop\n        /* \"contracts/LiskGarden.sol\":2088:2098  userPlants */\n      0x01\n        /* \"contracts/LiskGarden.sol\":2088:2110  userPlants[msg.sender] */\n      0x00\n        /* \"contracts/LiskGarden.sol\":2099:2109  msg.sender */\n      caller\n        /* \"contracts/LiskGarden.sol\":2088:2110  userPlants[msg.sender] */\n      0xffffffffffffffffffffffffffffffffffffffff\n      and\n      0xffffffffffffffffffffffffffffffffffffffff\n      and\n      dup2\n      mstore\n      0x20\n      add\n      swap1\n      dup2\n      mstore\n      0x20\n      add\n      0x00\n      keccak256\n        /* \"contracts/LiskGarden.sol\":2116:2126  newPlantId */\n      dup3\n        /* \"contracts/LiskGarden.sol\":2088:2127  userPlants[msg.sender].push(newPlantId) */\n      swap1\n      dup1\n      0x01\n      dup2\n      sload\n      add\n      dup1\n      dup3\n      sstore\n      dup1\n      swap2\n      pop\n      pop\n      0x01\n      swap1\n      sub\n      swap1\n      0x00\n      mstore\n      keccak256(0x00, 0x20)\n      add\n      0x00\n      swap1\n      swap2\n      swap1\n      swap2\n      swap1\n      swap2\n      pop\n      sstore\n        /* \"contracts/LiskGarden.sol\":2169:2179  newPlantId */\n      dup2\n        /* \"contracts/LiskGarden.sol\":2157:2167  msg.sender */\n      caller\n        /* \"contracts/LiskGarden.sol\":2145:2180  PlantSeeded(msg.sender, newPlantId) */\n      0xffffffffffffffffffffffffffffffffffffffff\n      and\n      0x4f5b22082ac57121703b0b6c1203ef527cfbfa5069616fee6deb979d124adbf0\n      mload(0x40)\n      mload(0x40)\n      dup1\n      swap2\n      sub\n      swap1\n      log3\n        /* \"contracts/LiskGarden.sol\":2200:2210  newPlantId */\n      dup2\n        /* \"contracts/LiskGarden.sol\":2193:2210  return newPlantId */\n      swap3\n      pop\n      pop\n      pop\n        /* \"contracts/LiskGarden.sol\":1520:2218  function plantSeed() external payable returns (uint256) { ... */\n      swap1\n      jump\t// out\n        /* \"contracts/LiskGarden.sol\":2226:2808  function calculateWaterLevel(uint256 plantId) public view returns (uint8) {... */\n    tag_48:\n        /* \"contracts/LiskGarden.sol\":2293:2298  uint8 */\n      0x00\n        /* \"contracts/LiskGarden.sol\":2310:2331  Plant storage _plants */\n      0x00\n        /* \"contracts/LiskGarden.sol\":2334:2340  plants */\n      0x00\n        /* \"contracts/LiskGarden.sol\":2334:2349  plants[plantId] */\n      0x00\n        /* \"contracts/LiskGarden.sol\":2341:2348  plantId */\n      dup5\n        /* \"contracts/LiskGarden.sol\":2334:2349  plants[plantId] */\n      dup2\n      mstore\n      0x20\n      add\n      swap1\n      dup2\n      mstore\n      0x20\n      add\n      0x00\n      keccak256\n        /* \"contracts/LiskGarden.sol\":2310:2349  Plant storage _plants = plants[plantId] */\n      swap1\n      pop\n        /* \"contracts/LiskGarden.sol\":2367:2374  _plants */\n      dup1\n        /* \"contracts/LiskGarden.sol\":2367:2380  _plants.exist */\n      0x04\n      add\n      0x01\n      swap1\n      sload\n      swap1\n      0x0100\n      exp\n      swap1\n      div\n      0xff\n      and\n        /* \"contracts/LiskGarden.sol\":2366:2380  !_plants.exist */\n      iszero\n        /* \"contracts/LiskGarden.sol\":2366:2398  !_plants.exist || _plants.isDead */\n      dup1\n      tag_136\n      jumpi\n      pop\n        /* \"contracts/LiskGarden.sol\":2384:2391  _plants */\n      dup1\n        /* \"contracts/LiskGarden.sol\":2384:2398  _plants.isDead */\n      0x04\n      add\n      0x02\n      swap1\n      sload\n      swap1\n      0x0100\n      exp\n      swap1\n      div\n      0xff\n      and\n        /* \"contracts/LiskGarden.sol\":2366:2398  !_plants.exist || _plants.isDead */\n    tag_136:\n        /* \"contracts/LiskGarden.sol\":2362:2434  if (!_plants.exist || _plants.isDead){... */\n      iszero\n      tag_137\n      jumpi\n        /* \"contracts/LiskGarden.sol\":2421:2422  0 */\n      0x00\n        /* \"contracts/LiskGarden.sol\":2414:2422  return 0 */\n      swap2\n      pop\n      pop\n      jump(tag_135)\n        /* \"contracts/LiskGarden.sol\":2362:2434  if (!_plants.exist || _plants.isDead){... */\n    tag_137:\n        /* \"contracts/LiskGarden.sol\":2444:2468  uint256 timeSinceWatered */\n      0x00\n        /* \"contracts/LiskGarden.sol\":2489:2496  _plants */\n      dup2\n        /* \"contracts/LiskGarden.sol\":2489:2508  _plants.lastWatered */\n      0x03\n      add\n      sload\n        /* \"contracts/LiskGarden.sol\":2471:2486  block.timestamp */\n      timestamp\n        /* \"contracts/LiskGarden.sol\":2471:2508  block.timestamp - _plants.lastWatered */\n      tag_138\n      swap2\n      swap1\n      tag_139\n      jump\t// in\n    tag_138:\n        /* \"contracts/LiskGarden.sol\":2444:2508  uint256 timeSinceWatered = block.timestamp - _plants.lastWatered */\n      swap1\n      pop\n        /* \"contracts/LiskGarden.sol\":2519:2545  uint256 depletionIntervals */\n      0x00\n        /* \"contracts/LiskGarden.sol\":837:847  30 seconds */\n      0x1e\n        /* \"contracts/LiskGarden.sol\":2548:2564  timeSinceWatered */\n      dup3\n        /* \"contracts/LiskGarden.sol\":2548:2587  timeSinceWatered / WATER_DEPLETION_TIME */\n      tag_140\n      swap2\n      swap1\n      tag_141\n      jump\t// in\n    tag_140:\n        /* \"contracts/LiskGarden.sol\":2519:2587  uint256 depletionIntervals = timeSinceWatered / WATER_DEPLETION_TIME */\n      swap1\n      pop\n        /* \"contracts/LiskGarden.sol\":2598:2615  uint256 waterLost */\n      0x00\n        /* \"contracts/LiskGarden.sol\":901:902  2 */\n      0x02\n        /* \"contracts/LiskGarden.sol\":2618:2659  depletionIntervals * WATER_DEPLETION_RATE */\n      0xff\n      and\n        /* \"contracts/LiskGarden.sol\":2618:2636  depletionIntervals */\n      dup3\n        /* \"contracts/LiskGarden.sol\":2618:2659  depletionIntervals * WATER_DEPLETION_RATE */\n      tag_142\n      swap2\n      swap1\n      tag_143\n      jump\t// in\n    tag_142:\n        /* \"contracts/LiskGarden.sol\":2598:2659  uint256 waterLost = depletionIntervals * WATER_DEPLETION_RATE */\n      swap1\n      pop\n        /* \"contracts/LiskGarden.sol\":2689:2696  _plants */\n      dup4\n        /* \"contracts/LiskGarden.sol\":2689:2707  _plants.waterLevel */\n      0x04\n      add\n      0x00\n      swap1\n      sload\n      swap1\n      0x0100\n      exp\n      swap1\n      div\n      0xff\n      and\n        /* \"contracts/LiskGarden.sol\":2676:2707  waterLost >= _plants.waterLevel */\n      0xff\n      and\n        /* \"contracts/LiskGarden.sol\":2676:2685  waterLost */\n      dup2\n        /* \"contracts/LiskGarden.sol\":2676:2707  waterLost >= _plants.waterLevel */\n      lt\n        /* \"contracts/LiskGarden.sol\":2672:2744  if (waterLost >= _plants.waterLevel) {... */\n      tag_144\n      jumpi\n        /* \"contracts/LiskGarden.sol\":2731:2732  0 */\n      0x00\n        /* \"contracts/LiskGarden.sol\":2724:2732  return 0 */\n      swap5\n      pop\n      pop\n      pop\n      pop\n      pop\n      jump(tag_135)\n        /* \"contracts/LiskGarden.sol\":2672:2744  if (waterLost >= _plants.waterLevel) {... */\n    tag_144:\n        /* \"contracts/LiskGarden.sol\":2790:2799  waterLost */\n      dup1\n        /* \"contracts/LiskGarden.sol\":2769:2776  _plants */\n      dup5\n        /* \"contracts/LiskGarden.sol\":2769:2787  _plants.waterLevel */\n      0x04\n      add\n      0x00\n      swap1\n      sload\n      swap1\n      0x0100\n      exp\n      swap1\n      div\n      0xff\n      and\n        /* \"contracts/LiskGarden.sol\":2769:2799  _plants.waterLevel - waterLost */\n      0xff\n      and\n      tag_145\n      swap2\n      swap1\n      tag_139\n      jump\t// in\n    tag_145:\n        /* \"contracts/LiskGarden.sol\":2756:2800  return uint8(_plants.waterLevel - waterLost) */\n      swap5\n      pop\n      pop\n      pop\n      pop\n      pop\n        /* \"contracts/LiskGarden.sol\":2226:2808  function calculateWaterLevel(uint256 plantId) public view returns (uint8) {... */\n    tag_135:\n      swap2\n      swap1\n      pop\n      jump\t// out\n        /* \"contracts/LiskGarden.sol\":789:847  uint256 public  constant WATER_DEPLETION_TIME = 30 seconds */\n    tag_53:\n        /* \"contracts/LiskGarden.sol\":837:847  30 seconds */\n      0x1e\n        /* \"contracts/LiskGarden.sol\":789:847  uint256 public  constant WATER_DEPLETION_TIME = 30 seconds */\n      dup2\n      jump\t// out\n        /* \"contracts/LiskGarden.sol\":671:724  uint256 public  constant HARVEST_REWARD = 0.003 ether */\n    tag_57:\n        /* \"contracts/LiskGarden.sol\":713:724  0.003 ether */\n      0x0aa87bee538000\n        /* \"contracts/LiskGarden.sol\":671:724  uint256 public  constant HARVEST_REWARD = 0.003 ether */\n      dup2\n      jump\t// out\n        /* \"contracts/LiskGarden.sol\":473:521  mapping(address => uint256[]) public  userPlants */\n    tag_63:\n      mstore(0x20, 0x01)\n      dup2\n      0x00\n      mstore\n      keccak256(0x00, 0x40)\n      dup2\n      dup2\n      sload\n      dup2\n      lt\n      tag_146\n      jumpi\n      0x00\n      dup1\n      revert\n    tag_146:\n      swap1\n      0x00\n      mstore\n      keccak256(0x00, 0x20)\n      add\n      0x00\n      swap2\n      pop\n      swap2\n      pop\n      pop\n      sload\n      dup2\n      jump\t// out\n        /* \"contracts/LiskGarden.sol\":563:584  address public  owner */\n    tag_67:\n      0x03\n      0x00\n      swap1\n      sload\n      swap1\n      0x0100\n      exp\n      swap1\n      div\n      0xffffffffffffffffffffffffffffffffffffffff\n      and\n      dup2\n      jump\t// out\n        /* \"contracts/LiskGarden.sol\":427:466  mapping(uint256 => Plant) public plants */\n    tag_73:\n      mstore(0x20, 0x00)\n      dup1\n      0x00\n      mstore\n      keccak256(0x00, 0x40)\n      0x00\n      swap2\n      pop\n      swap1\n      pop\n      dup1\n      0x00\n      add\n      sload\n      swap1\n      dup1\n      0x01\n      add\n      0x00\n      swap1\n      sload\n      swap1\n      0x0100\n      exp\n      swap1\n      div\n      0xffffffffffffffffffffffffffffffffffffffff\n      and\n      swap1\n      dup1\n      0x01\n      add\n      0x14\n      swap1\n      sload\n      swap1\n      0x0100\n      exp\n      swap1\n      div\n      0xff\n      and\n      swap1\n      dup1\n      0x02\n      add\n      sload\n      swap1\n      dup1\n      0x03\n      add\n      sload\n      swap1\n      dup1\n      0x04\n      add\n      0x00\n      swap1\n      sload\n      swap1\n      0x0100\n      exp\n      swap1\n      div\n      0xff\n      and\n      swap1\n      dup1\n      0x04\n      add\n      0x01\n      swap1\n      sload\n      swap1\n      0x0100\n      exp\n      swap1\n      div\n      0xff\n      and\n      swap1\n      dup1\n      0x04\n      add\n      0x02\n      swap1\n      sload\n      swap1\n      0x0100\n      exp\n      swap1\n      div\n      0xff\n      and\n      swap1\n      pop\n      dup9\n      jump\t// out\n        /* \"contracts/LiskGarden.sol\":3191:3683  function waterPlant(uint256 plantId) external {... */\n    tag_79:\n        /* \"contracts/LiskGarden.sol\":3248:3268  Plant storage _plant */\n      0x00\n        /* \"contracts/LiskGarden.sol\":3271:3277  plants */\n      0x00\n        /* \"contracts/LiskGarden.sol\":3271:3286  plants[plantId] */\n      0x00\n        /* \"contracts/LiskGarden.sol\":3278:3285  plantId */\n      dup4\n        /* \"contracts/LiskGarden.sol\":3271:3286  plants[plantId] */\n      dup2\n      mstore\n      0x20\n      add\n      swap1\n      dup2\n      mstore\n      0x20\n      add\n      0x00\n      keccak256\n        /* \"contracts/LiskGarden.sol\":3248:3286  Plant storage _plant = plants[plantId] */\n      swap1\n      pop\n        /* \"contracts/LiskGarden.sol\":3315:3321  _plant */\n      dup1\n        /* \"contracts/LiskGarden.sol\":3315:3327  _plant.exist */\n      0x04\n      add\n      0x01\n      swap1\n      sload\n      swap1\n      0x0100\n      exp\n      swap1\n      div\n      0xff\n      and\n        /* \"contracts/LiskGarden.sol\":3307:3347  require(_plant.exist, \"Plant not Exist\") */\n      tag_149\n      jumpi\n      mload(0x40)\n      0x08c379a000000000000000000000000000000000000000000000000000000000\n      dup2\n      mstore\n      0x04\n      add\n      tag_150\n      swap1\n      tag_151\n      jump\t// in\n    tag_150:\n      mload(0x40)\n      dup1\n      swap2\n      sub\n      swap1\n      revert\n    tag_149:\n        /* \"contracts/LiskGarden.sol\":3382:3392  msg.sender */\n      caller\n        /* \"contracts/LiskGarden.sol\":3366:3392  _plant.owner == msg.sender */\n      0xffffffffffffffffffffffffffffffffffffffff\n      and\n        /* \"contracts/LiskGarden.sol\":3366:3372  _plant */\n      dup2\n        /* \"contracts/LiskGarden.sol\":3366:3378  _plant.owner */\n      0x01\n      add\n      0x00\n      swap1\n      sload\n      swap1\n      0x0100\n      exp\n      swap1\n      div\n      0xffffffffffffffffffffffffffffffffffffffff\n      and\n        /* \"contracts/LiskGarden.sol\":3366:3392  _plant.owner == msg.sender */\n      0xffffffffffffffffffffffffffffffffffffffff\n      and\n      eq\n        /* \"contracts/LiskGarden.sol\":3358:3418  require(_plant.owner == msg.sender, \"You are not the owner\") */\n      tag_152\n      jumpi\n      mload(0x40)\n      0x08c379a000000000000000000000000000000000000000000000000000000000\n      dup2\n      mstore\n      0x04\n      add\n      tag_153\n      swap1\n      tag_154\n      jump\t// in\n    tag_153:\n      mload(0x40)\n      dup1\n      swap2\n      sub\n      swap1\n      revert\n    tag_152:\n        /* \"contracts/LiskGarden.sol\":3438:3444  _plant */\n      dup1\n        /* \"contracts/LiskGarden.sol\":3438:3451  _plant.isDead */\n      0x04\n      add\n      0x02\n      swap1\n      sload\n      swap1\n      0x0100\n      exp\n      swap1\n      div\n      0xff\n      and\n        /* \"contracts/LiskGarden.sol\":3437:3451  !_plant.isDead */\n      iszero\n        /* \"contracts/LiskGarden.sol\":3429:3469  require(!_plant.isDead, \"Plant is dead\") */\n      tag_155\n      jumpi\n      mload(0x40)\n      0x08c379a000000000000000000000000000000000000000000000000000000000\n      dup2\n      mstore\n      0x04\n      add\n      tag_156\n      swap1\n      tag_157\n      jump\t// in\n    tag_156:\n      mload(0x40)\n      dup1\n      swap2\n      sub\n      swap1\n      revert\n    tag_155:\n        /* \"contracts/LiskGarden.sol\":3482:3496  uint8 newLevel */\n      0x00\n        /* \"contracts/LiskGarden.sol\":3499:3502  100 */\n      0x64\n        /* \"contracts/LiskGarden.sol\":3482:3502  uint8 newLevel = 100 */\n      swap1\n      pop\n        /* \"contracts/LiskGarden.sol\":3533:3541  newLevel */\n      dup1\n        /* \"contracts/LiskGarden.sol\":3513:3519  _plant */\n      dup3\n        /* \"contracts/LiskGarden.sol\":3513:3530  _plant.waterLevel */\n      0x04\n      add\n      0x00\n        /* \"contracts/LiskGarden.sol\":3513:3541  _plant.waterLevel = newLevel */\n      0x0100\n      exp\n      dup2\n      sload\n      dup2\n      0xff\n      mul\n      not\n      and\n      swap1\n      dup4\n      0xff\n      and\n      mul\n      or\n      swap1\n      sstore\n      pop\n        /* \"contracts/LiskGarden.sol\":3573:3588  block.timestamp */\n      timestamp\n        /* \"contracts/LiskGarden.sol\":3552:3558  _plant */\n      dup3\n        /* \"contracts/LiskGarden.sol\":3552:3570  _plant.lastWatered */\n      0x03\n      add\n        /* \"contracts/LiskGarden.sol\":3552:3588  _plant.lastWatered = block.timestamp */\n      dup2\n      swap1\n      sstore\n      pop\n        /* \"contracts/LiskGarden.sol\":3619:3626  plantId */\n      dup3\n        /* \"contracts/LiskGarden.sol\":3606:3637  PlantWatered(plantId, newLevel) */\n      0xd4b742b9ba48fffa1f14267075a7793851770764117c423fd0a6550dfc8cb574\n        /* \"contracts/LiskGarden.sol\":3628:3636  newLevel */\n      dup3\n        /* \"contracts/LiskGarden.sol\":3606:3637  PlantWatered(plantId, newLevel) */\n      mload(0x40)\n      tag_158\n      swap2\n      swap1\n      tag_50\n      jump\t// in\n    tag_158:\n      mload(0x40)\n      dup1\n      swap2\n      sub\n      swap1\n      log2\n        /* \"contracts/LiskGarden.sol\":3650:3675  updatePlantStage(plantId) */\n      tag_159\n        /* \"contracts/LiskGarden.sol\":3667:3674  plantId */\n      dup4\n        /* \"contracts/LiskGarden.sol\":3650:3666  updatePlantStage */\n      tag_97\n        /* \"contracts/LiskGarden.sol\":3650:3675  updatePlantStage(plantId) */\n      jump\t// in\n    tag_159:\n        /* \"contracts/LiskGarden.sol\":3237:3683  {... */\n      pop\n      pop\n        /* \"contracts/LiskGarden.sol\":3191:3683  function waterPlant(uint256 plantId) external {... */\n      pop\n      jump\t// out\n        /* \"contracts/LiskGarden.sol\":528:556  uint256 public  plantCounter */\n    tag_82:\n      sload(0x02)\n      dup2\n      jump\t// out\n        /* \"contracts/LiskGarden.sol\":854:902  uint8 public  constant WATER_DEPLETION_RATE  = 2 */\n    tag_86:\n        /* \"contracts/LiskGarden.sol\":901:902  2 */\n      0x02\n        /* \"contracts/LiskGarden.sol\":854:902  uint8 public  constant WATER_DEPLETION_RATE  = 2 */\n      dup2\n      jump\t// out\n        /* \"contracts/LiskGarden.sol\":614:664  uint256 public  constant PLANT_PRICE = 0.001 ether */\n    tag_90:\n        /* \"contracts/LiskGarden.sol\":653:664  0.001 ether */\n      0x038d7ea4c68000\n        /* \"contracts/LiskGarden.sol\":614:664  uint256 public  constant PLANT_PRICE = 0.001 ether */\n      dup2\n      jump\t// out\n        /* \"contracts/LiskGarden.sol\":1407:1512  function deposit() public payable {... */\n    tag_93:\n        /* \"contracts/LiskGarden.sol\":1473:1484  0.003 ether */\n      0x0aa87bee538000\n        /* \"contracts/LiskGarden.sol\":1460:1469  msg.value */\n      callvalue\n        /* \"contracts/LiskGarden.sol\":1460:1484  msg.value >= 0.003 ether */\n      lt\n      iszero\n        /* \"contracts/LiskGarden.sol\":1452:1504  require(msg.value >= 0.003 ether, \"Perlu 0.003 ETH\") */\n      tag_161\n      jumpi\n      mload(0x40)\n      0x08c379a000000000000000000000000000000000000000000000000000000000\n      dup2\n      mstore\n      0x04\n      add\n      tag_162\n      swap1\n      tag_163\n      jump\t// in\n    tag_162:\n      mload(0x40)\n      dup1\n      swap2\n      sub\n      swap1\n      revert\n    tag_161:\n        /* \"contracts/LiskGarden.sol\":1407:1512  function deposit() public payable {... */\n      jump\t// out\n        /* \"contracts/LiskGarden.sol\":3691:4714  function updatePlantStage(uint256 plantId) public {... */\n    tag_97:\n        /* \"contracts/LiskGarden.sol\":3752:3772  Plant storage _plant */\n      0x00\n        /* \"contracts/LiskGarden.sol\":3775:3781  plants */\n      0x00\n        /* \"contracts/LiskGarden.sol\":3775:3790  plants[plantId] */\n      0x00\n        /* \"contracts/LiskGarden.sol\":3782:3789  plantId */\n      dup4\n        /* \"contracts/LiskGarden.sol\":3775:3790  plants[plantId] */\n      dup2\n      mstore\n      0x20\n      add\n      swap1\n      dup2\n      mstore\n      0x20\n      add\n      0x00\n      keccak256\n        /* \"contracts/LiskGarden.sol\":3752:3790  Plant storage _plant = plants[plantId] */\n      swap1\n      pop\n        /* \"contracts/LiskGarden.sol\":3811:3817  _plant */\n      dup1\n        /* \"contracts/LiskGarden.sol\":3811:3823  _plant.exist */\n      0x04\n      add\n      0x01\n      swap1\n      sload\n      swap1\n      0x0100\n      exp\n      swap1\n      div\n      0xff\n      and\n        /* \"contracts/LiskGarden.sol\":3803:3843  require(_plant.exist, \"Plant not Exist\") */\n      tag_165\n      jumpi\n      mload(0x40)\n      0x08c379a000000000000000000000000000000000000000000000000000000000\n      dup2\n      mstore\n      0x04\n      add\n      tag_166\n      swap1\n      tag_151\n      jump\t// in\n    tag_166:\n      mload(0x40)\n      dup1\n      swap2\n      sub\n      swap1\n      revert\n    tag_165:\n        /* \"contracts/LiskGarden.sol\":3856:3881  updateWaterLevel(plantId) */\n      tag_167\n        /* \"contracts/LiskGarden.sol\":3873:3880  plantId */\n      dup3\n        /* \"contracts/LiskGarden.sol\":3856:3872  updateWaterLevel */\n      tag_168\n        /* \"contracts/LiskGarden.sol\":3856:3881  updateWaterLevel(plantId) */\n      jump\t// in\n    tag_167:\n        /* \"contracts/LiskGarden.sol\":3898:3904  _plant */\n      dup1\n        /* \"contracts/LiskGarden.sol\":3898:3911  _plant.isDead */\n      0x04\n      add\n      0x02\n      swap1\n      sload\n      swap1\n      0x0100\n      exp\n      swap1\n      div\n      0xff\n      and\n        /* \"contracts/LiskGarden.sol\":3894:3946  if (_plant.isDead) {... */\n      iszero\n      tag_169\n      jumpi\n        /* \"contracts/LiskGarden.sol\":3928:3935  return; */\n      pop\n      jump(tag_164)\n        /* \"contracts/LiskGarden.sol\":3894:3946  if (_plant.isDead) {... */\n    tag_169:\n        /* \"contracts/LiskGarden.sol\":3958:3982  uint256 timeSincePlanted */\n      0x00\n        /* \"contracts/LiskGarden.sol\":4003:4009  _plant */\n      dup2\n        /* \"contracts/LiskGarden.sol\":4003:4021  _plant.plantedDate */\n      0x02\n      add\n      sload\n        /* \"contracts/LiskGarden.sol\":3985:4000  block.timestamp */\n      timestamp\n        /* \"contracts/LiskGarden.sol\":3985:4021  block.timestamp - _plant.plantedDate */\n      tag_170\n      swap2\n      swap1\n      tag_139\n      jump\t// in\n    tag_170:\n        /* \"contracts/LiskGarden.sol\":3958:4021  uint256 timeSincePlanted = block.timestamp - _plant.plantedDate */\n      swap1\n      pop\n        /* \"contracts/LiskGarden.sol\":4034:4054  GrowthStage oldState */\n      0x00\n        /* \"contracts/LiskGarden.sol\":4057:4063  _plant */\n      dup3\n        /* \"contracts/LiskGarden.sol\":4057:4069  _plant.stage */\n      0x01\n      add\n      0x14\n      swap1\n      sload\n      swap1\n      0x0100\n      exp\n      swap1\n      div\n      0xff\n      and\n        /* \"contracts/LiskGarden.sol\":4034:4069  GrowthStage oldState = _plant.stage */\n      swap1\n      pop\n        /* \"contracts/LiskGarden.sol\":773:782  1 minutes */\n      0x3c\n        /* \"contracts/LiskGarden.sol\":4094:4110  timeSincePlanted */\n      dup3\n        /* \"contracts/LiskGarden.sol\":4094:4128  timeSincePlanted >= STAGE_DURATION */\n      lt\n      iszero\n        /* \"contracts/LiskGarden.sol\":4094:4160  timeSincePlanted >= STAGE_DURATION && oldState == GrowthStage.SEED */\n      dup1\n      iszero\n      tag_171\n      jumpi\n      pop\n        /* \"contracts/LiskGarden.sol\":4144:4160  GrowthStage.SEED */\n      0x00\n        /* \"contracts/LiskGarden.sol\":4132:4160  oldState == GrowthStage.SEED */\n      0x03\n      dup2\n      gt\n      iszero\n      tag_172\n      jumpi\n      tag_173\n      tag_131\n      jump\t// in\n    tag_173:\n    tag_172:\n        /* \"contracts/LiskGarden.sol\":4132:4140  oldState */\n      dup2\n        /* \"contracts/LiskGarden.sol\":4132:4160  oldState == GrowthStage.SEED */\n      0x03\n      dup2\n      gt\n      iszero\n      tag_174\n      jumpi\n      tag_175\n      tag_131\n      jump\t// in\n    tag_175:\n    tag_174:\n      eq\n        /* \"contracts/LiskGarden.sol\":4094:4160  timeSincePlanted >= STAGE_DURATION && oldState == GrowthStage.SEED */\n    tag_171:\n        /* \"contracts/LiskGarden.sol\":4090:4707  if (timeSincePlanted >= STAGE_DURATION && oldState == GrowthStage.SEED) {... */\n      iszero\n      tag_176\n      jumpi\n        /* \"contracts/LiskGarden.sol\":4192:4210  GrowthStage.SPROUT */\n      0x01\n        /* \"contracts/LiskGarden.sol\":4177:4183  _plant */\n      dup4\n        /* \"contracts/LiskGarden.sol\":4177:4189  _plant.stage */\n      0x01\n      add\n      0x14\n        /* \"contracts/LiskGarden.sol\":4177:4210  _plant.stage = GrowthStage.SPROUT */\n      0x0100\n      exp\n      dup2\n      sload\n      dup2\n      0xff\n      mul\n      not\n      and\n      swap1\n      dup4\n      0x03\n      dup2\n      gt\n      iszero\n      tag_177\n      jumpi\n      tag_178\n      tag_131\n      jump\t// in\n    tag_178:\n    tag_177:\n      mul\n      or\n      swap1\n      sstore\n      pop\n        /* \"contracts/LiskGarden.sol\":4244:4251  plantId */\n      dup4\n        /* \"contracts/LiskGarden.sol\":4230:4272  StageAdvanced(plantId, GrowthStage.SPROUT) */\n      0x338b8976706f9da67298dddfa1ea4ff7d99cce68b9ca39c4f348994f8e2124a8\n        /* \"contracts/LiskGarden.sol\":4253:4271  GrowthStage.SPROUT */\n      0x01\n        /* \"contracts/LiskGarden.sol\":4230:4272  StageAdvanced(plantId, GrowthStage.SPROUT) */\n      mload(0x40)\n      tag_179\n      swap2\n      swap1\n      tag_180\n      jump\t// in\n    tag_179:\n      mload(0x40)\n      dup1\n      swap2\n      sub\n      swap1\n      log2\n        /* \"contracts/LiskGarden.sol\":4090:4707  if (timeSincePlanted >= STAGE_DURATION && oldState == GrowthStage.SEED) {... */\n      jump(tag_181)\n    tag_176:\n        /* \"contracts/LiskGarden.sol\":4332:4333  2 */\n      0x02\n        /* \"contracts/LiskGarden.sol\":773:782  1 minutes */\n      0x3c\n        /* \"contracts/LiskGarden.sol\":4315:4333  STAGE_DURATION * 2 */\n      tag_182\n      swap2\n      swap1\n      tag_143\n      jump\t// in\n    tag_182:\n        /* \"contracts/LiskGarden.sol\":4294:4310  timeSincePlanted */\n      dup3\n        /* \"contracts/LiskGarden.sol\":4294:4334  timeSincePlanted >= (STAGE_DURATION * 2) */\n      lt\n      iszero\n        /* \"contracts/LiskGarden.sol\":4294:4368  timeSincePlanted >= (STAGE_DURATION * 2) && oldState == GrowthStage.SPROUT */\n      dup1\n      iszero\n      tag_183\n      jumpi\n      pop\n        /* \"contracts/LiskGarden.sol\":4350:4368  GrowthStage.SPROUT */\n      0x01\n        /* \"contracts/LiskGarden.sol\":4338:4368  oldState == GrowthStage.SPROUT */\n      0x03\n      dup2\n      gt\n      iszero\n      tag_184\n      jumpi\n      tag_185\n      tag_131\n      jump\t// in\n    tag_185:\n    tag_184:\n        /* \"contracts/LiskGarden.sol\":4338:4346  oldState */\n      dup2\n        /* \"contracts/LiskGarden.sol\":4338:4368  oldState == GrowthStage.SPROUT */\n      0x03\n      dup2\n      gt\n      iszero\n      tag_186\n      jumpi\n      tag_187\n      tag_131\n      jump\t// in\n    tag_187:\n    tag_186:\n      eq\n        /* \"contracts/LiskGarden.sol\":4294:4368  timeSincePlanted >= (STAGE_DURATION * 2) && oldState == GrowthStage.SPROUT */\n    tag_183:\n        /* \"contracts/LiskGarden.sol\":4290:4707  if (timeSincePlanted >= (STAGE_DURATION * 2) && oldState == GrowthStage.SPROUT) {... */\n      iszero\n      tag_188\n      jumpi\n        /* \"contracts/LiskGarden.sol\":4400:4419  GrowthStage.GROWING */\n      0x02\n        /* \"contracts/LiskGarden.sol\":4385:4391  _plant */\n      dup4\n        /* \"contracts/LiskGarden.sol\":4385:4397  _plant.stage */\n      0x01\n      add\n      0x14\n        /* \"contracts/LiskGarden.sol\":4385:4419  _plant.stage = GrowthStage.GROWING */\n      0x0100\n      exp\n      dup2\n      sload\n      dup2\n      0xff\n      mul\n      not\n      and\n      swap1\n      dup4\n      0x03\n      dup2\n      gt\n      iszero\n      tag_189\n      jumpi\n      tag_190\n      tag_131\n      jump\t// in\n    tag_190:\n    tag_189:\n      mul\n      or\n      swap1\n      sstore\n      pop\n        /* \"contracts/LiskGarden.sol\":4453:4460  plantId */\n      dup4\n        /* \"contracts/LiskGarden.sol\":4439:4482  StageAdvanced(plantId, GrowthStage.GROWING) */\n      0x338b8976706f9da67298dddfa1ea4ff7d99cce68b9ca39c4f348994f8e2124a8\n        /* \"contracts/LiskGarden.sol\":4462:4481  GrowthStage.GROWING */\n      0x02\n        /* \"contracts/LiskGarden.sol\":4439:4482  StageAdvanced(plantId, GrowthStage.GROWING) */\n      mload(0x40)\n      tag_191\n      swap2\n      swap1\n      tag_180\n      jump\t// in\n    tag_191:\n      mload(0x40)\n      dup1\n      swap2\n      sub\n      swap1\n      log2\n        /* \"contracts/LiskGarden.sol\":4290:4707  if (timeSincePlanted >= (STAGE_DURATION * 2) && oldState == GrowthStage.SPROUT) {... */\n      jump(tag_192)\n    tag_188:\n        /* \"contracts/LiskGarden.sol\":4542:4543  3 */\n      0x03\n        /* \"contracts/LiskGarden.sol\":773:782  1 minutes */\n      0x3c\n        /* \"contracts/LiskGarden.sol\":4525:4543  STAGE_DURATION * 3 */\n      tag_193\n      swap2\n      swap1\n      tag_143\n      jump\t// in\n    tag_193:\n        /* \"contracts/LiskGarden.sol\":4504:4520  timeSincePlanted */\n      dup3\n        /* \"contracts/LiskGarden.sol\":4504:4544  timeSincePlanted >= (STAGE_DURATION * 3) */\n      lt\n      iszero\n        /* \"contracts/LiskGarden.sol\":4504:4579  timeSincePlanted >= (STAGE_DURATION * 3) && oldState == GrowthStage.GROWING */\n      dup1\n      iszero\n      tag_194\n      jumpi\n      pop\n        /* \"contracts/LiskGarden.sol\":4560:4579  GrowthStage.GROWING */\n      0x02\n        /* \"contracts/LiskGarden.sol\":4548:4579  oldState == GrowthStage.GROWING */\n      0x03\n      dup2\n      gt\n      iszero\n      tag_195\n      jumpi\n      tag_196\n      tag_131\n      jump\t// in\n    tag_196:\n    tag_195:\n        /* \"contracts/LiskGarden.sol\":4548:4556  oldState */\n      dup2\n        /* \"contracts/LiskGarden.sol\":4548:4579  oldState == GrowthStage.GROWING */\n      0x03\n      dup2\n      gt\n      iszero\n      tag_197\n      jumpi\n      tag_198\n      tag_131\n      jump\t// in\n    tag_198:\n    tag_197:\n      eq\n        /* \"contracts/LiskGarden.sol\":4504:4579  timeSincePlanted >= (STAGE_DURATION * 3) && oldState == GrowthStage.GROWING */\n    tag_194:\n        /* \"contracts/LiskGarden.sol\":4500:4707  if (timeSincePlanted >= (STAGE_DURATION * 3) && oldState == GrowthStage.GROWING) {... */\n      iszero\n      tag_199\n      jumpi\n        /* \"contracts/LiskGarden.sol\":4611:4631  GrowthStage.BLOOMING */\n      0x03\n        /* \"contracts/LiskGarden.sol\":4596:4602  _plant */\n      dup4\n        /* \"contracts/LiskGarden.sol\":4596:4608  _plant.stage */\n      0x01\n      add\n      0x14\n        /* \"contracts/LiskGarden.sol\":4596:4631  _plant.stage = GrowthStage.BLOOMING */\n      0x0100\n      exp\n      dup2\n      sload\n      dup2\n      0xff\n      mul\n      not\n      and\n      swap1\n      dup4\n      0x03\n      dup2\n      gt\n      iszero\n      tag_200\n      jumpi\n      tag_201\n      tag_131\n      jump\t// in\n    tag_201:\n    tag_200:\n      mul\n      or\n      swap1\n      sstore\n      pop\n        /* \"contracts/LiskGarden.sol\":4665:4672  plantId */\n      dup4\n        /* \"contracts/LiskGarden.sol\":4651:4695  StageAdvanced(plantId, GrowthStage.BLOOMING) */\n      0x338b8976706f9da67298dddfa1ea4ff7d99cce68b9ca39c4f348994f8e2124a8\n        /* \"contracts/LiskGarden.sol\":4674:4694  GrowthStage.BLOOMING */\n      0x03\n        /* \"contracts/LiskGarden.sol\":4651:4695  StageAdvanced(plantId, GrowthStage.BLOOMING) */\n      mload(0x40)\n      tag_202\n      swap2\n      swap1\n      tag_180\n      jump\t// in\n    tag_202:\n      mload(0x40)\n      dup1\n      swap2\n      sub\n      swap1\n      log2\n        /* \"contracts/LiskGarden.sol\":4500:4707  if (timeSincePlanted >= (STAGE_DURATION * 3) && oldState == GrowthStage.GROWING) {... */\n    tag_199:\n        /* \"contracts/LiskGarden.sol\":4290:4707  if (timeSincePlanted >= (STAGE_DURATION * 2) && oldState == GrowthStage.SPROUT) {... */\n    tag_192:\n        /* \"contracts/LiskGarden.sol\":4090:4707  if (timeSincePlanted >= STAGE_DURATION && oldState == GrowthStage.SEED) {... */\n    tag_181:\n        /* \"contracts/LiskGarden.sol\":3741:4714  {... */\n      pop\n      pop\n      pop\n        /* \"contracts/LiskGarden.sol\":3691:4714  function updatePlantStage(uint256 plantId) public {... */\n    tag_164:\n      pop\n      jump\t// out\n        /* \"contracts/LiskGarden.sol\":4722:5399  function harvestPlant(uint256 plantId) external {... */\n    tag_101:\n        /* \"contracts/LiskGarden.sol\":4781:4801  Plant storage _plant */\n      0x00\n        /* \"contracts/LiskGarden.sol\":4804:4810  plants */\n      0x00\n        /* \"contracts/LiskGarden.sol\":4804:4819  plants[plantId] */\n      0x00\n        /* \"contracts/LiskGarden.sol\":4811:4818  plantId */\n      dup4\n        /* \"contracts/LiskGarden.sol\":4804:4819  plants[plantId] */\n      dup2\n      mstore\n      0x20\n      add\n      swap1\n      dup2\n      mstore\n      0x20\n      add\n      0x00\n      keccak256\n        /* \"contracts/LiskGarden.sol\":4781:4819  Plant storage _plant = plants[plantId] */\n      swap1\n      pop\n        /* \"contracts/LiskGarden.sol\":4838:4844  _plant */\n      dup1\n        /* \"contracts/LiskGarden.sol\":4838:4850  _plant.exist */\n      0x04\n      add\n      0x01\n      swap1\n      sload\n      swap1\n      0x0100\n      exp\n      swap1\n      div\n      0xff\n      and\n        /* \"contracts/LiskGarden.sol\":4830:4870  require(_plant.exist, \"Plant not Exist\") */\n      tag_204\n      jumpi\n      mload(0x40)\n      0x08c379a000000000000000000000000000000000000000000000000000000000\n      dup2\n      mstore\n      0x04\n      add\n      tag_205\n      swap1\n      tag_151\n      jump\t// in\n    tag_205:\n      mload(0x40)\n      dup1\n      swap2\n      sub\n      swap1\n      revert\n    tag_204:\n        /* \"contracts/LiskGarden.sol\":4905:4925  GrowthStage.BLOOMING */\n      0x03\n        /* \"contracts/LiskGarden.sol\":4889:4925  _plant.stage == GrowthStage.BLOOMING */\n      dup1\n      dup2\n      gt\n      iszero\n      tag_206\n      jumpi\n      tag_207\n      tag_131\n      jump\t// in\n    tag_207:\n    tag_206:\n        /* \"contracts/LiskGarden.sol\":4889:4895  _plant */\n      dup2\n        /* \"contracts/LiskGarden.sol\":4889:4901  _plant.stage */\n      0x01\n      add\n      0x14\n      swap1\n      sload\n      swap1\n      0x0100\n      exp\n      swap1\n      div\n      0xff\n      and\n        /* \"contracts/LiskGarden.sol\":4889:4925  _plant.stage == GrowthStage.BLOOMING */\n      0x03\n      dup2\n      gt\n      iszero\n      tag_208\n      jumpi\n      tag_209\n      tag_131\n      jump\t// in\n    tag_209:\n    tag_208:\n      eq\n        /* \"contracts/LiskGarden.sol\":4881:4956  require(_plant.stage == GrowthStage.BLOOMING, \"Plant not ready to harvest\") */\n      tag_210\n      jumpi\n      mload(0x40)\n      0x08c379a000000000000000000000000000000000000000000000000000000000\n      dup2\n      mstore\n      0x04\n      add\n      tag_211\n      swap1\n      tag_212\n      jump\t// in\n    tag_211:\n      mload(0x40)\n      dup1\n      swap2\n      sub\n      swap1\n      revert\n    tag_210:\n        /* \"contracts/LiskGarden.sol\":4991:5001  msg.sender */\n      caller\n        /* \"contracts/LiskGarden.sol\":4975:5001  _plant.owner == msg.sender */\n      0xffffffffffffffffffffffffffffffffffffffff\n      and\n        /* \"contracts/LiskGarden.sol\":4975:4981  _plant */\n      dup2\n        /* \"contracts/LiskGarden.sol\":4975:4987  _plant.owner */\n      0x01\n      add\n      0x00\n      swap1\n      sload\n      swap1\n      0x0100\n      exp\n      swap1\n      div\n      0xffffffffffffffffffffffffffffffffffffffff\n      and\n        /* \"contracts/LiskGarden.sol\":4975:5001  _plant.owner == msg.sender */\n      0xffffffffffffffffffffffffffffffffffffffff\n      and\n      eq\n        /* \"contracts/LiskGarden.sol\":4967:5032  require(_plant.owner == msg.sender, \"Only the owner can harvest\") */\n      tag_213\n      jumpi\n      mload(0x40)\n      0x08c379a000000000000000000000000000000000000000000000000000000000\n      dup2\n      mstore\n      0x04\n      add\n      tag_214\n      swap1\n      tag_215\n      jump\t// in\n    tag_214:\n      mload(0x40)\n      dup1\n      swap2\n      sub\n      swap1\n      revert\n    tag_213:\n        /* \"contracts/LiskGarden.sol\":5045:5070  updatePlantStage(plantId) */\n      tag_216\n        /* \"contracts/LiskGarden.sol\":5062:5069  plantId */\n      dup3\n        /* \"contracts/LiskGarden.sol\":5045:5061  updatePlantStage */\n      tag_97\n        /* \"contracts/LiskGarden.sol\":5045:5070  updatePlantStage(plantId) */\n      jump\t// in\n    tag_216:\n        /* \"contracts/LiskGarden.sol\":5107:5127  GrowthStage.BLOOMING */\n      0x03\n        /* \"contracts/LiskGarden.sol\":5091:5127  _plant.stage == GrowthStage.BLOOMING */\n      dup1\n      dup2\n      gt\n      iszero\n      tag_217\n      jumpi\n      tag_218\n      tag_131\n      jump\t// in\n    tag_218:\n    tag_217:\n        /* \"contracts/LiskGarden.sol\":5091:5097  _plant */\n      dup2\n        /* \"contracts/LiskGarden.sol\":5091:5103  _plant.stage */\n      0x01\n      add\n      0x14\n      swap1\n      sload\n      swap1\n      0x0100\n      exp\n      swap1\n      div\n      0xff\n      and\n        /* \"contracts/LiskGarden.sol\":5091:5127  _plant.stage == GrowthStage.BLOOMING */\n      0x03\n      dup2\n      gt\n      iszero\n      tag_219\n      jumpi\n      tag_220\n      tag_131\n      jump\t// in\n    tag_220:\n    tag_219:\n      eq\n        /* \"contracts/LiskGarden.sol\":5083:5158  require(_plant.stage == GrowthStage.BLOOMING, \"Plant not ready to harvest\") */\n      tag_221\n      jumpi\n      mload(0x40)\n      0x08c379a000000000000000000000000000000000000000000000000000000000\n      dup2\n      mstore\n      0x04\n      add\n      tag_222\n      swap1\n      tag_212\n      jump\t// in\n    tag_222:\n      mload(0x40)\n      dup1\n      swap2\n      sub\n      swap1\n      revert\n    tag_221:\n        /* \"contracts/LiskGarden.sol\":5194:5199  false */\n      0x00\n        /* \"contracts/LiskGarden.sol\":5179:5185  _plant */\n      dup2\n        /* \"contracts/LiskGarden.sol\":5179:5191  _plant.exist */\n      0x04\n      add\n      0x01\n        /* \"contracts/LiskGarden.sol\":5179:5199  _plant.exist = false */\n      0x0100\n      exp\n      dup2\n      sload\n      dup2\n      0xff\n      mul\n      not\n      and\n      swap1\n      dup4\n      iszero\n      iszero\n      mul\n      or\n      swap1\n      sstore\n      pop\n        /* \"contracts/LiskGarden.sol\":5241:5247  _plant */\n      dup1\n        /* \"contracts/LiskGarden.sol\":5241:5253  _plant.owner */\n      0x01\n      add\n      0x00\n      swap1\n      sload\n      swap1\n      0x0100\n      exp\n      swap1\n      div\n      0xffffffffffffffffffffffffffffffffffffffff\n      and\n        /* \"contracts/LiskGarden.sol\":5217:5270  PlantHarvested(plantId, _plant.owner, HARVEST_REWARD) */\n      0xffffffffffffffffffffffffffffffffffffffff\n      and\n        /* \"contracts/LiskGarden.sol\":5232:5239  plantId */\n      dup3\n        /* \"contracts/LiskGarden.sol\":5217:5270  PlantHarvested(plantId, _plant.owner, HARVEST_REWARD) */\n      0x79f2138ea100070ff95b59c265da7aa3c7a0f61595fe1bb2f5fda2762f398847\n        /* \"contracts/LiskGarden.sol\":713:724  0.003 ether */\n      0x0aa87bee538000\n        /* \"contracts/LiskGarden.sol\":5217:5270  PlantHarvested(plantId, _plant.owner, HARVEST_REWARD) */\n      mload(0x40)\n      tag_223\n      swap2\n      swap1\n      tag_40\n      jump\t// in\n    tag_223:\n      mload(0x40)\n      dup1\n      swap2\n      sub\n      swap1\n      log3\n        /* \"contracts/LiskGarden.sol\":5284:5296  bool success */\n      0x00\n        /* \"contracts/LiskGarden.sol\":5302:5308  _plant */\n      dup2\n        /* \"contracts/LiskGarden.sol\":5302:5314  _plant.owner */\n      0x01\n      add\n      0x00\n      swap1\n      sload\n      swap1\n      0x0100\n      exp\n      swap1\n      div\n      0xffffffffffffffffffffffffffffffffffffffff\n      and\n        /* \"contracts/LiskGarden.sol\":5302:5319  _plant.owner.call */\n      0xffffffffffffffffffffffffffffffffffffffff\n      and\n        /* \"contracts/LiskGarden.sol\":713:724  0.003 ether */\n      0x0aa87bee538000\n        /* \"contracts/LiskGarden.sol\":5302:5346  _plant.owner.call{value: HARVEST_REWARD}(\"\") */\n      mload(0x40)\n      tag_224\n      swap1\n      tag_116\n      jump\t// in\n    tag_224:\n      0x00\n      mload(0x40)\n      dup1\n      dup4\n      sub\n      dup2\n      dup6\n      dup8\n      gas\n      call\n      swap3\n      pop\n      pop\n      pop\n      returndatasize\n      dup1\n      0x00\n      dup2\n      eq\n      tag_227\n      jumpi\n      mload(0x40)\n      swap2\n      pop\n      and(add(returndatasize, 0x3f), not(0x1f))\n      dup3\n      add\n      0x40\n      mstore\n      returndatasize\n      dup3\n      mstore\n      returndatasize\n      0x00\n      0x20\n      dup5\n      add\n      returndatacopy\n      jump(tag_226)\n    tag_227:\n      0x60\n      swap2\n      pop\n    tag_226:\n      pop\n        /* \"contracts/LiskGarden.sol\":5283:5346  (bool success, ) = _plant.owner.call{value: HARVEST_REWARD}(\"\") */\n      pop\n      swap1\n      pop\n        /* \"contracts/LiskGarden.sol\":5365:5372  success */\n      dup1\n        /* \"contracts/LiskGarden.sol\":5357:5391  require(success, \"Transfer gagal\") */\n      tag_228\n      jumpi\n      mload(0x40)\n      0x08c379a000000000000000000000000000000000000000000000000000000000\n      dup2\n      mstore\n      0x04\n      add\n      tag_229\n      swap1\n      tag_122\n      jump\t// in\n    tag_229:\n      mload(0x40)\n      dup1\n      swap2\n      sub\n      swap1\n      revert\n    tag_228:\n        /* \"contracts/LiskGarden.sol\":4770:5399  {... */\n      pop\n      pop\n        /* \"contracts/LiskGarden.sol\":4722:5399  function harvestPlant(uint256 plantId) external {... */\n      pop\n      jump\t// out\n        /* \"contracts/LiskGarden.sol\":5452:5660  function getPlant(uint256 plantId) external view returns (Plant memory) {... */\n    tag_105:\n        /* \"contracts/LiskGarden.sol\":5510:5522  Plant memory */\n      tag_230\n      tag_231\n      jump\t// in\n    tag_230:\n        /* \"contracts/LiskGarden.sol\":5535:5553  Plant memory plant */\n      0x00\n        /* \"contracts/LiskGarden.sol\":5556:5562  plants */\n      0x00\n        /* \"contracts/LiskGarden.sol\":5556:5571  plants[plantId] */\n      0x00\n        /* \"contracts/LiskGarden.sol\":5563:5570  plantId */\n      dup5\n        /* \"contracts/LiskGarden.sol\":5556:5571  plants[plantId] */\n      dup2\n      mstore\n      0x20\n      add\n      swap1\n      dup2\n      mstore\n      0x20\n      add\n      0x00\n      keccak256\n        /* \"contracts/LiskGarden.sol\":5535:5571  Plant memory plant = plants[plantId] */\n      mload(0x40)\n      dup1\n      0x0100\n      add\n      0x40\n      mstore\n      swap1\n      dup2\n      0x00\n      dup3\n      add\n      sload\n      dup2\n      mstore\n      0x20\n      add\n      0x01\n      dup3\n      add\n      0x00\n      swap1\n      sload\n      swap1\n      0x0100\n      exp\n      swap1\n      div\n      0xffffffffffffffffffffffffffffffffffffffff\n      and\n      0xffffffffffffffffffffffffffffffffffffffff\n      and\n      0xffffffffffffffffffffffffffffffffffffffff\n      and\n      dup2\n      mstore\n      0x20\n      add\n      0x01\n      dup3\n      add\n      0x14\n      swap1\n      sload\n      swap1\n      0x0100\n      exp\n      swap1\n      div\n      0xff\n      and\n      0x03\n      dup2\n      gt\n      iszero\n      tag_233\n      jumpi\n      tag_234\n      tag_131\n      jump\t// in\n    tag_234:\n    tag_233:\n      0x03\n      dup2\n      gt\n      iszero\n      tag_235\n      jumpi\n      tag_236\n      tag_131\n      jump\t// in\n    tag_236:\n    tag_235:\n      dup2\n      mstore\n      0x20\n      add\n      0x02\n      dup3\n      add\n      sload\n      dup2\n      mstore\n      0x20\n      add\n      0x03\n      dup3\n      add\n      sload\n      dup2\n      mstore\n      0x20\n      add\n      0x04\n      dup3\n      add\n      0x00\n      swap1\n      sload\n      swap1\n      0x0100\n      exp\n      swap1\n      div\n      0xff\n      and\n      0xff\n      and\n      0xff\n      and\n      dup2\n      mstore\n      0x20\n      add\n      0x04\n      dup3\n      add\n      0x01\n      swap1\n      sload\n      swap1\n      0x0100\n      exp\n      swap1\n      div\n      0xff\n      and\n      iszero\n      iszero\n      iszero\n      iszero\n      dup2\n      mstore\n      0x20\n      add\n      0x04\n      dup3\n      add\n      0x02\n      swap1\n      sload\n      swap1\n      0x0100\n      exp\n      swap1\n      div\n      0xff\n      and\n      iszero\n      iszero\n      iszero\n      iszero\n      dup2\n      mstore\n      pop\n      pop\n      swap1\n      pop\n        /* \"contracts/LiskGarden.sol\":5601:5629  calculateWaterLevel(plantId) */\n      tag_237\n        /* \"contracts/LiskGarden.sol\":5621:5628  plantId */\n      dup4\n        /* \"contracts/LiskGarden.sol\":5601:5620  calculateWaterLevel */\n      tag_48\n        /* \"contracts/LiskGarden.sol\":5601:5629  calculateWaterLevel(plantId) */\n      jump\t// in\n    tag_237:\n        /* \"contracts/LiskGarden.sol\":5582:5587  plant */\n      dup2\n        /* \"contracts/LiskGarden.sol\":5582:5598  plant.waterLevel */\n      0xa0\n      add\n        /* \"contracts/LiskGarden.sol\":5582:5629  plant.waterLevel = calculateWaterLevel(plantId) */\n      swap1\n      0xff\n      and\n      swap1\n      dup2\n      0xff\n      and\n      dup2\n      mstore\n      pop\n      pop\n        /* \"contracts/LiskGarden.sol\":5647:5652  plant */\n      dup1\n        /* \"contracts/LiskGarden.sol\":5640:5652  return plant */\n      swap2\n      pop\n      pop\n        /* \"contracts/LiskGarden.sol\":5452:5660  function getPlant(uint256 plantId) external view returns (Plant memory) {... */\n      swap2\n      swap1\n      pop\n      jump\t// out\n        /* \"contracts/LiskGarden.sol\":2816:3183  function updateWaterLevel(uint256 plantId) internal {... */\n    tag_168:\n        /* \"contracts/LiskGarden.sol\":2879:2899  Plant storage _plant */\n      0x00\n        /* \"contracts/LiskGarden.sol\":2902:2908  plants */\n      0x00\n        /* \"contracts/LiskGarden.sol\":2902:2917  plants[plantId] */\n      0x00\n        /* \"contracts/LiskGarden.sol\":2909:2916  plantId */\n      dup4\n        /* \"contracts/LiskGarden.sol\":2902:2917  plants[plantId] */\n      dup2\n      mstore\n      0x20\n      add\n      swap1\n      dup2\n      mstore\n      0x20\n      add\n      0x00\n      keccak256\n        /* \"contracts/LiskGarden.sol\":2879:2917  Plant storage _plant = plants[plantId] */\n      swap1\n      pop\n        /* \"contracts/LiskGarden.sol\":2930:2950  uint256 currentWater */\n      0x00\n        /* \"contracts/LiskGarden.sol\":2953:2983  calculateWaterLevel(_plant.id) */\n      tag_239\n        /* \"contracts/LiskGarden.sol\":2973:2979  _plant */\n      dup3\n        /* \"contracts/LiskGarden.sol\":2973:2982  _plant.id */\n      0x00\n      add\n      sload\n        /* \"contracts/LiskGarden.sol\":2953:2972  calculateWaterLevel */\n      tag_48\n        /* \"contracts/LiskGarden.sol\":2953:2983  calculateWaterLevel(_plant.id) */\n      jump\t// in\n    tag_239:\n        /* \"contracts/LiskGarden.sol\":2930:2983  uint256 currentWater = calculateWaterLevel(_plant.id) */\n      0xff\n      and\n      swap1\n      pop\n        /* \"contracts/LiskGarden.sol\":3022:3034  currentWater */\n      dup1\n        /* \"contracts/LiskGarden.sol\":2996:3002  _plant */\n      dup3\n        /* \"contracts/LiskGarden.sol\":2996:3013  _plant.waterLevel */\n      0x04\n      add\n      0x00\n        /* \"contracts/LiskGarden.sol\":2996:3035  _plant.waterLevel = uint8(currentWater) */\n      0x0100\n      exp\n      dup2\n      sload\n      dup2\n      0xff\n      mul\n      not\n      and\n      swap1\n      dup4\n      0xff\n      and\n      mul\n      or\n      swap1\n      sstore\n      pop\n        /* \"contracts/LiskGarden.sol\":3068:3069  0 */\n      0x00\n        /* \"contracts/LiskGarden.sol\":3052:3064  currentWater */\n      dup2\n        /* \"contracts/LiskGarden.sol\":3052:3069  currentWater == 0 */\n      eq\n        /* \"contracts/LiskGarden.sol\":3052:3087  currentWater == 0 && !_plant.isDead */\n      dup1\n      iszero\n      tag_240\n      jumpi\n      pop\n        /* \"contracts/LiskGarden.sol\":3074:3080  _plant */\n      dup2\n        /* \"contracts/LiskGarden.sol\":3074:3087  _plant.isDead */\n      0x04\n      add\n      0x02\n      swap1\n      sload\n      swap1\n      0x0100\n      exp\n      swap1\n      div\n      0xff\n      and\n        /* \"contracts/LiskGarden.sol\":3073:3087  !_plant.isDead */\n      iszero\n        /* \"contracts/LiskGarden.sol\":3052:3087  currentWater == 0 && !_plant.isDead */\n    tag_240:\n        /* \"contracts/LiskGarden.sol\":3048:3176  if (currentWater == 0 && !_plant.isDead) {... */\n      iszero\n      tag_241\n      jumpi\n        /* \"contracts/LiskGarden.sol\":3120:3124  true */\n      0x01\n        /* \"contracts/LiskGarden.sol\":3104:3110  _plant */\n      dup3\n        /* \"contracts/LiskGarden.sol\":3104:3117  _plant.isDead */\n      0x04\n      add\n      0x02\n        /* \"contracts/LiskGarden.sol\":3104:3124  _plant.isDead = true */\n      0x0100\n      exp\n      dup2\n      sload\n      dup2\n      0xff\n      mul\n      not\n      and\n      swap1\n      dup4\n      iszero\n      iszero\n      mul\n      or\n      swap1\n      sstore\n      pop\n        /* \"contracts/LiskGarden.sol\":3156:3163  plantId */\n      dup3\n        /* \"contracts/LiskGarden.sol\":3146:3164  PlantDied(plantId) */\n      0xcc296a21951f3e57f21afb08547d835a0a9f0f06cc2867009cbe0cae44d36be9\n      mload(0x40)\n      mload(0x40)\n      dup1\n      swap2\n      sub\n      swap1\n      log2\n        /* \"contracts/LiskGarden.sol\":3048:3176  if (currentWater == 0 && !_plant.isDead) {... */\n    tag_241:\n        /* \"contracts/LiskGarden.sol\":2868:3183  {... */\n      pop\n      pop\n        /* \"contracts/LiskGarden.sol\":2816:3183  function updateWaterLevel(uint256 plantId) internal {... */\n      pop\n      jump\t// out\n    tag_231:\n      mload(0x40)\n      dup1\n      0x0100\n      add\n      0x40\n      mstore\n      dup1\n      0x00\n      dup2\n      mstore\n      0x20\n      add\n      and(0xffffffffffffffffffffffffffffffffffffffff, 0x00)\n      dup2\n      mstore\n      0x20\n      add\n      0x00\n      0x03\n      dup2\n      gt\n      iszero\n      tag_242\n      jumpi\n      tag_243\n      tag_131\n      jump\t// in\n    tag_243:\n    tag_242:\n      dup2\n      mstore\n      0x20\n      add\n      0x00\n      dup2\n      mstore\n      0x20\n      add\n      0x00\n      dup2\n      mstore\n      0x20\n      add\n      and(0xff, 0x00)\n      dup2\n      mstore\n      0x20\n      add\n      iszero(iszero(0x00))\n      dup2\n      mstore\n      0x20\n      add\n      iszero(iszero(0x00))\n      dup2\n      mstore\n      pop\n      swap1\n      jump\t// out\n        /* \"#utility.yul\":88:205   */\n    tag_245:\n        /* \"#utility.yul\":197:198   */\n      0x00\n        /* \"#utility.yul\":194:195   */\n      0x00\n        /* \"#utility.yul\":187:199   */\n      revert\n        /* \"#utility.yul\":334:460   */\n    tag_247:\n        /* \"#utility.yul\":371:378   */\n      0x00\n        /* \"#utility.yul\":411:453   */\n      0xffffffffffffffffffffffffffffffffffffffff\n        /* \"#utility.yul\":404:409   */\n      dup3\n        /* \"#utility.yul\":400:454   */\n      and\n        /* \"#utility.yul\":389:454   */\n      swap1\n      pop\n        /* \"#utility.yul\":334:460   */\n      swap2\n      swap1\n      pop\n      jump\t// out\n        /* \"#utility.yul\":466:562   */\n    tag_248:\n        /* \"#utility.yul\":503:510   */\n      0x00\n        /* \"#utility.yul\":532:556   */\n      tag_306\n        /* \"#utility.yul\":550:555   */\n      dup3\n        /* \"#utility.yul\":532:556   */\n      tag_247\n      jump\t// in\n    tag_306:\n        /* \"#utility.yul\":521:556   */\n      swap1\n      pop\n        /* \"#utility.yul\":466:562   */\n      swap2\n      swap1\n      pop\n      jump\t// out\n        /* \"#utility.yul\":568:690   */\n    tag_249:\n        /* \"#utility.yul\":641:665   */\n      tag_308\n        /* \"#utility.yul\":659:664   */\n      dup2\n        /* \"#utility.yul\":641:665   */\n      tag_248\n      jump\t// in\n    tag_308:\n        /* \"#utility.yul\":634:639   */\n      dup2\n        /* \"#utility.yul\":631:666   */\n      eq\n        /* \"#utility.yul\":621:684   */\n      tag_309\n      jumpi\n        /* \"#utility.yul\":680:681   */\n      0x00\n        /* \"#utility.yul\":677:678   */\n      0x00\n        /* \"#utility.yul\":670:682   */\n      revert\n        /* \"#utility.yul\":621:684   */\n    tag_309:\n        /* \"#utility.yul\":568:690   */\n      pop\n      jump\t// out\n        /* \"#utility.yul\":696:835   */\n    tag_250:\n        /* \"#utility.yul\":742:747   */\n      0x00\n        /* \"#utility.yul\":780:786   */\n      dup2\n        /* \"#utility.yul\":767:787   */\n      calldataload\n        /* \"#utility.yul\":758:787   */\n      swap1\n      pop\n        /* \"#utility.yul\":796:829   */\n      tag_311\n        /* \"#utility.yul\":823:828   */\n      dup2\n        /* \"#utility.yul\":796:829   */\n      tag_249\n      jump\t// in\n    tag_311:\n        /* \"#utility.yul\":696:835   */\n      swap3\n      swap2\n      pop\n      pop\n      jump\t// out\n        /* \"#utility.yul\":841:1170   */\n    tag_29:\n        /* \"#utility.yul\":900:906   */\n      0x00\n        /* \"#utility.yul\":949:951   */\n      0x20\n        /* \"#utility.yul\":937:946   */\n      dup3\n        /* \"#utility.yul\":928:935   */\n      dup5\n        /* \"#utility.yul\":924:947   */\n      sub\n        /* \"#utility.yul\":920:952   */\n      slt\n        /* \"#utility.yul\":917:1036   */\n      iszero\n      tag_313\n      jumpi\n        /* \"#utility.yul\":955:1034   */\n      tag_314\n      tag_245\n      jump\t// in\n    tag_314:\n        /* \"#utility.yul\":917:1036   */\n    tag_313:\n        /* \"#utility.yul\":1075:1076   */\n      0x00\n        /* \"#utility.yul\":1100:1153   */\n      tag_315\n        /* \"#utility.yul\":1145:1152   */\n      dup5\n        /* \"#utility.yul\":1136:1142   */\n      dup3\n        /* \"#utility.yul\":1125:1134   */\n      dup6\n        /* \"#utility.yul\":1121:1143   */\n      add\n        /* \"#utility.yul\":1100:1153   */\n      tag_250\n      jump\t// in\n    tag_315:\n        /* \"#utility.yul\":1090:1153   */\n      swap2\n      pop\n        /* \"#utility.yul\":1046:1163   */\n      pop\n        /* \"#utility.yul\":841:1170   */\n      swap3\n      swap2\n      pop\n      pop\n      jump\t// out\n        /* \"#utility.yul\":1176:1290   */\n    tag_251:\n        /* \"#utility.yul\":1243:1249   */\n      0x00\n        /* \"#utility.yul\":1277:1282   */\n      dup2\n        /* \"#utility.yul\":1271:1283   */\n      mload\n        /* \"#utility.yul\":1261:1283   */\n      swap1\n      pop\n        /* \"#utility.yul\":1176:1290   */\n      swap2\n      swap1\n      pop\n      jump\t// out\n        /* \"#utility.yul\":1296:1480   */\n    tag_252:\n        /* \"#utility.yul\":1395:1406   */\n      0x00\n        /* \"#utility.yul\":1429:1435   */\n      dup3\n        /* \"#utility.yul\":1424:1427   */\n      dup3\n        /* \"#utility.yul\":1417:1436   */\n      mstore\n        /* \"#utility.yul\":1469:1473   */\n      0x20\n        /* \"#utility.yul\":1464:1467   */\n      dup3\n        /* \"#utility.yul\":1460:1474   */\n      add\n        /* \"#utility.yul\":1445:1474   */\n      swap1\n      pop\n        /* \"#utility.yul\":1296:1480   */\n      swap3\n      swap2\n      pop\n      pop\n      jump\t// out\n        /* \"#utility.yul\":1486:1618   */\n    tag_253:\n        /* \"#utility.yul\":1553:1557   */\n      0x00\n        /* \"#utility.yul\":1576:1579   */\n      dup2\n        /* \"#utility.yul\":1568:1579   */\n      swap1\n      pop\n        /* \"#utility.yul\":1606:1610   */\n      0x20\n        /* \"#utility.yul\":1601:1604   */\n      dup3\n        /* \"#utility.yul\":1597:1611   */\n      add\n        /* \"#utility.yul\":1589:1611   */\n      swap1\n      pop\n        /* \"#utility.yul\":1486:1618   */\n      swap2\n      swap1\n      pop\n      jump\t// out\n        /* \"#utility.yul\":1624:1701   */\n    tag_254:\n        /* \"#utility.yul\":1661:1668   */\n      0x00\n        /* \"#utility.yul\":1690:1695   */\n      dup2\n        /* \"#utility.yul\":1679:1695   */\n      swap1\n      pop\n        /* \"#utility.yul\":1624:1701   */\n      swap2\n      swap1\n      pop\n      jump\t// out\n        /* \"#utility.yul\":1707:1815   */\n    tag_255:\n        /* \"#utility.yul\":1784:1808   */\n      tag_321\n        /* \"#utility.yul\":1802:1807   */\n      dup2\n        /* \"#utility.yul\":1784:1808   */\n      tag_254\n      jump\t// in\n    tag_321:\n        /* \"#utility.yul\":1779:1782   */\n      dup3\n        /* \"#utility.yul\":1772:1809   */\n      mstore\n        /* \"#utility.yul\":1707:1815   */\n      pop\n      pop\n      jump\t// out\n        /* \"#utility.yul\":1821:2000   */\n    tag_256:\n        /* \"#utility.yul\":1890:1900   */\n      0x00\n        /* \"#utility.yul\":1911:1957   */\n      tag_323\n        /* \"#utility.yul\":1953:1956   */\n      dup4\n        /* \"#utility.yul\":1945:1951   */\n      dup4\n        /* \"#utility.yul\":1911:1957   */\n      tag_255\n      jump\t// in\n    tag_323:\n        /* \"#utility.yul\":1989:1993   */\n      0x20\n        /* \"#utility.yul\":1984:1987   */\n      dup4\n        /* \"#utility.yul\":1980:1994   */\n      add\n        /* \"#utility.yul\":1966:1994   */\n      swap1\n      pop\n        /* \"#utility.yul\":1821:2000   */\n      swap3\n      swap2\n      pop\n      pop\n      jump\t// out\n        /* \"#utility.yul\":2006:2119   */\n    tag_257:\n        /* \"#utility.yul\":2076:2080   */\n      0x00\n        /* \"#utility.yul\":2108:2112   */\n      0x20\n        /* \"#utility.yul\":2103:2106   */\n      dup3\n        /* \"#utility.yul\":2099:2113   */\n      add\n        /* \"#utility.yul\":2091:2113   */\n      swap1\n      pop\n        /* \"#utility.yul\":2006:2119   */\n      swap2\n      swap1\n      pop\n      jump\t// out\n        /* \"#utility.yul\":2155:2887   */\n    tag_258:\n        /* \"#utility.yul\":2274:2277   */\n      0x00\n        /* \"#utility.yul\":2303:2357   */\n      tag_326\n        /* \"#utility.yul\":2351:2356   */\n      dup3\n        /* \"#utility.yul\":2303:2357   */\n      tag_251\n      jump\t// in\n    tag_326:\n        /* \"#utility.yul\":2373:2459   */\n      tag_327\n        /* \"#utility.yul\":2452:2458   */\n      dup2\n        /* \"#utility.yul\":2447:2450   */\n      dup6\n        /* \"#utility.yul\":2373:2459   */\n      tag_252\n      jump\t// in\n    tag_327:\n        /* \"#utility.yul\":2366:2459   */\n      swap4\n      pop\n        /* \"#utility.yul\":2483:2539   */\n      tag_328\n        /* \"#utility.yul\":2533:2538   */\n      dup4\n        /* \"#utility.yul\":2483:2539   */\n      tag_253\n      jump\t// in\n    tag_328:\n        /* \"#utility.yul\":2562:2569   */\n      dup1\n        /* \"#utility.yul\":2593:2594   */\n      0x00\n        /* \"#utility.yul\":2578:2862   */\n    tag_329:\n        /* \"#utility.yul\":2603:2609   */\n      dup4\n        /* \"#utility.yul\":2600:2601   */\n      dup2\n        /* \"#utility.yul\":2597:2610   */\n      lt\n        /* \"#utility.yul\":2578:2862   */\n      iszero\n      tag_331\n      jumpi\n        /* \"#utility.yul\":2679:2685   */\n      dup2\n        /* \"#utility.yul\":2673:2686   */\n      mload\n        /* \"#utility.yul\":2706:2769   */\n      tag_332\n        /* \"#utility.yul\":2765:2768   */\n      dup9\n        /* \"#utility.yul\":2750:2763   */\n      dup3\n        /* \"#utility.yul\":2706:2769   */\n      tag_256\n      jump\t// in\n    tag_332:\n        /* \"#utility.yul\":2699:2769   */\n      swap8\n      pop\n        /* \"#utility.yul\":2792:2852   */\n      tag_333\n        /* \"#utility.yul\":2845:2851   */\n      dup4\n        /* \"#utility.yul\":2792:2852   */\n      tag_257\n      jump\t// in\n    tag_333:\n        /* \"#utility.yul\":2782:2852   */\n      swap3\n      pop\n        /* \"#utility.yul\":2638:2862   */\n      pop\n        /* \"#utility.yul\":2625:2626   */\n      0x01\n        /* \"#utility.yul\":2622:2623   */\n      dup2\n        /* \"#utility.yul\":2618:2627   */\n      add\n        /* \"#utility.yul\":2613:2627   */\n      swap1\n      pop\n        /* \"#utility.yul\":2578:2862   */\n      jump(tag_329)\n    tag_331:\n        /* \"#utility.yul\":2582:2596   */\n      pop\n        /* \"#utility.yul\":2878:2881   */\n      dup6\n        /* \"#utility.yul\":2871:2881   */\n      swap4\n      pop\n        /* \"#utility.yul\":2279:2887   */\n      pop\n      pop\n      pop\n        /* \"#utility.yul\":2155:2887   */\n      swap3\n      swap2\n      pop\n      pop\n      jump\t// out\n        /* \"#utility.yul\":2893:3266   */\n    tag_32:\n        /* \"#utility.yul\":3036:3040   */\n      0x00\n        /* \"#utility.yul\":3074:3076   */\n      0x20\n        /* \"#utility.yul\":3063:3072   */\n      dup3\n        /* \"#utility.yul\":3059:3077   */\n      add\n        /* \"#utility.yul\":3051:3077   */\n      swap1\n      pop\n        /* \"#utility.yul\":3123:3132   */\n      dup2\n        /* \"#utility.yul\":3117:3121   */\n      dup2\n        /* \"#utility.yul\":3113:3133   */\n      sub\n        /* \"#utility.yul\":3109:3110   */\n      0x00\n        /* \"#utility.yul\":3098:3107   */\n      dup4\n        /* \"#utility.yul\":3094:3111   */\n      add\n        /* \"#utility.yul\":3087:3134   */\n      mstore\n        /* \"#utility.yul\":3151:3259   */\n      tag_335\n        /* \"#utility.yul\":3254:3258   */\n      dup2\n        /* \"#utility.yul\":3245:3251   */\n      dup5\n        /* \"#utility.yul\":3151:3259   */\n      tag_258\n      jump\t// in\n    tag_335:\n        /* \"#utility.yul\":3143:3259   */\n      swap1\n      pop\n        /* \"#utility.yul\":2893:3266   */\n      swap3\n      swap2\n      pop\n      pop\n      jump\t// out\n        /* \"#utility.yul\":3272:3390   */\n    tag_259:\n        /* \"#utility.yul\":3359:3383   */\n      tag_337\n        /* \"#utility.yul\":3377:3382   */\n      dup2\n        /* \"#utility.yul\":3359:3383   */\n      tag_254\n      jump\t// in\n    tag_337:\n        /* \"#utility.yul\":3354:3357   */\n      dup3\n        /* \"#utility.yul\":3347:3384   */\n      mstore\n        /* \"#utility.yul\":3272:3390   */\n      pop\n      pop\n      jump\t// out\n        /* \"#utility.yul\":3396:3618   */\n    tag_40:\n        /* \"#utility.yul\":3489:3493   */\n      0x00\n        /* \"#utility.yul\":3527:3529   */\n      0x20\n        /* \"#utility.yul\":3516:3525   */\n      dup3\n        /* \"#utility.yul\":3512:3530   */\n      add\n        /* \"#utility.yul\":3504:3530   */\n      swap1\n      pop\n        /* \"#utility.yul\":3540:3611   */\n      tag_339\n        /* \"#utility.yul\":3608:3609   */\n      0x00\n        /* \"#utility.yul\":3597:3606   */\n      dup4\n        /* \"#utility.yul\":3593:3610   */\n      add\n        /* \"#utility.yul\":3584:3590   */\n      dup5\n        /* \"#utility.yul\":3540:3611   */\n      tag_259\n      jump\t// in\n    tag_339:\n        /* \"#utility.yul\":3396:3618   */\n      swap3\n      swap2\n      pop\n      pop\n      jump\t// out\n        /* \"#utility.yul\":3624:3746   */\n    tag_260:\n        /* \"#utility.yul\":3697:3721   */\n      tag_341\n        /* \"#utility.yul\":3715:3720   */\n      dup2\n        /* \"#utility.yul\":3697:3721   */\n      tag_254\n      jump\t// in\n    tag_341:\n        /* \"#utility.yul\":3690:3695   */\n      dup2\n        /* \"#utility.yul\":3687:3722   */\n      eq\n        /* \"#utility.yul\":3677:3740   */\n      tag_342\n      jumpi\n        /* \"#utility.yul\":3736:3737   */\n      0x00\n        /* \"#utility.yul\":3733:3734   */\n      0x00\n        /* \"#utility.yul\":3726:3738   */\n      revert\n        /* \"#utility.yul\":3677:3740   */\n    tag_342:\n        /* \"#utility.yul\":3624:3746   */\n      pop\n      jump\t// out\n        /* \"#utility.yul\":3752:3891   */\n    tag_261:\n        /* \"#utility.yul\":3798:3803   */\n      0x00\n        /* \"#utility.yul\":3836:3842   */\n      dup2\n        /* \"#utility.yul\":3823:3843   */\n      calldataload\n        /* \"#utility.yul\":3814:3843   */\n      swap1\n      pop\n        /* \"#utility.yul\":3852:3885   */\n      tag_344\n        /* \"#utility.yul\":3879:3884   */\n      dup2\n        /* \"#utility.yul\":3852:3885   */\n      tag_260\n      jump\t// in\n    tag_344:\n        /* \"#utility.yul\":3752:3891   */\n      swap3\n      swap2\n      pop\n      pop\n      jump\t// out\n        /* \"#utility.yul\":3897:4226   */\n    tag_47:\n        /* \"#utility.yul\":3956:3962   */\n      0x00\n        /* \"#utility.yul\":4005:4007   */\n      0x20\n        /* \"#utility.yul\":3993:4002   */\n      dup3\n        /* \"#utility.yul\":3984:3991   */\n      dup5\n        /* \"#utility.yul\":3980:4003   */\n      sub\n        /* \"#utility.yul\":3976:4008   */\n      slt\n        /* \"#utility.yul\":3973:4092   */\n      iszero\n      tag_346\n      jumpi\n        /* \"#utility.yul\":4011:4090   */\n      tag_347\n      tag_245\n      jump\t// in\n    tag_347:\n        /* \"#utility.yul\":3973:4092   */\n    tag_346:\n        /* \"#utility.yul\":4131:4132   */\n      0x00\n        /* \"#utility.yul\":4156:4209   */\n      tag_348\n        /* \"#utility.yul\":4201:4208   */\n      dup5\n        /* \"#utility.yul\":4192:4198   */\n      dup3\n        /* \"#utility.yul\":4181:4190   */\n      dup6\n        /* \"#utility.yul\":4177:4199   */\n      add\n        /* \"#utility.yul\":4156:4209   */\n      tag_261\n      jump\t// in\n    tag_348:\n        /* \"#utility.yul\":4146:4209   */\n      swap2\n      pop\n        /* \"#utility.yul\":4102:4219   */\n      pop\n        /* \"#utility.yul\":3897:4226   */\n      swap3\n      swap2\n      pop\n      pop\n      jump\t// out\n        /* \"#utility.yul\":4232:4318   */\n    tag_262:\n        /* \"#utility.yul\":4267:4274   */\n      0x00\n        /* \"#utility.yul\":4307:4311   */\n      0xff\n        /* \"#utility.yul\":4300:4305   */\n      dup3\n        /* \"#utility.yul\":4296:4312   */\n      and\n        /* \"#utility.yul\":4285:4312   */\n      swap1\n      pop\n        /* \"#utility.yul\":4232:4318   */\n      swap2\n      swap1\n      pop\n      jump\t// out\n        /* \"#utility.yul\":4324:4436   */\n    tag_263:\n        /* \"#utility.yul\":4407:4429   */\n      tag_351\n        /* \"#utility.yul\":4423:4428   */\n      dup2\n        /* \"#utility.yul\":4407:4429   */\n      tag_262\n      jump\t// in\n    tag_351:\n        /* \"#utility.yul\":4402:4405   */\n      dup3\n        /* \"#utility.yul\":4395:4430   */\n      mstore\n        /* \"#utility.yul\":4324:4436   */\n      pop\n      pop\n      jump\t// out\n        /* \"#utility.yul\":4442:4656   */\n    tag_50:\n        /* \"#utility.yul\":4531:4535   */\n      0x00\n        /* \"#utility.yul\":4569:4571   */\n      0x20\n        /* \"#utility.yul\":4558:4567   */\n      dup3\n        /* \"#utility.yul\":4554:4572   */\n      add\n        /* \"#utility.yul\":4546:4572   */\n      swap1\n      pop\n        /* \"#utility.yul\":4582:4649   */\n      tag_353\n        /* \"#utility.yul\":4646:4647   */\n      0x00\n        /* \"#utility.yul\":4635:4644   */\n      dup4\n        /* \"#utility.yul\":4631:4648   */\n      add\n        /* \"#utility.yul\":4622:4628   */\n      dup5\n        /* \"#utility.yul\":4582:4649   */\n      tag_263\n      jump\t// in\n    tag_353:\n        /* \"#utility.yul\":4442:4656   */\n      swap3\n      swap2\n      pop\n      pop\n      jump\t// out\n        /* \"#utility.yul\":4662:5136   */\n    tag_62:\n        /* \"#utility.yul\":4730:4736   */\n      0x00\n        /* \"#utility.yul\":4738:4744   */\n      0x00\n        /* \"#utility.yul\":4787:4789   */\n      0x40\n        /* \"#utility.yul\":4775:4784   */\n      dup4\n        /* \"#utility.yul\":4766:4773   */\n      dup6\n        /* \"#utility.yul\":4762:4785   */\n      sub\n        /* \"#utility.yul\":4758:4790   */\n      slt\n        /* \"#utility.yul\":4755:4874   */\n      iszero\n      tag_355\n      jumpi\n        /* \"#utility.yul\":4793:4872   */\n      tag_356\n      tag_245\n      jump\t// in\n    tag_356:\n        /* \"#utility.yul\":4755:4874   */\n    tag_355:\n        /* \"#utility.yul\":4913:4914   */\n      0x00\n        /* \"#utility.yul\":4938:4991   */\n      tag_357\n        /* \"#utility.yul\":4983:4990   */\n      dup6\n        /* \"#utility.yul\":4974:4980   */\n      dup3\n        /* \"#utility.yul\":4963:4972   */\n      dup7\n        /* \"#utility.yul\":4959:4981   */\n      add\n        /* \"#utility.yul\":4938:4991   */\n      tag_250\n      jump\t// in\n    tag_357:\n        /* \"#utility.yul\":4928:4991   */\n      swap3\n      pop\n        /* \"#utility.yul\":4884:5001   */\n      pop\n        /* \"#utility.yul\":5040:5042   */\n      0x20\n        /* \"#utility.yul\":5066:5119   */\n      tag_358\n        /* \"#utility.yul\":5111:5118   */\n      dup6\n        /* \"#utility.yul\":5102:5108   */\n      dup3\n        /* \"#utility.yul\":5091:5100   */\n      dup7\n        /* \"#utility.yul\":5087:5109   */\n      add\n        /* \"#utility.yul\":5066:5119   */\n      tag_261\n      jump\t// in\n    tag_358:\n        /* \"#utility.yul\":5056:5119   */\n      swap2\n      pop\n        /* \"#utility.yul\":5011:5129   */\n      pop\n        /* \"#utility.yul\":4662:5136   */\n      swap3\n      pop\n      swap3\n      swap1\n      pop\n      jump\t// out\n        /* \"#utility.yul\":5142:5260   */\n    tag_264:\n        /* \"#utility.yul\":5229:5253   */\n      tag_360\n        /* \"#utility.yul\":5247:5252   */\n      dup2\n        /* \"#utility.yul\":5229:5253   */\n      tag_248\n      jump\t// in\n    tag_360:\n        /* \"#utility.yul\":5224:5227   */\n      dup3\n        /* \"#utility.yul\":5217:5254   */\n      mstore\n        /* \"#utility.yul\":5142:5260   */\n      pop\n      pop\n      jump\t// out\n        /* \"#utility.yul\":5266:5488   */\n    tag_69:\n        /* \"#utility.yul\":5359:5363   */\n      0x00\n        /* \"#utility.yul\":5397:5399   */\n      0x20\n        /* \"#utility.yul\":5386:5395   */\n      dup3\n        /* \"#utility.yul\":5382:5400   */\n      add\n        /* \"#utility.yul\":5374:5400   */\n      swap1\n      pop\n        /* \"#utility.yul\":5410:5481   */\n      tag_362\n        /* \"#utility.yul\":5478:5479   */\n      0x00\n        /* \"#utility.yul\":5467:5476   */\n      dup4\n        /* \"#utility.yul\":5463:5480   */\n      add\n        /* \"#utility.yul\":5454:5460   */\n      dup5\n        /* \"#utility.yul\":5410:5481   */\n      tag_264\n      jump\t// in\n    tag_362:\n        /* \"#utility.yul\":5266:5488   */\n      swap3\n      swap2\n      pop\n      pop\n      jump\t// out\n        /* \"#utility.yul\":5494:5674   */\n    tag_131:\n        /* \"#utility.yul\":5542:5619   */\n      0x4e487b7100000000000000000000000000000000000000000000000000000000\n        /* \"#utility.yul\":5539:5540   */\n      0x00\n        /* \"#utility.yul\":5532:5620   */\n      mstore\n        /* \"#utility.yul\":5639:5643   */\n      0x21\n        /* \"#utility.yul\":5636:5637   */\n      0x04\n        /* \"#utility.yul\":5629:5644   */\n      mstore\n        /* \"#utility.yul\":5663:5667   */\n      0x24\n        /* \"#utility.yul\":5660:5661   */\n      0x00\n        /* \"#utility.yul\":5653:5668   */\n      revert\n        /* \"#utility.yul\":5680:5798   */\n    tag_265:\n        /* \"#utility.yul\":5766:5767   */\n      0x04\n        /* \"#utility.yul\":5759:5764   */\n      dup2\n        /* \"#utility.yul\":5756:5768   */\n      lt\n        /* \"#utility.yul\":5746:5792   */\n      tag_365\n      jumpi\n        /* \"#utility.yul\":5772:5790   */\n      tag_366\n      tag_131\n      jump\t// in\n    tag_366:\n        /* \"#utility.yul\":5746:5792   */\n    tag_365:\n        /* \"#utility.yul\":5680:5798   */\n      pop\n      jump\t// out\n        /* \"#utility.yul\":5804:5941   */\n    tag_266:\n        /* \"#utility.yul\":5854:5861   */\n      0x00\n        /* \"#utility.yul\":5883:5888   */\n      dup2\n        /* \"#utility.yul\":5872:5888   */\n      swap1\n      pop\n        /* \"#utility.yul\":5889:5935   */\n      tag_368\n        /* \"#utility.yul\":5929:5934   */\n      dup3\n        /* \"#utility.yul\":5889:5935   */\n      tag_265\n      jump\t// in\n    tag_368:\n        /* \"#utility.yul\":5804:5941   */\n      swap2\n      swap1\n      pop\n      jump\t// out\n        /* \"#utility.yul\":5947:6084   */\n    tag_267:\n        /* \"#utility.yul\":6008:6017   */\n      0x00\n        /* \"#utility.yul\":6041:6078   */\n      tag_370\n        /* \"#utility.yul\":6072:6077   */\n      dup3\n        /* \"#utility.yul\":6041:6078   */\n      tag_266\n      jump\t// in\n    tag_370:\n        /* \"#utility.yul\":6028:6078   */\n      swap1\n      pop\n        /* \"#utility.yul\":5947:6084   */\n      swap2\n      swap1\n      pop\n      jump\t// out\n        /* \"#utility.yul\":6090:6243   */\n    tag_268:\n        /* \"#utility.yul\":6188:6236   */\n      tag_372\n        /* \"#utility.yul\":6230:6235   */\n      dup2\n        /* \"#utility.yul\":6188:6236   */\n      tag_267\n      jump\t// in\n    tag_372:\n        /* \"#utility.yul\":6183:6186   */\n      dup3\n        /* \"#utility.yul\":6176:6237   */\n      mstore\n        /* \"#utility.yul\":6090:6243   */\n      pop\n      pop\n      jump\t// out\n        /* \"#utility.yul\":6249:6339   */\n    tag_269:\n        /* \"#utility.yul\":6283:6290   */\n      0x00\n        /* \"#utility.yul\":6326:6331   */\n      dup2\n        /* \"#utility.yul\":6319:6332   */\n      iszero\n        /* \"#utility.yul\":6312:6333   */\n      iszero\n        /* \"#utility.yul\":6301:6333   */\n      swap1\n      pop\n        /* \"#utility.yul\":6249:6339   */\n      swap2\n      swap1\n      pop\n      jump\t// out\n        /* \"#utility.yul\":6345:6454   */\n    tag_270:\n        /* \"#utility.yul\":6426:6447   */\n      tag_375\n        /* \"#utility.yul\":6441:6446   */\n      dup2\n        /* \"#utility.yul\":6426:6447   */\n      tag_269\n      jump\t// in\n    tag_375:\n        /* \"#utility.yul\":6421:6424   */\n      dup3\n        /* \"#utility.yul\":6414:6448   */\n      mstore\n        /* \"#utility.yul\":6345:6454   */\n      pop\n      pop\n      jump\t// out\n        /* \"#utility.yul\":6460:7447   */\n    tag_75:\n        /* \"#utility.yul\":6744:6748   */\n      0x00\n        /* \"#utility.yul\":6782:6785   */\n      0x0100\n        /* \"#utility.yul\":6771:6780   */\n      dup3\n        /* \"#utility.yul\":6767:6786   */\n      add\n        /* \"#utility.yul\":6759:6786   */\n      swap1\n      pop\n        /* \"#utility.yul\":6796:6867   */\n      tag_377\n        /* \"#utility.yul\":6864:6865   */\n      0x00\n        /* \"#utility.yul\":6853:6862   */\n      dup4\n        /* \"#utility.yul\":6849:6866   */\n      add\n        /* \"#utility.yul\":6840:6846   */\n      dup12\n        /* \"#utility.yul\":6796:6867   */\n      tag_259\n      jump\t// in\n    tag_377:\n        /* \"#utility.yul\":6877:6949   */\n      tag_378\n        /* \"#utility.yul\":6945:6947   */\n      0x20\n        /* \"#utility.yul\":6934:6943   */\n      dup4\n        /* \"#utility.yul\":6930:6948   */\n      add\n        /* \"#utility.yul\":6921:6927   */\n      dup11\n        /* \"#utility.yul\":6877:6949   */\n      tag_264\n      jump\t// in\n    tag_378:\n        /* \"#utility.yul\":6959:7042   */\n      tag_379\n        /* \"#utility.yul\":7038:7040   */\n      0x40\n        /* \"#utility.yul\":7027:7036   */\n      dup4\n        /* \"#utility.yul\":7023:7041   */\n      add\n        /* \"#utility.yul\":7014:7020   */\n      dup10\n        /* \"#utility.yul\":6959:7042   */\n      tag_268\n      jump\t// in\n    tag_379:\n        /* \"#utility.yul\":7052:7124   */\n      tag_380\n        /* \"#utility.yul\":7120:7122   */\n      0x60\n        /* \"#utility.yul\":7109:7118   */\n      dup4\n        /* \"#utility.yul\":7105:7123   */\n      add\n        /* \"#utility.yul\":7096:7102   */\n      dup9\n        /* \"#utility.yul\":7052:7124   */\n      tag_259\n      jump\t// in\n    tag_380:\n        /* \"#utility.yul\":7134:7207   */\n      tag_381\n        /* \"#utility.yul\":7202:7205   */\n      0x80\n        /* \"#utility.yul\":7191:7200   */\n      dup4\n        /* \"#utility.yul\":7187:7206   */\n      add\n        /* \"#utility.yul\":7178:7184   */\n      dup8\n        /* \"#utility.yul\":7134:7207   */\n      tag_259\n      jump\t// in\n    tag_381:\n        /* \"#utility.yul\":7217:7286   */\n      tag_382\n        /* \"#utility.yul\":7281:7284   */\n      0xa0\n        /* \"#utility.yul\":7270:7279   */\n      dup4\n        /* \"#utility.yul\":7266:7285   */\n      add\n        /* \"#utility.yul\":7257:7263   */\n      dup7\n        /* \"#utility.yul\":7217:7286   */\n      tag_263\n      jump\t// in\n    tag_382:\n        /* \"#utility.yul\":7296:7363   */\n      tag_383\n        /* \"#utility.yul\":7358:7361   */\n      0xc0\n        /* \"#utility.yul\":7347:7356   */\n      dup4\n        /* \"#utility.yul\":7343:7362   */\n      add\n        /* \"#utility.yul\":7334:7340   */\n      dup6\n        /* \"#utility.yul\":7296:7363   */\n      tag_270\n      jump\t// in\n    tag_383:\n        /* \"#utility.yul\":7373:7440   */\n      tag_384\n        /* \"#utility.yul\":7435:7438   */\n      0xe0\n        /* \"#utility.yul\":7424:7433   */\n      dup4\n        /* \"#utility.yul\":7420:7439   */\n      add\n        /* \"#utility.yul\":7411:7417   */\n      dup5\n        /* \"#utility.yul\":7373:7440   */\n      tag_270\n      jump\t// in\n    tag_384:\n        /* \"#utility.yul\":6460:7447   */\n      swap10\n      swap9\n      pop\n      pop\n      pop\n      pop\n      pop\n      pop\n      pop\n      pop\n      pop\n      jump\t// out\n        /* \"#utility.yul\":7453:7561   */\n    tag_271:\n        /* \"#utility.yul\":7530:7554   */\n      tag_386\n        /* \"#utility.yul\":7548:7553   */\n      dup2\n        /* \"#utility.yul\":7530:7554   */\n      tag_248\n      jump\t// in\n    tag_386:\n        /* \"#utility.yul\":7525:7528   */\n      dup3\n        /* \"#utility.yul\":7518:7555   */\n      mstore\n        /* \"#utility.yul\":7453:7561   */\n      pop\n      pop\n      jump\t// out\n        /* \"#utility.yul\":7567:7710   */\n    tag_272:\n        /* \"#utility.yul\":7655:7703   */\n      tag_388\n        /* \"#utility.yul\":7697:7702   */\n      dup2\n        /* \"#utility.yul\":7655:7703   */\n      tag_267\n      jump\t// in\n    tag_388:\n        /* \"#utility.yul\":7650:7653   */\n      dup3\n        /* \"#utility.yul\":7643:7704   */\n      mstore\n        /* \"#utility.yul\":7567:7710   */\n      pop\n      pop\n      jump\t// out\n        /* \"#utility.yul\":7716:7818   */\n    tag_273:\n        /* \"#utility.yul\":7789:7811   */\n      tag_390\n        /* \"#utility.yul\":7805:7810   */\n      dup2\n        /* \"#utility.yul\":7789:7811   */\n      tag_262\n      jump\t// in\n    tag_390:\n        /* \"#utility.yul\":7784:7787   */\n      dup3\n        /* \"#utility.yul\":7777:7812   */\n      mstore\n        /* \"#utility.yul\":7716:7818   */\n      pop\n      pop\n      jump\t// out\n        /* \"#utility.yul\":7824:7923   */\n    tag_274:\n        /* \"#utility.yul\":7895:7916   */\n      tag_392\n        /* \"#utility.yul\":7910:7915   */\n      dup2\n        /* \"#utility.yul\":7895:7916   */\n      tag_269\n      jump\t// in\n    tag_392:\n        /* \"#utility.yul\":7890:7893   */\n      dup3\n        /* \"#utility.yul\":7883:7917   */\n      mstore\n        /* \"#utility.yul\":7824:7923   */\n      pop\n      pop\n      jump\t// out\n        /* \"#utility.yul\":7987:9550   */\n    tag_275:\n        /* \"#utility.yul\":8126:8132   */\n      0x0100\n        /* \"#utility.yul\":8121:8124   */\n      dup3\n        /* \"#utility.yul\":8117:8133   */\n      add\n        /* \"#utility.yul\":8213:8217   */\n      0x00\n        /* \"#utility.yul\":8206:8211   */\n      dup3\n        /* \"#utility.yul\":8202:8218   */\n      add\n        /* \"#utility.yul\":8196:8219   */\n      mload\n        /* \"#utility.yul\":8232:8295   */\n      tag_394\n        /* \"#utility.yul\":8289:8293   */\n      0x00\n        /* \"#utility.yul\":8284:8287   */\n      dup6\n        /* \"#utility.yul\":8280:8294   */\n      add\n        /* \"#utility.yul\":8266:8278   */\n      dup3\n        /* \"#utility.yul\":8232:8295   */\n      tag_255\n      jump\t// in\n    tag_394:\n        /* \"#utility.yul\":8143:8305   */\n      pop\n        /* \"#utility.yul\":8388:8392   */\n      0x20\n        /* \"#utility.yul\":8381:8386   */\n      dup3\n        /* \"#utility.yul\":8377:8393   */\n      add\n        /* \"#utility.yul\":8371:8394   */\n      mload\n        /* \"#utility.yul\":8407:8470   */\n      tag_395\n        /* \"#utility.yul\":8464:8468   */\n      0x20\n        /* \"#utility.yul\":8459:8462   */\n      dup6\n        /* \"#utility.yul\":8455:8469   */\n      add\n        /* \"#utility.yul\":8441:8453   */\n      dup3\n        /* \"#utility.yul\":8407:8470   */\n      tag_271\n      jump\t// in\n    tag_395:\n        /* \"#utility.yul\":8315:8480   */\n      pop\n        /* \"#utility.yul\":8563:8567   */\n      0x40\n        /* \"#utility.yul\":8556:8561   */\n      dup3\n        /* \"#utility.yul\":8552:8568   */\n      add\n        /* \"#utility.yul\":8546:8569   */\n      mload\n        /* \"#utility.yul\":8582:8656   */\n      tag_396\n        /* \"#utility.yul\":8650:8654   */\n      0x40\n        /* \"#utility.yul\":8645:8648   */\n      dup6\n        /* \"#utility.yul\":8641:8655   */\n      add\n        /* \"#utility.yul\":8627:8639   */\n      dup3\n        /* \"#utility.yul\":8582:8656   */\n      tag_272\n      jump\t// in\n    tag_396:\n        /* \"#utility.yul\":8490:8666   */\n      pop\n        /* \"#utility.yul\":8755:8759   */\n      0x60\n        /* \"#utility.yul\":8748:8753   */\n      dup3\n        /* \"#utility.yul\":8744:8760   */\n      add\n        /* \"#utility.yul\":8738:8761   */\n      mload\n        /* \"#utility.yul\":8774:8837   */\n      tag_397\n        /* \"#utility.yul\":8831:8835   */\n      0x60\n        /* \"#utility.yul\":8826:8829   */\n      dup6\n        /* \"#utility.yul\":8822:8836   */\n      add\n        /* \"#utility.yul\":8808:8820   */\n      dup3\n        /* \"#utility.yul\":8774:8837   */\n      tag_255\n      jump\t// in\n    tag_397:\n        /* \"#utility.yul\":8676:8847   */\n      pop\n        /* \"#utility.yul\":8936:8940   */\n      0x80\n        /* \"#utility.yul\":8929:8934   */\n      dup3\n        /* \"#utility.yul\":8925:8941   */\n      add\n        /* \"#utility.yul\":8919:8942   */\n      mload\n        /* \"#utility.yul\":8955:9018   */\n      tag_398\n        /* \"#utility.yul\":9012:9016   */\n      0x80\n        /* \"#utility.yul\":9007:9010   */\n      dup6\n        /* \"#utility.yul\":9003:9017   */\n      add\n        /* \"#utility.yul\":8989:9001   */\n      dup3\n        /* \"#utility.yul\":8955:9018   */\n      tag_255\n      jump\t// in\n    tag_398:\n        /* \"#utility.yul\":8857:9028   */\n      pop\n        /* \"#utility.yul\":9116:9120   */\n      0xa0\n        /* \"#utility.yul\":9109:9114   */\n      dup3\n        /* \"#utility.yul\":9105:9121   */\n      add\n        /* \"#utility.yul\":9099:9122   */\n      mload\n        /* \"#utility.yul\":9135:9194   */\n      tag_399\n        /* \"#utility.yul\":9188:9192   */\n      0xa0\n        /* \"#utility.yul\":9183:9186   */\n      dup6\n        /* \"#utility.yul\":9179:9193   */\n      add\n        /* \"#utility.yul\":9165:9177   */\n      dup3\n        /* \"#utility.yul\":9135:9194   */\n      tag_273\n      jump\t// in\n    tag_399:\n        /* \"#utility.yul\":9038:9204   */\n      pop\n        /* \"#utility.yul\":9287:9291   */\n      0xc0\n        /* \"#utility.yul\":9280:9285   */\n      dup3\n        /* \"#utility.yul\":9276:9292   */\n      add\n        /* \"#utility.yul\":9270:9293   */\n      mload\n        /* \"#utility.yul\":9306:9363   */\n      tag_400\n        /* \"#utility.yul\":9357:9361   */\n      0xc0\n        /* \"#utility.yul\":9352:9355   */\n      dup6\n        /* \"#utility.yul\":9348:9362   */\n      add\n        /* \"#utility.yul\":9334:9346   */\n      dup3\n        /* \"#utility.yul\":9306:9363   */\n      tag_274\n      jump\t// in\n    tag_400:\n        /* \"#utility.yul\":9214:9373   */\n      pop\n        /* \"#utility.yul\":9457:9461   */\n      0xe0\n        /* \"#utility.yul\":9450:9455   */\n      dup3\n        /* \"#utility.yul\":9446:9462   */\n      add\n        /* \"#utility.yul\":9440:9463   */\n      mload\n        /* \"#utility.yul\":9476:9533   */\n      tag_401\n        /* \"#utility.yul\":9527:9531   */\n      0xe0\n        /* \"#utility.yul\":9522:9525   */\n      dup6\n        /* \"#utility.yul\":9518:9532   */\n      add\n        /* \"#utility.yul\":9504:9516   */\n      dup3\n        /* \"#utility.yul\":9476:9533   */\n      tag_274\n      jump\t// in\n    tag_401:\n        /* \"#utility.yul\":9383:9543   */\n      pop\n        /* \"#utility.yul\":8095:9550   */\n      pop\n        /* \"#utility.yul\":7987:9550   */\n      pop\n      pop\n      jump\t// out\n        /* \"#utility.yul\":9556:9863   */\n    tag_107:\n        /* \"#utility.yul\":9691:9695   */\n      0x00\n        /* \"#utility.yul\":9729:9732   */\n      0x0100\n        /* \"#utility.yul\":9718:9727   */\n      dup3\n        /* \"#utility.yul\":9714:9733   */\n      add\n        /* \"#utility.yul\":9706:9733   */\n      swap1\n      pop\n        /* \"#utility.yul\":9743:9856   */\n      tag_403\n        /* \"#utility.yul\":9853:9854   */\n      0x00\n        /* \"#utility.yul\":9842:9851   */\n      dup4\n        /* \"#utility.yul\":9838:9855   */\n      add\n        /* \"#utility.yul\":9829:9835   */\n      dup5\n        /* \"#utility.yul\":9743:9856   */\n      tag_275\n      jump\t// in\n    tag_403:\n        /* \"#utility.yul\":9556:9863   */\n      swap3\n      swap2\n      pop\n      pop\n      jump\t// out\n        /* \"#utility.yul\":9869:10038   */\n    tag_276:\n        /* \"#utility.yul\":9953:9964   */\n      0x00\n        /* \"#utility.yul\":9987:9993   */\n      dup3\n        /* \"#utility.yul\":9982:9985   */\n      dup3\n        /* \"#utility.yul\":9975:9994   */\n      mstore\n        /* \"#utility.yul\":10027:10031   */\n      0x20\n        /* \"#utility.yul\":10022:10025   */\n      dup3\n        /* \"#utility.yul\":10018:10032   */\n      add\n        /* \"#utility.yul\":10003:10032   */\n      swap1\n      pop\n        /* \"#utility.yul\":9869:10038   */\n      swap3\n      swap2\n      pop\n      pop\n      jump\t// out\n        /* \"#utility.yul\":10044:10205   */\n    tag_277:\n        /* \"#utility.yul\":10184:10197   */\n      0x42756b616e206f776e6572000000000000000000000000000000000000000000\n        /* \"#utility.yul\":10180:10181   */\n      0x00\n        /* \"#utility.yul\":10172:10178   */\n      dup3\n        /* \"#utility.yul\":10168:10182   */\n      add\n        /* \"#utility.yul\":10161:10198   */\n      mstore\n        /* \"#utility.yul\":10044:10205   */\n      pop\n      jump\t// out\n        /* \"#utility.yul\":10211:10577   */\n    tag_278:\n        /* \"#utility.yul\":10353:10356   */\n      0x00\n        /* \"#utility.yul\":10374:10441   */\n      tag_407\n        /* \"#utility.yul\":10438:10440   */\n      0x0b\n        /* \"#utility.yul\":10433:10436   */\n      dup4\n        /* \"#utility.yul\":10374:10441   */\n      tag_276\n      jump\t// in\n    tag_407:\n        /* \"#utility.yul\":10367:10441   */\n      swap2\n      pop\n        /* \"#utility.yul\":10450:10543   */\n      tag_408\n        /* \"#utility.yul\":10539:10542   */\n      dup3\n        /* \"#utility.yul\":10450:10543   */\n      tag_277\n      jump\t// in\n    tag_408:\n        /* \"#utility.yul\":10568:10570   */\n      0x20\n        /* \"#utility.yul\":10563:10566   */\n      dup3\n        /* \"#utility.yul\":10559:10571   */\n      add\n        /* \"#utility.yul\":10552:10571   */\n      swap1\n      pop\n        /* \"#utility.yul\":10211:10577   */\n      swap2\n      swap1\n      pop\n      jump\t// out\n        /* \"#utility.yul\":10583:11002   */\n    tag_114:\n        /* \"#utility.yul\":10749:10753   */\n      0x00\n        /* \"#utility.yul\":10787:10789   */\n      0x20\n        /* \"#utility.yul\":10776:10785   */\n      dup3\n        /* \"#utility.yul\":10772:10790   */\n      add\n        /* \"#utility.yul\":10764:10790   */\n      swap1\n      pop\n        /* \"#utility.yul\":10836:10845   */\n      dup2\n        /* \"#utility.yul\":10830:10834   */\n      dup2\n        /* \"#utility.yul\":10826:10846   */\n      sub\n        /* \"#utility.yul\":10822:10823   */\n      0x00\n        /* \"#utility.yul\":10811:10820   */\n      dup4\n        /* \"#utility.yul\":10807:10824   */\n      add\n        /* \"#utility.yul\":10800:10847   */\n      mstore\n        /* \"#utility.yul\":10864:10995   */\n      tag_410\n        /* \"#utility.yul\":10990:10994   */\n      dup2\n        /* \"#utility.yul\":10864:10995   */\n      tag_278\n      jump\t// in\n    tag_410:\n        /* \"#utility.yul\":10856:10995   */\n      swap1\n      pop\n        /* \"#utility.yul\":10583:11002   */\n      swap2\n      swap1\n      pop\n      jump\t// out\n        /* \"#utility.yul\":11008:11155   */\n    tag_279:\n        /* \"#utility.yul\":11109:11120   */\n      0x00\n        /* \"#utility.yul\":11146:11149   */\n      dup2\n        /* \"#utility.yul\":11131:11149   */\n      swap1\n      pop\n        /* \"#utility.yul\":11008:11155   */\n      swap3\n      swap2\n      pop\n      pop\n      jump\t// out\n        /* \"#utility.yul\":11161:11275   */\n    tag_280:\n      pop\n      jump\t// out\n        /* \"#utility.yul\":11281:11679   */\n    tag_281:\n        /* \"#utility.yul\":11440:11443   */\n      0x00\n        /* \"#utility.yul\":11461:11544   */\n      tag_414\n        /* \"#utility.yul\":11542:11543   */\n      0x00\n        /* \"#utility.yul\":11537:11540   */\n      dup4\n        /* \"#utility.yul\":11461:11544   */\n      tag_279\n      jump\t// in\n    tag_414:\n        /* \"#utility.yul\":11454:11544   */\n      swap2\n      pop\n        /* \"#utility.yul\":11553:11646   */\n      tag_415\n        /* \"#utility.yul\":11642:11645   */\n      dup3\n        /* \"#utility.yul\":11553:11646   */\n      tag_280\n      jump\t// in\n    tag_415:\n        /* \"#utility.yul\":11671:11672   */\n      0x00\n        /* \"#utility.yul\":11666:11669   */\n      dup3\n        /* \"#utility.yul\":11662:11673   */\n      add\n        /* \"#utility.yul\":11655:11673   */\n      swap1\n      pop\n        /* \"#utility.yul\":11281:11679   */\n      swap2\n      swap1\n      pop\n      jump\t// out\n        /* \"#utility.yul\":11685:12064   */\n    tag_116:\n        /* \"#utility.yul\":11869:11872   */\n      0x00\n        /* \"#utility.yul\":11891:12038   */\n      tag_417\n        /* \"#utility.yul\":12034:12037   */\n      dup3\n        /* \"#utility.yul\":11891:12038   */\n      tag_281\n      jump\t// in\n    tag_417:\n        /* \"#utility.yul\":11884:12038   */\n      swap2\n      pop\n        /* \"#utility.yul\":12055:12058   */\n      dup2\n        /* \"#utility.yul\":12048:12058   */\n      swap1\n      pop\n        /* \"#utility.yul\":11685:12064   */\n      swap2\n      swap1\n      pop\n      jump\t// out\n        /* \"#utility.yul\":12070:12234   */\n    tag_282:\n        /* \"#utility.yul\":12210:12226   */\n      0x5472616e7366657220676167616c000000000000000000000000000000000000\n        /* \"#utility.yul\":12206:12207   */\n      0x00\n        /* \"#utility.yul\":12198:12204   */\n      dup3\n        /* \"#utility.yul\":12194:12208   */\n      add\n        /* \"#utility.yul\":12187:12227   */\n      mstore\n        /* \"#utility.yul\":12070:12234   */\n      pop\n      jump\t// out\n        /* \"#utility.yul\":12240:12606   */\n    tag_283:\n        /* \"#utility.yul\":12382:12385   */\n      0x00\n        /* \"#utility.yul\":12403:12470   */\n      tag_420\n        /* \"#utility.yul\":12467:12469   */\n      0x0e\n        /* \"#utility.yul\":12462:12465   */\n      dup4\n        /* \"#utility.yul\":12403:12470   */\n      tag_276\n      jump\t// in\n    tag_420:\n        /* \"#utility.yul\":12396:12470   */\n      swap2\n      pop\n        /* \"#utility.yul\":12479:12572   */\n      tag_421\n        /* \"#utility.yul\":12568:12571   */\n      dup3\n        /* \"#utility.yul\":12479:12572   */\n      tag_282\n      jump\t// in\n    tag_421:\n        /* \"#utility.yul\":12597:12599   */\n      0x20\n        /* \"#utility.yul\":12592:12595   */\n      dup3\n        /* \"#utility.yul\":12588:12600   */\n      add\n        /* \"#utility.yul\":12581:12600   */\n      swap1\n      pop\n        /* \"#utility.yul\":12240:12606   */\n      swap2\n      swap1\n      pop\n      jump\t// out\n        /* \"#utility.yul\":12612:13031   */\n    tag_122:\n        /* \"#utility.yul\":12778:12782   */\n      0x00\n        /* \"#utility.yul\":12816:12818   */\n      0x20\n        /* \"#utility.yul\":12805:12814   */\n      dup3\n        /* \"#utility.yul\":12801:12819   */\n      add\n        /* \"#utility.yul\":12793:12819   */\n      swap1\n      pop\n        /* \"#utility.yul\":12865:12874   */\n      dup2\n        /* \"#utility.yul\":12859:12863   */\n      dup2\n        /* \"#utility.yul\":12855:12875   */\n      sub\n        /* \"#utility.yul\":12851:12852   */\n      0x00\n        /* \"#utility.yul\":12840:12849   */\n      dup4\n        /* \"#utility.yul\":12836:12853   */\n      add\n        /* \"#utility.yul\":12829:12876   */\n      mstore\n        /* \"#utility.yul\":12893:13024   */\n      tag_423\n        /* \"#utility.yul\":13019:13023   */\n      dup2\n        /* \"#utility.yul\":12893:13024   */\n      tag_283\n      jump\t// in\n    tag_423:\n        /* \"#utility.yul\":12885:13024   */\n      swap1\n      pop\n        /* \"#utility.yul\":12612:13031   */\n      swap2\n      swap1\n      pop\n      jump\t// out\n        /* \"#utility.yul\":13037:13202   */\n    tag_284:\n        /* \"#utility.yul\":13177:13194   */\n      0x5065726c7520302e303031204554480000000000000000000000000000000000\n        /* \"#utility.yul\":13173:13174   */\n      0x00\n        /* \"#utility.yul\":13165:13171   */\n      dup3\n        /* \"#utility.yul\":13161:13175   */\n      add\n        /* \"#utility.yul\":13154:13195   */\n      mstore\n        /* \"#utility.yul\":13037:13202   */\n      pop\n      jump\t// out\n        /* \"#utility.yul\":13208:13574   */\n    tag_285:\n        /* \"#utility.yul\":13350:13353   */\n      0x00\n        /* \"#utility.yul\":13371:13438   */\n      tag_426\n        /* \"#utility.yul\":13435:13437   */\n      0x0f\n        /* \"#utility.yul\":13430:13433   */\n      dup4\n        /* \"#utility.yul\":13371:13438   */\n      tag_276\n      jump\t// in\n    tag_426:\n        /* \"#utility.yul\":13364:13438   */\n      swap2\n      pop\n        /* \"#utility.yul\":13447:13540   */\n      tag_427\n        /* \"#utility.yul\":13536:13539   */\n      dup3\n        /* \"#utility.yul\":13447:13540   */\n      tag_284\n      jump\t// in\n    tag_427:\n        /* \"#utility.yul\":13565:13567   */\n      0x20\n        /* \"#utility.yul\":13560:13563   */\n      dup3\n        /* \"#utility.yul\":13556:13568   */\n      add\n        /* \"#utility.yul\":13549:13568   */\n      swap1\n      pop\n        /* \"#utility.yul\":13208:13574   */\n      swap2\n      swap1\n      pop\n      jump\t// out\n        /* \"#utility.yul\":13580:13999   */\n    tag_126:\n        /* \"#utility.yul\":13746:13750   */\n      0x00\n        /* \"#utility.yul\":13784:13786   */\n      0x20\n        /* \"#utility.yul\":13773:13782   */\n      dup3\n        /* \"#utility.yul\":13769:13787   */\n      add\n        /* \"#utility.yul\":13761:13787   */\n      swap1\n      pop\n        /* \"#utility.yul\":13833:13842   */\n      dup2\n        /* \"#utility.yul\":13827:13831   */\n      dup2\n        /* \"#utility.yul\":13823:13843   */\n      sub\n        /* \"#utility.yul\":13819:13820   */\n      0x00\n        /* \"#utility.yul\":13808:13817   */\n      dup4\n        /* \"#utility.yul\":13804:13821   */\n      add\n        /* \"#utility.yul\":13797:13844   */\n      mstore\n        /* \"#utility.yul\":13861:13992   */\n      tag_429\n        /* \"#utility.yul\":13987:13991   */\n      dup2\n        /* \"#utility.yul\":13861:13992   */\n      tag_285\n      jump\t// in\n    tag_429:\n        /* \"#utility.yul\":13853:13992   */\n      swap1\n      pop\n        /* \"#utility.yul\":13580:13999   */\n      swap2\n      swap1\n      pop\n      jump\t// out\n        /* \"#utility.yul\":14005:14185   */\n    tag_286:\n        /* \"#utility.yul\":14053:14130   */\n      0x4e487b7100000000000000000000000000000000000000000000000000000000\n        /* \"#utility.yul\":14050:14051   */\n      0x00\n        /* \"#utility.yul\":14043:14131   */\n      mstore\n        /* \"#utility.yul\":14150:14154   */\n      0x11\n        /* \"#utility.yul\":14147:14148   */\n      0x04\n        /* \"#utility.yul\":14140:14155   */\n      mstore\n        /* \"#utility.yul\":14174:14178   */\n      0x24\n        /* \"#utility.yul\":14171:14172   */\n      0x00\n        /* \"#utility.yul\":14164:14179   */\n      revert\n        /* \"#utility.yul\":14191:14424   */\n    tag_128:\n        /* \"#utility.yul\":14230:14233   */\n      0x00\n        /* \"#utility.yul\":14253:14277   */\n      tag_432\n        /* \"#utility.yul\":14271:14276   */\n      dup3\n        /* \"#utility.yul\":14253:14277   */\n      tag_254\n      jump\t// in\n    tag_432:\n        /* \"#utility.yul\":14244:14277   */\n      swap2\n      pop\n        /* \"#utility.yul\":14299:14365   */\n      0xffffffffffffffffffffffffffffffffffffffffffffffffffffffffffffffff\n        /* \"#utility.yul\":14292:14297   */\n      dup3\n        /* \"#utility.yul\":14289:14366   */\n      sub\n        /* \"#utility.yul\":14286:14389   */\n      tag_433\n      jumpi\n        /* \"#utility.yul\":14369:14387   */\n      tag_434\n      tag_286\n      jump\t// in\n    tag_434:\n        /* \"#utility.yul\":14286:14389   */\n    tag_433:\n        /* \"#utility.yul\":14416:14417   */\n      0x01\n        /* \"#utility.yul\":14409:14414   */\n      dup3\n        /* \"#utility.yul\":14405:14418   */\n      add\n        /* \"#utility.yul\":14398:14418   */\n      swap1\n      pop\n        /* \"#utility.yul\":14191:14424   */\n      swap2\n      swap1\n      pop\n      jump\t// out\n        /* \"#utility.yul\":14430:14624   */\n    tag_139:\n        /* \"#utility.yul\":14470:14474   */\n      0x00\n        /* \"#utility.yul\":14490:14510   */\n      tag_436\n        /* \"#utility.yul\":14508:14509   */\n      dup3\n        /* \"#utility.yul\":14490:14510   */\n      tag_254\n      jump\t// in\n    tag_436:\n        /* \"#utility.yul\":14485:14510   */\n      swap2\n      pop\n        /* \"#utility.yul\":14524:14544   */\n      tag_437\n        /* \"#utility.yul\":14542:14543   */\n      dup4\n        /* \"#utility.yul\":14524:14544   */\n      tag_254\n      jump\t// in\n    tag_437:\n        /* \"#utility.yul\":14519:14544   */\n      swap3\n      pop\n        /* \"#utility.yul\":14568:14569   */\n      dup3\n        /* \"#utility.yul\":14565:14566   */\n      dup3\n        /* \"#utility.yul\":14561:14570   */\n      sub\n        /* \"#utility.yul\":14553:14570   */\n      swap1\n      pop\n        /* \"#utility.yul\":14592:14593   */\n      dup2\n        /* \"#utility.yul\":14586:14590   */\n      dup2\n        /* \"#utility.yul\":14583:14594   */\n      gt\n        /* \"#utility.yul\":14580:14617   */\n      iszero\n      tag_438\n      jumpi\n        /* \"#utility.yul\":14597:14615   */\n      tag_439\n      tag_286\n      jump\t// in\n    tag_439:\n        /* \"#utility.yul\":14580:14617   */\n    tag_438:\n        /* \"#utility.yul\":14430:14624   */\n      swap3\n      swap2\n      pop\n      pop\n      jump\t// out\n        /* \"#utility.yul\":14630:14810   */\n    tag_287:\n        /* \"#utility.yul\":14678:14755   */\n      0x4e487b7100000000000000000000000000000000000000000000000000000000\n        /* \"#utility.yul\":14675:14676   */\n      0x00\n        /* \"#utility.yul\":14668:14756   */\n      mstore\n        /* \"#utility.yul\":14775:14779   */\n      0x12\n        /* \"#utility.yul\":14772:14773   */\n      0x04\n        /* \"#utility.yul\":14765:14780   */\n      mstore\n        /* \"#utility.yul\":14799:14803   */\n      0x24\n        /* \"#utility.yul\":14796:14797   */\n      0x00\n        /* \"#utility.yul\":14789:14804   */\n      revert\n        /* \"#utility.yul\":14816:15001   */\n    tag_141:\n        /* \"#utility.yul\":14856:14857   */\n      0x00\n        /* \"#utility.yul\":14873:14893   */\n      tag_442\n        /* \"#utility.yul\":14891:14892   */\n      dup3\n        /* \"#utility.yul\":14873:14893   */\n      tag_254\n      jump\t// in\n    tag_442:\n        /* \"#utility.yul\":14868:14893   */\n      swap2\n      pop\n        /* \"#utility.yul\":14907:14927   */\n      tag_443\n        /* \"#utility.yul\":14925:14926   */\n      dup4\n        /* \"#utility.yul\":14907:14927   */\n      tag_254\n      jump\t// in\n    tag_443:\n        /* \"#utility.yul\":14902:14927   */\n      swap3\n      pop\n        /* \"#utility.yul\":14946:14947   */\n      dup3\n        /* \"#utility.yul\":14936:14971   */\n      tag_444\n      jumpi\n        /* \"#utility.yul\":14951:14969   */\n      tag_445\n      tag_287\n      jump\t// in\n    tag_445:\n        /* \"#utility.yul\":14936:14971   */\n    tag_444:\n        /* \"#utility.yul\":14993:14994   */\n      dup3\n        /* \"#utility.yul\":14990:14991   */\n      dup3\n        /* \"#utility.yul\":14986:14995   */\n      div\n        /* \"#utility.yul\":14981:14995   */\n      swap1\n      pop\n        /* \"#utility.yul\":14816:15001   */\n      swap3\n      swap2\n      pop\n      pop\n      jump\t// out\n        /* \"#utility.yul\":15007:15417   */\n    tag_143:\n        /* \"#utility.yul\":15047:15054   */\n      0x00\n        /* \"#utility.yul\":15070:15090   */\n      tag_447\n        /* \"#utility.yul\":15088:15089   */\n      dup3\n        /* \"#utility.yul\":15070:15090   */\n      tag_254\n      jump\t// in\n    tag_447:\n        /* \"#utility.yul\":15065:15090   */\n      swap2\n      pop\n        /* \"#utility.yul\":15104:15124   */\n      tag_448\n        /* \"#utility.yul\":15122:15123   */\n      dup4\n        /* \"#utility.yul\":15104:15124   */\n      tag_254\n      jump\t// in\n    tag_448:\n        /* \"#utility.yul\":15099:15124   */\n      swap3\n      pop\n        /* \"#utility.yul\":15159:15160   */\n      dup3\n        /* \"#utility.yul\":15156:15157   */\n      dup3\n        /* \"#utility.yul\":15152:15161   */\n      mul\n        /* \"#utility.yul\":15181:15211   */\n      tag_449\n        /* \"#utility.yul\":15199:15210   */\n      dup2\n        /* \"#utility.yul\":15181:15211   */\n      tag_254\n      jump\t// in\n    tag_449:\n        /* \"#utility.yul\":15170:15211   */\n      swap2\n      pop\n        /* \"#utility.yul\":15360:15361   */\n      dup3\n        /* \"#utility.yul\":15351:15358   */\n      dup3\n        /* \"#utility.yul\":15347:15362   */\n      div\n        /* \"#utility.yul\":15344:15345   */\n      dup5\n        /* \"#utility.yul\":15341:15363   */\n      eq\n        /* \"#utility.yul\":15321:15322   */\n      dup4\n        /* \"#utility.yul\":15314:15323   */\n      iszero\n        /* \"#utility.yul\":15294:15377   */\n      or\n        /* \"#utility.yul\":15271:15410   */\n      tag_450\n      jumpi\n        /* \"#utility.yul\":15390:15408   */\n      tag_451\n      tag_286\n      jump\t// in\n    tag_451:\n        /* \"#utility.yul\":15271:15410   */\n    tag_450:\n        /* \"#utility.yul\":15055:15417   */\n      pop\n        /* \"#utility.yul\":15007:15417   */\n      swap3\n      swap2\n      pop\n      pop\n      jump\t// out\n        /* \"#utility.yul\":15423:15588   */\n    tag_288:\n        /* \"#utility.yul\":15563:15580   */\n      0x506c616e74206e6f742045786973740000000000000000000000000000000000\n        /* \"#utility.yul\":15559:15560   */\n      0x00\n        /* \"#utility.yul\":15551:15557   */\n      dup3\n        /* \"#utility.yul\":15547:15561   */\n      add\n        /* \"#utility.yul\":15540:15581   */\n      mstore\n        /* \"#utility.yul\":15423:15588   */\n      pop\n      jump\t// out\n        /* \"#utility.yul\":15594:15960   */\n    tag_289:\n        /* \"#utility.yul\":15736:15739   */\n      0x00\n        /* \"#utility.yul\":15757:15824   */\n      tag_454\n        /* \"#utility.yul\":15821:15823   */\n      0x0f\n        /* \"#utility.yul\":15816:15819   */\n      dup4\n        /* \"#utility.yul\":15757:15824   */\n      tag_276\n      jump\t// in\n    tag_454:\n        /* \"#utility.yul\":15750:15824   */\n      swap2\n      pop\n        /* \"#utility.yul\":15833:15926   */\n      tag_455\n        /* \"#utility.yul\":15922:15925   */\n      dup3\n        /* \"#utility.yul\":15833:15926   */\n      tag_288\n      jump\t// in\n    tag_455:\n        /* \"#utility.yul\":15951:15953   */\n      0x20\n        /* \"#utility.yul\":15946:15949   */\n      dup3\n        /* \"#utility.yul\":15942:15954   */\n      add\n        /* \"#utility.yul\":15935:15954   */\n      swap1\n      pop\n        /* \"#utility.yul\":15594:15960   */\n      swap2\n      swap1\n      pop\n      jump\t// out\n        /* \"#utility.yul\":15966:16385   */\n    tag_151:\n        /* \"#utility.yul\":16132:16136   */\n      0x00\n        /* \"#utility.yul\":16170:16172   */\n      0x20\n        /* \"#utility.yul\":16159:16168   */\n      dup3\n        /* \"#utility.yul\":16155:16173   */\n      add\n        /* \"#utility.yul\":16147:16173   */\n      swap1\n      pop\n        /* \"#utility.yul\":16219:16228   */\n      dup2\n        /* \"#utility.yul\":16213:16217   */\n      dup2\n        /* \"#utility.yul\":16209:16229   */\n      sub\n        /* \"#utility.yul\":16205:16206   */\n      0x00\n        /* \"#utility.yul\":16194:16203   */\n      dup4\n        /* \"#utility.yul\":16190:16207   */\n      add\n        /* \"#utility.yul\":16183:16230   */\n      mstore\n        /* \"#utility.yul\":16247:16378   */\n      tag_457\n        /* \"#utility.yul\":16373:16377   */\n      dup2\n        /* \"#utility.yul\":16247:16378   */\n      tag_289\n      jump\t// in\n    tag_457:\n        /* \"#utility.yul\":16239:16378   */\n      swap1\n      pop\n        /* \"#utility.yul\":15966:16385   */\n      swap2\n      swap1\n      pop\n      jump\t// out\n        /* \"#utility.yul\":16391:16562   */\n    tag_290:\n        /* \"#utility.yul\":16531:16554   */\n      0x596f7520617265206e6f7420746865206f776e65720000000000000000000000\n        /* \"#utility.yul\":16527:16528   */\n      0x00\n        /* \"#utility.yul\":16519:16525   */\n      dup3\n        /* \"#utility.yul\":16515:16529   */\n      add\n        /* \"#utility.yul\":16508:16555   */\n      mstore\n        /* \"#utility.yul\":16391:16562   */\n      pop\n      jump\t// out\n        /* \"#utility.yul\":16568:16934   */\n    tag_291:\n        /* \"#utility.yul\":16710:16713   */\n      0x00\n        /* \"#utility.yul\":16731:16798   */\n      tag_460\n        /* \"#utility.yul\":16795:16797   */\n      0x15\n        /* \"#utility.yul\":16790:16793   */\n      dup4\n        /* \"#utility.yul\":16731:16798   */\n      tag_276\n      jump\t// in\n    tag_460:\n        /* \"#utility.yul\":16724:16798   */\n      swap2\n      pop\n        /* \"#utility.yul\":16807:16900   */\n      tag_461\n        /* \"#utility.yul\":16896:16899   */\n      dup3\n        /* \"#utility.yul\":16807:16900   */\n      tag_290\n      jump\t// in\n    tag_461:\n        /* \"#utility.yul\":16925:16927   */\n      0x20\n        /* \"#utility.yul\":16920:16923   */\n      dup3\n        /* \"#utility.yul\":16916:16928   */\n      add\n        /* \"#utility.yul\":16909:16928   */\n      swap1\n      pop\n        /* \"#utility.yul\":16568:16934   */\n      swap2\n      swap1\n      pop\n      jump\t// out\n        /* \"#utility.yul\":16940:17359   */\n    tag_154:\n        /* \"#utility.yul\":17106:17110   */\n      0x00\n        /* \"#utility.yul\":17144:17146   */\n      0x20\n        /* \"#utility.yul\":17133:17142   */\n      dup3\n        /* \"#utility.yul\":17129:17147   */\n      add\n        /* \"#utility.yul\":17121:17147   */\n      swap1\n      pop\n        /* \"#utility.yul\":17193:17202   */\n      dup2\n        /* \"#utility.yul\":17187:17191   */\n      dup2\n        /* \"#utility.yul\":17183:17203   */\n      sub\n        /* \"#utility.yul\":17179:17180   */\n      0x00\n        /* \"#utility.yul\":17168:17177   */\n      dup4\n        /* \"#utility.yul\":17164:17181   */\n      add\n        /* \"#utility.yul\":17157:17204   */\n      mstore\n        /* \"#utility.yul\":17221:17352   */\n      tag_463\n        /* \"#utility.yul\":17347:17351   */\n      dup2\n        /* \"#utility.yul\":17221:17352   */\n      tag_291\n      jump\t// in\n    tag_463:\n        /* \"#utility.yul\":17213:17352   */\n      swap1\n      pop\n        /* \"#utility.yul\":16940:17359   */\n      swap2\n      swap1\n      pop\n      jump\t// out\n        /* \"#utility.yul\":17365:17528   */\n    tag_292:\n        /* \"#utility.yul\":17505:17520   */\n      0x506c616e74206973206465616400000000000000000000000000000000000000\n        /* \"#utility.yul\":17501:17502   */\n      0x00\n        /* \"#utility.yul\":17493:17499   */\n      dup3\n        /* \"#utility.yul\":17489:17503   */\n      add\n        /* \"#utility.yul\":17482:17521   */\n      mstore\n        /* \"#utility.yul\":17365:17528   */\n      pop\n      jump\t// out\n        /* \"#utility.yul\":17534:17900   */\n    tag_293:\n        /* \"#utility.yul\":17676:17679   */\n      0x00\n        /* \"#utility.yul\":17697:17764   */\n      tag_466\n        /* \"#utility.yul\":17761:17763   */\n      0x0d\n        /* \"#utility.yul\":17756:17759   */\n      dup4\n        /* \"#utility.yul\":17697:17764   */\n      tag_276\n      jump\t// in\n    tag_466:\n        /* \"#utility.yul\":17690:17764   */\n      swap2\n      pop\n        /* \"#utility.yul\":17773:17866   */\n      tag_467\n        /* \"#utility.yul\":17862:17865   */\n      dup3\n        /* \"#utility.yul\":17773:17866   */\n      tag_292\n      jump\t// in\n    tag_467:\n        /* \"#utility.yul\":17891:17893   */\n      0x20\n        /* \"#utility.yul\":17886:17889   */\n      dup3\n        /* \"#utility.yul\":17882:17894   */\n      add\n        /* \"#utility.yul\":17875:17894   */\n      swap1\n      pop\n        /* \"#utility.yul\":17534:17900   */\n      swap2\n      swap1\n      pop\n      jump\t// out\n        /* \"#utility.yul\":17906:18325   */\n    tag_157:\n        /* \"#utility.yul\":18072:18076   */\n      0x00\n        /* \"#utility.yul\":18110:18112   */\n      0x20\n        /* \"#utility.yul\":18099:18108   */\n      dup3\n        /* \"#utility.yul\":18095:18113   */\n      add\n        /* \"#utility.yul\":18087:18113   */\n      swap1\n      pop\n        /* \"#utility.yul\":18159:18168   */\n      dup2\n        /* \"#utility.yul\":18153:18157   */\n      dup2\n        /* \"#utility.yul\":18149:18169   */\n      sub\n        /* \"#utility.yul\":18145:18146   */\n      0x00\n        /* \"#utility.yul\":18134:18143   */\n      dup4\n        /* \"#utility.yul\":18130:18147   */\n      add\n        /* \"#utility.yul\":18123:18170   */\n      mstore\n        /* \"#utility.yul\":18187:18318   */\n      tag_469\n        /* \"#utility.yul\":18313:18317   */\n      dup2\n        /* \"#utility.yul\":18187:18318   */\n      tag_293\n      jump\t// in\n    tag_469:\n        /* \"#utility.yul\":18179:18318   */\n      swap1\n      pop\n        /* \"#utility.yul\":17906:18325   */\n      swap2\n      swap1\n      pop\n      jump\t// out\n        /* \"#utility.yul\":18331:18496   */\n    tag_294:\n        /* \"#utility.yul\":18471:18488   */\n      0x5065726c7520302e303033204554480000000000000000000000000000000000\n        /* \"#utility.yul\":18467:18468   */\n      0x00\n        /* \"#utility.yul\":18459:18465   */\n      dup3\n        /* \"#utility.yul\":18455:18469   */\n      add\n        /* \"#utility.yul\":18448:18489   */\n      mstore\n        /* \"#utility.yul\":18331:18496   */\n      pop\n      jump\t// out\n        /* \"#utility.yul\":18502:18868   */\n    tag_295:\n        /* \"#utility.yul\":18644:18647   */\n      0x00\n        /* \"#utility.yul\":18665:18732   */\n      tag_472\n        /* \"#utility.yul\":18729:18731   */\n      0x0f\n        /* \"#utility.yul\":18724:18727   */\n      dup4\n        /* \"#utility.yul\":18665:18732   */\n      tag_276\n      jump\t// in\n    tag_472:\n        /* \"#utility.yul\":18658:18732   */\n      swap2\n      pop\n        /* \"#utility.yul\":18741:18834   */\n      tag_473\n        /* \"#utility.yul\":18830:18833   */\n      dup3\n        /* \"#utility.yul\":18741:18834   */\n      tag_294\n      jump\t// in\n    tag_473:\n        /* \"#utility.yul\":18859:18861   */\n      0x20\n        /* \"#utility.yul\":18854:18857   */\n      dup3\n        /* \"#utility.yul\":18850:18862   */\n      add\n        /* \"#utility.yul\":18843:18862   */\n      swap1\n      pop\n        /* \"#utility.yul\":18502:18868   */\n      swap2\n      swap1\n      pop\n      jump\t// out\n        /* \"#utility.yul\":18874:19293   */\n    tag_163:\n        /* \"#utility.yul\":19040:19044   */\n      0x00\n        /* \"#utility.yul\":19078:19080   */\n      0x20\n        /* \"#utility.yul\":19067:19076   */\n      dup3\n        /* \"#utility.yul\":19063:19081   */\n      add\n        /* \"#utility.yul\":19055:19081   */\n      swap1\n      pop\n        /* \"#utility.yul\":19127:19136   */\n      dup2\n        /* \"#utility.yul\":19121:19125   */\n      dup2\n        /* \"#utility.yul\":19117:19137   */\n      sub\n        /* \"#utility.yul\":19113:19114   */\n      0x00\n        /* \"#utility.yul\":19102:19111   */\n      dup4\n        /* \"#utility.yul\":19098:19115   */\n      add\n        /* \"#utility.yul\":19091:19138   */\n      mstore\n        /* \"#utility.yul\":19155:19286   */\n      tag_475\n        /* \"#utility.yul\":19281:19285   */\n      dup2\n        /* \"#utility.yul\":19155:19286   */\n      tag_295\n      jump\t// in\n    tag_475:\n        /* \"#utility.yul\":19147:19286   */\n      swap1\n      pop\n        /* \"#utility.yul\":18874:19293   */\n      swap2\n      swap1\n      pop\n      jump\t// out\n        /* \"#utility.yul\":19299:19543   */\n    tag_180:\n        /* \"#utility.yul\":19403:19407   */\n      0x00\n        /* \"#utility.yul\":19441:19443   */\n      0x20\n        /* \"#utility.yul\":19430:19439   */\n      dup3\n        /* \"#utility.yul\":19426:19444   */\n      add\n        /* \"#utility.yul\":19418:19444   */\n      swap1\n      pop\n        /* \"#utility.yul\":19454:19536   */\n      tag_477\n        /* \"#utility.yul\":19533:19534   */\n      0x00\n        /* \"#utility.yul\":19522:19531   */\n      dup4\n        /* \"#utility.yul\":19518:19535   */\n      add\n        /* \"#utility.yul\":19509:19515   */\n      dup5\n        /* \"#utility.yul\":19454:19536   */\n      tag_268\n      jump\t// in\n    tag_477:\n        /* \"#utility.yul\":19299:19543   */\n      swap3\n      swap2\n      pop\n      pop\n      jump\t// out\n        /* \"#utility.yul\":19549:19725   */\n    tag_296:\n        /* \"#utility.yul\":19689:19717   */\n      0x506c616e74206e6f7420726561647920746f2068617276657374000000000000\n        /* \"#utility.yul\":19685:19686   */\n      0x00\n        /* \"#utility.yul\":19677:19683   */\n      dup3\n        /* \"#utility.yul\":19673:19687   */\n      add\n        /* \"#utility.yul\":19666:19718   */\n      mstore\n        /* \"#utility.yul\":19549:19725   */\n      pop\n      jump\t// out\n        /* \"#utility.yul\":19731:20097   */\n    tag_297:\n        /* \"#utility.yul\":19873:19876   */\n      0x00\n        /* \"#utility.yul\":19894:19961   */\n      tag_480\n        /* \"#utility.yul\":19958:19960   */\n      0x1a\n        /* \"#utility.yul\":19953:19956   */\n      dup4\n        /* \"#utility.yul\":19894:19961   */\n      tag_276\n      jump\t// in\n    tag_480:\n        /* \"#utility.yul\":19887:19961   */\n      swap2\n      pop\n        /* \"#utility.yul\":19970:20063   */\n      tag_481\n        /* \"#utility.yul\":20059:20062   */\n      dup3\n        /* \"#utility.yul\":19970:20063   */\n      tag_296\n      jump\t// in\n    tag_481:\n        /* \"#utility.yul\":20088:20090   */\n      0x20\n        /* \"#utility.yul\":20083:20086   */\n      dup3\n        /* \"#utility.yul\":20079:20091   */\n      add\n        /* \"#utility.yul\":20072:20091   */\n      swap1\n      pop\n        /* \"#utility.yul\":19731:20097   */\n      swap2\n      swap1\n      pop\n      jump\t// out\n        /* \"#utility.yul\":20103:20522   */\n    tag_212:\n        /* \"#utility.yul\":20269:20273   */\n      0x00\n        /* \"#utility.yul\":20307:20309   */\n      0x20\n        /* \"#utility.yul\":20296:20305   */\n      dup3\n        /* \"#utility.yul\":20292:20310   */\n      add\n        /* \"#utility.yul\":20284:20310   */\n      swap1\n      pop\n        /* \"#utility.yul\":20356:20365   */\n      dup2\n        /* \"#utility.yul\":20350:20354   */\n      dup2\n        /* \"#utility.yul\":20346:20366   */\n      sub\n        /* \"#utility.yul\":20342:20343   */\n      0x00\n        /* \"#utility.yul\":20331:20340   */\n      dup4\n        /* \"#utility.yul\":20327:20344   */\n      add\n        /* \"#utility.yul\":20320:20367   */\n      mstore\n        /* \"#utility.yul\":20384:20515   */\n      tag_483\n        /* \"#utility.yul\":20510:20514   */\n      dup2\n        /* \"#utility.yul\":20384:20515   */\n      tag_297\n      jump\t// in\n    tag_483:\n        /* \"#utility.yul\":20376:20515   */\n      swap1\n      pop\n        /* \"#utility.yul\":20103:20522   */\n      swap2\n      swap1\n      pop\n      jump\t// out\n        /* \"#utility.yul\":20528:20704   */\n    tag_298:\n        /* \"#utility.yul\":20668:20696   */\n      0x4f6e6c7920746865206f776e65722063616e2068617276657374000000000000\n        /* \"#utility.yul\":20664:20665   */\n      0x00\n        /* \"#utility.yul\":20656:20662   */\n      dup3\n        /* \"#utility.yul\":20652:20666   */\n      add\n        /* \"#utility.yul\":20645:20697   */\n      mstore\n        /* \"#utility.yul\":20528:20704   */\n      pop\n      jump\t// out\n        /* \"#utility.yul\":20710:21076   */\n    tag_299:\n        /* \"#utility.yul\":20852:20855   */\n      0x00\n        /* \"#utility.yul\":20873:20940   */\n      tag_486\n        /* \"#utility.yul\":20937:20939   */\n      0x1a\n        /* \"#utility.yul\":20932:20935   */\n      dup4\n        /* \"#utility.yul\":20873:20940   */\n      tag_276\n      jump\t// in\n    tag_486:\n        /* \"#utility.yul\":20866:20940   */\n      swap2\n      pop\n        /* \"#utility.yul\":20949:21042   */\n      tag_487\n        /* \"#utility.yul\":21038:21041   */\n      dup3\n        /* \"#utility.yul\":20949:21042   */\n      tag_298\n      jump\t// in\n    tag_487:\n        /* \"#utility.yul\":21067:21069   */\n      0x20\n        /* \"#utility.yul\":21062:21065   */\n      dup3\n        /* \"#utility.yul\":21058:21070   */\n      add\n        /* \"#utility.yul\":21051:21070   */\n      swap1\n      pop\n        /* \"#utility.yul\":20710:21076   */\n      swap2\n      swap1\n      pop\n      jump\t// out\n        /* \"#utility.yul\":21082:21501   */\n    tag_215:\n        /* \"#utility.yul\":21248:21252   */\n      0x00\n        /* \"#utility.yul\":21286:21288   */\n      0x20\n        /* \"#utility.yul\":21275:21284   */\n      dup3\n        /* \"#utility.yul\":21271:21289   */\n      add\n        /* \"#utility.yul\":21263:21289   */\n      swap1\n      pop\n        /* \"#utility.yul\":21335:21344   */\n      dup2\n        /* \"#utility.yul\":21329:21333   */\n      dup2\n        /* \"#utility.yul\":21325:21345   */\n      sub\n        /* \"#utility.yul\":21321:21322   */\n      0x00\n        /* \"#utility.yul\":21310:21319   */\n      dup4\n        /* \"#utility.yul\":21306:21323   */\n      add\n        /* \"#utility.yul\":21299:21346   */\n      mstore\n        /* \"#utility.yul\":21363:21494   */\n      tag_489\n        /* \"#utility.yul\":21489:21493   */\n      dup2\n        /* \"#utility.yul\":21363:21494   */\n      tag_299\n      jump\t// in\n    tag_489:\n        /* \"#utility.yul\":21355:21494   */\n      swap1\n      pop\n        /* \"#utility.yul\":21082:21501   */\n      swap2\n      swap1\n      pop\n      jump\t// out\n\n    auxdata: 0xa26469706673582212209208cda14e0a84adab2b7a04b9b39cc6de83c42b9582b44ad4bcfd0d4dc98bee64736f6c634300081e0033\n}\n",
				"bytecode": {
					"linkReferences": {},
					"object": "6080604052348015600e575f5ffd5b503360035f6101000a81548173ffffffffffffffffffffffffffffffffffffffff021916908373ffffffffffffffffffffffffffffffffffffffff160217905550611f118061005c5f395ff3fe60806040526004361061010c575f3560e01c80638dd2361c11610094578063cfc9a5f811610063578063cfc9a5f814610366578063d0e30db014610390578063ddd425961461039a578063e38f8448146103c2578063ed0b1f5f146103ea57610113565b80638dd2361c146102a75780639886bcfa146102ea5780639c47174914610312578063bacb5ebd1461033c57610113565b8063754e150d116100db578063754e150d146101b15780637ed4c5be146101ed578063891c0785146102175780638aee578b146102415780638da5cb5b1461027d57610113565b806330cec0eb146101175780633ccfd60b1461015357806351f9efde1461016957806374119a381461019357610113565b3661011357005b5f5ffd5b348015610122575f5ffd5b5061013d60048036038101906101389190611563565b610426565b60405161014a919061164e565b60405180910390f35b34801561015e575f5ffd5b506101676104b9565b005b348015610174575f5ffd5b5061017d610614565b60405161018a919061167d565b60405180910390f35b61019b610619565b6040516101a8919061167d565b60405180910390f35b3480156101bc575f5ffd5b506101d760048036038101906101d291906116c0565b6108a4565b6040516101e49190611706565b60405180910390f35b3480156101f8575f5ffd5b50610201610979565b60405161020e919061167d565b60405180910390f35b348015610222575f5ffd5b5061022b61097e565b604051610238919061167d565b60405180910390f35b34801561024c575f5ffd5b506102676004803603810190610262919061171f565b610989565b604051610274919061167d565b60405180910390f35b348015610288575f5ffd5b506102916109b4565b60405161029e919061176c565b60405180910390f35b3480156102b2575f5ffd5b506102cd60048036038101906102c891906116c0565b6109d9565b6040516102e1989796959493929190611812565b60405180910390f35b3480156102f5575f5ffd5b50610310600480360381019061030b91906116c0565b610a6e565b005b34801561031d575f5ffd5b50610326610c25565b604051610333919061167d565b60405180910390f35b348015610347575f5ffd5b50610350610c2b565b60405161035d9190611706565b60405180910390f35b348015610371575f5ffd5b5061037a610c30565b604051610387919061167d565b60405180910390f35b610398610c3b565b005b3480156103a5575f5ffd5b506103c060048036038101906103bb91906116c0565b610c87565b005b3480156103cd575f5ffd5b506103e860048036038101906103e391906116c0565b610f44565b005b3480156103f5575f5ffd5b50610410600480360381019061040b91906116c0565b61129c565b60405161041d919061196a565b60405180910390f35b606060015f8373ffffffffffffffffffffffffffffffffffffffff1673ffffffffffffffffffffffffffffffffffffffff1681526020019081526020015f208054806020026020016040519081016040528092919081815260200182805480156104ad57602002820191905f5260205f20905b815481526020019060010190808311610499575b50505050509050919050565b60035f9054906101000a900473ffffffffffffffffffffffffffffffffffffffff1673ffffffffffffffffffffffffffffffffffffffff163373ffffffffffffffffffffffffffffffffffffffff1614610548576040517f08c379a000000000000000000000000000000000000000000000000000000000815260040161053f906119de565b60405180910390fd5b5f60035f9054906101000a900473ffffffffffffffffffffffffffffffffffffffff1673ffffffffffffffffffffffffffffffffffffffff164760405161058e90611a29565b5f6040518083038185875af1925050503d805f81146105c8576040519150601f19603f3d011682016040523d82523d5f602084013e6105cd565b606091505b5050905080610611576040517f08c379a000000000000000000000000000000000000000000000000000000000815260040161060890611a87565b60405180910390fd5b50565b603c81565b5f66038d7ea4c68000341015610664576040517f08c379a000000000000000000000000000000000000000000000000000000000815260040161065b90611aef565b60405180910390fd5b60025f81548092919061067690611b3a565b91905055505f60025490505f6040518061010001604052808381526020013373ffffffffffffffffffffffffffffffffffffffff1681526020015f60038111156106c3576106c2611785565b5b8152602001428152602001428152602001606460ff1681526020016001151581526020015f15158152509050805f5f60025481526020019081526020015f205f820151815f01556020820151816001015f6101000a81548173ffffffffffffffffffffffffffffffffffffffff021916908373ffffffffffffffffffffffffffffffffffffffff16021790555060408201518160010160146101000a81548160ff0219169083600381111561077b5761077a611785565b5b0217905550606082015181600201556080820151816003015560a0820151816004015f6101000a81548160ff021916908360ff16021790555060c08201518160040160016101000a81548160ff02191690831515021790555060e08201518160040160026101000a81548160ff02191690831515021790555090505060015f3373ffffffffffffffffffffffffffffffffffffffff1673ffffffffffffffffffffffffffffffffffffffff1681526020019081526020015f2082908060018154018082558091505060019003905f5260205f20015f9091909190915055813373ffffffffffffffffffffffffffffffffffffffff167f4f5b22082ac57121703b0b6c1203ef527cfbfa5069616fee6deb979d124adbf060405160405180910390a3819250505090565b5f5f5f5f8481526020019081526020015f2090508060040160019054906101000a900460ff1615806108e457508060040160029054906101000a900460ff165b156108f2575f915050610974565b5f8160030154426109039190611b81565b90505f601e826109139190611be1565b90505f600260ff16826109269190611c11565b9050836004015f9054906101000a900460ff1660ff16811061094e575f945050505050610974565b80846004015f9054906101000a900460ff1660ff1661096d9190611b81565b9450505050505b919050565b601e81565b660aa87bee53800081565b6001602052815f5260405f2081815481106109a2575f80fd5b905f5260205f20015f91509150505481565b60035f9054906101000a900473ffffffffffffffffffffffffffffffffffffffff1681565b5f602052805f5260405f205f91509050805f015490806001015f9054906101000a900473ffffffffffffffffffffffffffffffffffffffff16908060010160149054906101000a900460ff1690806002015490806003015490806004015f9054906101000a900460ff16908060040160019054906101000a900460ff16908060040160029054906101000a900460ff16905088565b5f5f5f8381526020019081526020015f2090508060040160019054906101000a900460ff16610ad2576040517f08c379a0000000000000000000000000000000000000000000000000000000008152600401610ac990611c9c565b60405180910390fd5b3373ffffffffffffffffffffffffffffffffffffffff16816001015f9054906101000a900473ffffffffffffffffffffffffffffffffffffffff1673ffffffffffffffffffffffffffffffffffffffff1614610b63576040517f08c379a0000000000000000000000000000000000000000000000000000000008152600401610b5a90611d04565b60405180910390fd5b8060040160029054906101000a900460ff1615610bb5576040517f08c379a0000000000000000000000000000000000000000000000000000000008152600401610bac90611d6c565b60405180910390fd5b5f6064905080826004015f6101000a81548160ff021916908360ff160217905550428260030181905550827fd4b742b9ba48fffa1f14267075a7793851770764117c423fd0a6550dfc8cb57482604051610c0f9190611706565b60405180910390a2610c2083610c87565b505050565b60025481565b600281565b66038d7ea4c6800081565b660aa87bee538000341015610c85576040517f08c379a0000000000000000000000000000000000000000000000000000000008152600401610c7c90611dd4565b60405180910390fd5b565b5f5f5f8381526020019081526020015f2090508060040160019054906101000a900460ff16610ceb576040517f08c379a0000000000000000000000000000000000000000000000000000000008152600401610ce290611c9c565b60405180910390fd5b610cf4826113e5565b8060040160029054906101000a900460ff1615610d115750610f41565b5f816002015442610d229190611b81565b90505f8260010160149054906101000a900460ff169050603c8210158015610d6d57505f6003811115610d5857610d57611785565b5b816003811115610d6b57610d6a611785565b5b145b15610ddd5760018360010160146101000a81548160ff02191690836003811115610d9a57610d99611785565b5b0217905550837f338b8976706f9da67298dddfa1ea4ff7d99cce68b9ca39c4f348994f8e2124a86001604051610dd09190611df2565b60405180910390a2610f3d565b6002603c610deb9190611c11565b8210158015610e1e575060016003811115610e0957610e08611785565b5b816003811115610e1c57610e1b611785565b5b145b15610e8e5760028360010160146101000a81548160ff02191690836003811115610e4b57610e4a611785565b5b0217905550837f338b8976706f9da67298dddfa1ea4ff7d99cce68b9ca39c4f348994f8e2124a86002604051610e819190611df2565b60405180910390a2610f3c565b6003603c610e9c9190611c11565b8210158015610ecf575060026003811115610eba57610eb9611785565b5b816003811115610ecd57610ecc611785565b5b145b15610f3b5760038360010160146101000a81548160ff02191690836003811115610efc57610efb611785565b5b0217905550837f338b8976706f9da67298dddfa1ea4ff7d99cce68b9ca39c4f348994f8e2124a86003604051610f329190611df2565b60405180910390a25b5b5b5050505b50565b5f5f5f8381526020019081526020015f2090508060040160019054906101000a900460ff16610fa8576040517f08c379a0000000000000000000000000000000000000000000000000000000008152600401610f9f90611c9c565b60405180910390fd5b600380811115610fbb57610fba611785565b5b8160010160149054906101000a900460ff166003811115610fdf57610fde611785565b5b1461101f576040517f08c379a000000000000000000000000000000000000000000000000000000000815260040161101690611e55565b60405180910390fd5b3373ffffffffffffffffffffffffffffffffffffffff16816001015f9054906101000a900473ffffffffffffffffffffffffffffffffffffffff1673ffffffffffffffffffffffffffffffffffffffff16146110b0576040517f08c379a00000000000000000000000000000000000000000000000000000000081526004016110a790611ebd565b60405180910390fd5b6110b982610c87565b6003808111156110cc576110cb611785565b5b8160010160149054906101000a900460ff1660038111156110f0576110ef611785565b5b14611130576040517f08c379a000000000000000000000000000000000000000000000000000000000815260040161112790611e55565b60405180910390fd5b5f8160040160016101000a81548160ff021916908315150217905550806001015f9054906101000a900473ffffffffffffffffffffffffffffffffffffffff1673ffffffffffffffffffffffffffffffffffffffff16827f79f2138ea100070ff95b59c265da7aa3c7a0f61595fe1bb2f5fda2762f398847660aa87bee5380006040516111bd919061167d565b60405180910390a35f816001015f9054906101000a900473ffffffffffffffffffffffffffffffffffffffff1673ffffffffffffffffffffffffffffffffffffffff16660aa87bee53800060405161121490611a29565b5f6040518083038185875af1925050503d805f811461124e576040519150601f19603f3d011682016040523d82523d5f602084013e611253565b606091505b5050905080611297576040517f08c379a000000000000000000000000000000000000000000000000000000000815260040161128e90611a87565b60405180910390fd5b505050565b6112a4611499565b5f5f5f8481526020019081526020015f20604051806101000160405290815f8201548152602001600182015f9054906101000a900473ffffffffffffffffffffffffffffffffffffffff1673ffffffffffffffffffffffffffffffffffffffff1673ffffffffffffffffffffffffffffffffffffffff1681526020016001820160149054906101000a900460ff16600381111561134457611343611785565b5b600381111561135657611355611785565b5b81526020016002820154815260200160038201548152602001600482015f9054906101000a900460ff1660ff1660ff1681526020016004820160019054906101000a900460ff161515151581526020016004820160029054906101000a900460ff16151515158152505090506113cb836108a4565b8160a0019060ff16908160ff168152505080915050919050565b5f5f5f8381526020019081526020015f2090505f611405825f01546108a4565b60ff16905080826004015f6101000a81548160ff021916908360ff1602179055505f8114801561144457508160040160029054906101000a900460ff16155b156114945760018260040160026101000a81548160ff021916908315150217905550827fcc296a21951f3e57f21afb08547d835a0a9f0f06cc2867009cbe0cae44d36be960405160405180910390a25b505050565b6040518061010001604052805f81526020015f73ffffffffffffffffffffffffffffffffffffffff1681526020015f60038111156114da576114d9611785565b5b81526020015f81526020015f81526020015f60ff1681526020015f151581526020015f151581525090565b5f5ffd5b5f73ffffffffffffffffffffffffffffffffffffffff82169050919050565b5f61153282611509565b9050919050565b61154281611528565b811461154c575f5ffd5b50565b5f8135905061155d81611539565b92915050565b5f6020828403121561157857611577611505565b5b5f6115858482850161154f565b91505092915050565b5f81519050919050565b5f82825260208201905092915050565b5f819050602082019050919050565b5f819050919050565b6115c9816115b7565b82525050565b5f6115da83836115c0565b60208301905092915050565b5f602082019050919050565b5f6115fc8261158e565b6116068185611598565b9350611611836115a8565b805f5b8381101561164157815161162888826115cf565b9750611633836115e6565b925050600181019050611614565b5085935050505092915050565b5f6020820190508181035f83015261166681846115f2565b905092915050565b611677816115b7565b82525050565b5f6020820190506116905f83018461166e565b92915050565b61169f816115b7565b81146116a9575f5ffd5b50565b5f813590506116ba81611696565b92915050565b5f602082840312156116d5576116d4611505565b5b5f6116e2848285016116ac565b91505092915050565b5f60ff82169050919050565b611700816116eb565b82525050565b5f6020820190506117195f8301846116f7565b92915050565b5f5f6040838503121561173557611734611505565b5b5f6117428582860161154f565b9250506020611753858286016116ac565b9150509250929050565b61176681611528565b82525050565b5f60208201905061177f5f83018461175d565b92915050565b7f4e487b71000000000000000000000000000000000000000000000000000000005f52602160045260245ffd5b600481106117c3576117c2611785565b5b50565b5f8190506117d3826117b2565b919050565b5f6117e2826117c6565b9050919050565b6117f2816117d8565b82525050565b5f8115159050919050565b61180c816117f8565b82525050565b5f610100820190506118265f83018b61166e565b611833602083018a61175d565b61184060408301896117e9565b61184d606083018861166e565b61185a608083018761166e565b61186760a08301866116f7565b61187460c0830185611803565b61188160e0830184611803565b9998505050505050505050565b61189781611528565b82525050565b6118a6816117d8565b82525050565b6118b5816116eb565b82525050565b6118c4816117f8565b82525050565b61010082015f8201516118df5f8501826115c0565b5060208201516118f2602085018261188e565b506040820151611905604085018261189d565b50606082015161191860608501826115c0565b50608082015161192b60808501826115c0565b5060a082015161193e60a08501826118ac565b5060c082015161195160c08501826118bb565b5060e082015161196460e08501826118bb565b50505050565b5f6101008201905061197e5f8301846118ca565b92915050565b5f82825260208201905092915050565b7f42756b616e206f776e65720000000000000000000000000000000000000000005f82015250565b5f6119c8600b83611984565b91506119d382611994565b602082019050919050565b5f6020820190508181035f8301526119f5816119bc565b9050919050565b5f81905092915050565b50565b5f611a145f836119fc565b9150611a1f82611a06565b5f82019050919050565b5f611a3382611a09565b9150819050919050565b7f5472616e7366657220676167616c0000000000000000000000000000000000005f82015250565b5f611a71600e83611984565b9150611a7c82611a3d565b602082019050919050565b5f6020820190508181035f830152611a9e81611a65565b9050919050565b7f5065726c7520302e3030312045544800000000000000000000000000000000005f82015250565b5f611ad9600f83611984565b9150611ae482611aa5565b602082019050919050565b5f6020820190508181035f830152611b0681611acd565b9050919050565b7f4e487b71000000000000000000000000000000000000000000000000000000005f52601160045260245ffd5b5f611b44826115b7565b91507fffffffffffffffffffffffffffffffffffffffffffffffffffffffffffffffff8203611b7657611b75611b0d565b5b600182019050919050565b5f611b8b826115b7565b9150611b96836115b7565b9250828203905081811115611bae57611bad611b0d565b5b92915050565b7f4e487b71000000000000000000000000000000000000000000000000000000005f52601260045260245ffd5b5f611beb826115b7565b9150611bf6836115b7565b925082611c0657611c05611bb4565b5b828204905092915050565b5f611c1b826115b7565b9150611c26836115b7565b9250828202611c34816115b7565b91508282048414831517611c4b57611c4a611b0d565b5b5092915050565b7f506c616e74206e6f7420457869737400000000000000000000000000000000005f82015250565b5f611c86600f83611984565b9150611c9182611c52565b602082019050919050565b5f6020820190508181035f830152611cb381611c7a565b9050919050565b7f596f7520617265206e6f7420746865206f776e657200000000000000000000005f82015250565b5f611cee601583611984565b9150611cf982611cba565b602082019050919050565b5f6020820190508181035f830152611d1b81611ce2565b9050919050565b7f506c616e742069732064656164000000000000000000000000000000000000005f82015250565b5f611d56600d83611984565b9150611d6182611d22565b602082019050919050565b5f6020820190508181035f830152611d8381611d4a565b9050919050565b7f5065726c7520302e3030332045544800000000000000000000000000000000005f82015250565b5f611dbe600f83611984565b9150611dc982611d8a565b602082019050919050565b5f6020820190508181035f830152611deb81611db2565b9050919050565b5f602082019050611e055f8301846117e9565b92915050565b7f506c616e74206e6f7420726561647920746f20686172766573740000000000005f82015250565b5f611e3f601a83611984565b9150611e4a82611e0b565b602082019050919050565b5f6020820190508181035f830152611e6c81611e33565b9050919050565b7f4f6e6c7920746865206f776e65722063616e20686172766573740000000000005f82015250565b5f611ea7601a83611984565b9150611eb282611e73565b602082019050919050565b5f6020820190508181035f830152611ed481611e9b565b905091905056fea26469706673582212209208cda14e0a84adab2b7a04b9b39cc6de83c42b9582b44ad4bcfd0d4dc98bee64736f6c634300081e0033",
					"opcodes": "PUSH1 0x80 PUSH1 0x40 MSTORE CALLVALUE DUP1 ISZERO PUSH1 0xE JUMPI PUSH0 PUSH0 REVERT JUMPDEST POP CALLER PUSH1 0x3 PUSH0 PUSH2 0x100 EXP DUP2 SLOAD DUP2 PUSH20 0xFFFFFFFFFFFFFFFFFFFFFFFFFFFFFFFFFFFFFFFF MUL NOT AND SWAP1 DUP4 PUSH20 0xFFFFFFFFFFFFFFFFFFFFFFFFFFFFFFFFFFFFFFFF AND MUL OR SWAP1 SSTORE POP PUSH2 0x1F11 DUP1 PUSH2 0x5C PUSH0 CODECOPY PUSH0 RETURN INVALID PUSH1 0x80 PUSH1 0x40 MSTORE PUSH1 0x4 CALLDATASIZE LT PUSH2 0x10C JUMPI PUSH0 CALLDATALOAD PUSH1 0xE0 SHR DUP1 PUSH4 0x8DD2361C GT PUSH2 0x94 JUMPI DUP1 PUSH4 0xCFC9A5F8 GT PUSH2 0x63 JUMPI DUP1 PUSH4 0xCFC9A5F8 EQ PUSH2 0x366 JUMPI DUP1 PUSH4 0xD0E30DB0 EQ PUSH2 0x390 JUMPI DUP1 PUSH4 0xDDD42596 EQ PUSH2 0x39A JUMPI DUP1 PUSH4 0xE38F8448 EQ PUSH2 0x3C2 JUMPI DUP1 PUSH4 0xED0B1F5F EQ PUSH2 0x3EA JUMPI PUSH2 0x113 JUMP JUMPDEST DUP1 PUSH4 0x8DD2361C EQ PUSH2 0x2A7 JUMPI DUP1 PUSH4 0x9886BCFA EQ PUSH2 0x2EA JUMPI DUP1 PUSH4 0x9C471749 EQ PUSH2 0x312 JUMPI DUP1 PUSH4 0xBACB5EBD EQ PUSH2 0x33C JUMPI PUSH2 0x113 JUMP JUMPDEST DUP1 PUSH4 0x754E150D GT PUSH2 0xDB JUMPI DUP1 PUSH4 0x754E150D EQ PUSH2 0x1B1 JUMPI DUP1 PUSH4 0x7ED4C5BE EQ PUSH2 0x1ED JUMPI DUP1 PUSH4 0x891C0785 EQ PUSH2 0x217 JUMPI DUP1 PUSH4 0x8AEE578B EQ PUSH2 0x241 JUMPI DUP1 PUSH4 0x8DA5CB5B EQ PUSH2 0x27D JUMPI PUSH2 0x113 JUMP JUMPDEST DUP1 PUSH4 0x30CEC0EB EQ PUSH2 0x117 JUMPI DUP1 PUSH4 0x3CCFD60B EQ PUSH2 0x153 JUMPI DUP1 PUSH4 0x51F9EFDE EQ PUSH2 0x169 JUMPI DUP1 PUSH4 0x74119A38 EQ PUSH2 0x193 JUMPI PUSH2 0x113 JUMP JUMPDEST CALLDATASIZE PUSH2 0x113 JUMPI STOP JUMPDEST PUSH0 PUSH0 REVERT JUMPDEST CALLVALUE DUP1 ISZERO PUSH2 0x122 JUMPI PUSH0 PUSH0 REVERT JUMPDEST POP PUSH2 0x13D PUSH1 0x4 DUP1 CALLDATASIZE SUB DUP2 ADD SWAP1 PUSH2 0x138 SWAP2 SWAP1 PUSH2 0x1563 JUMP JUMPDEST PUSH2 0x426 JUMP JUMPDEST PUSH1 0x40 MLOAD PUSH2 0x14A SWAP2 SWAP1 PUSH2 0x164E JUMP JUMPDEST PUSH1 0x40 MLOAD DUP1 SWAP2 SUB SWAP1 RETURN JUMPDEST CALLVALUE DUP1 ISZERO PUSH2 0x15E JUMPI PUSH0 PUSH0 REVERT JUMPDEST POP PUSH2 0x167 PUSH2 0x4B9 JUMP JUMPDEST STOP JUMPDEST CALLVALUE DUP1 ISZERO PUSH2 0x174 JUMPI PUSH0 PUSH0 REVERT JUMPDEST POP PUSH2 0x17D PUSH2 0x614 JUMP JUMPDEST PUSH1 0x40 MLOAD PUSH2 0x18A SWAP2 SWAP1 PUSH2 0x167D JUMP JUMPDEST PUSH1 0x40 MLOAD DUP1 SWAP2 SUB SWAP1 RETURN JUMPDEST PUSH2 0x19B PUSH2 0x619 JUMP JUMPDEST PUSH1 0x40 MLOAD PUSH2 0x1A8 SWAP2 SWAP1 PUSH2 0x167D JUMP JUMPDEST PUSH1 0x40 MLOAD DUP1 SWAP2 SUB SWAP1 RETURN JUMPDEST CALLVALUE DUP1 ISZERO PUSH2 0x1BC JUMPI PUSH0 PUSH0 REVERT JUMPDEST POP PUSH2 0x1D7 PUSH1 0x4 DUP1 CALLDATASIZE SUB DUP2 ADD SWAP1 PUSH2 0x1D2 SWAP2 SWAP1 PUSH2 0x16C0 JUMP JUMPDEST PUSH2 0x8A4 JUMP JUMPDEST PUSH1 0x40 MLOAD PUSH2 0x1E4 SWAP2 SWAP1 PUSH2 0x1706 JUMP JUMPDEST PUSH1 0x40 MLOAD DUP1 SWAP2 SUB SWAP1 RETURN JUMPDEST CALLVALUE DUP1 ISZERO PUSH2 0x1F8 JUMPI PUSH0 PUSH0 REVERT JUMPDEST POP PUSH2 0x201 PUSH2 0x979 JUMP JUMPDEST PUSH1 0x40 MLOAD PUSH2 0x20E SWAP2 SWAP1 PUSH2 0x167D JUMP JUMPDEST PUSH1 0x40 MLOAD DUP1 SWAP2 SUB SWAP1 RETURN JUMPDEST CALLVALUE DUP1 ISZERO PUSH2 0x222 JUMPI PUSH0 PUSH0 REVERT JUMPDEST POP PUSH2 0x22B PUSH2 0x97E JUMP JUMPDEST PUSH1 0x40 MLOAD PUSH2 0x238 SWAP2 SWAP1 PUSH2 0x167D JUMP JUMPDEST PUSH1 0x40 MLOAD DUP1 SWAP2 SUB SWAP1 RETURN JUMPDEST CALLVALUE DUP1 ISZERO PUSH2 0x24C JUMPI PUSH0 PUSH0 REVERT JUMPDEST POP PUSH2 0x267 PUSH1 0x4 DUP1 CALLDATASIZE SUB DUP2 ADD SWAP1 PUSH2 0x262 SWAP2 SWAP1 PUSH2 0x171F JUMP JUMPDEST PUSH2 0x989 JUMP JUMPDEST PUSH1 0x40 MLOAD PUSH2 0x274 SWAP2 SWAP1 PUSH2 0x167D JUMP JUMPDEST PUSH1 0x40 MLOAD DUP1 SWAP2 SUB SWAP1 RETURN JUMPDEST CALLVALUE DUP1 ISZERO PUSH2 0x288 JUMPI PUSH0 PUSH0 REVERT JUMPDEST POP PUSH2 0x291 PUSH2 0x9B4 JUMP JUMPDEST PUSH1 0x40 MLOAD PUSH2 0x29E SWAP2 SWAP1 PUSH2 0x176C JUMP JUMPDEST PUSH1 0x40 MLOAD DUP1 SWAP2 SUB SWAP1 RETURN JUMPDEST CALLVALUE DUP1 ISZERO PUSH2 0x2B2 JUMPI PUSH0 PUSH0 REVERT JUMPDEST POP PUSH2 0x2CD PUSH1 0x4 DUP1 CALLDATASIZE SUB DUP2 ADD SWAP1 PUSH2 0x2C8 SWAP2 SWAP1 PUSH2 0x16C0 JUMP JUMPDEST PUSH2 0x9D9 JUMP JUMPDEST PUSH1 0x40 MLOAD PUSH2 0x2E1 SWAP9 SWAP8 SWAP7 SWAP6 SWAP5 SWAP4 SWAP3 SWAP2 SWAP1 PUSH2 0x1812 JUMP JUMPDEST PUSH1 0x40 MLOAD DUP1 SWAP2 SUB SWAP1 RETURN JUMPDEST CALLVALUE DUP1 ISZERO PUSH2 0x2F5 JUMPI PUSH0 PUSH0 REVERT JUMPDEST POP PUSH2 0x310 PUSH1 0x4 DUP1 CALLDATASIZE SUB DUP2 ADD SWAP1 PUSH2 0x30B SWAP2 SWAP1 PUSH2 0x16C0 JUMP JUMPDEST PUSH2 0xA6E JUMP JUMPDEST STOP JUMPDEST CALLVALUE DUP1 ISZERO PUSH2 0x31D JUMPI PUSH0 PUSH0 REVERT JUMPDEST POP PUSH2 0x326 PUSH2 0xC25 JUMP JUMPDEST PUSH1 0x40 MLOAD PUSH2 0x333 SWAP2 SWAP1 PUSH2 0x167D JUMP JUMPDEST PUSH1 0x40 MLOAD DUP1 SWAP2 SUB SWAP1 RETURN JUMPDEST CALLVALUE DUP1 ISZERO PUSH2 0x347 JUMPI PUSH0 PUSH0 REVERT JUMPDEST POP PUSH2 0x350 PUSH2 0xC2B JUMP JUMPDEST PUSH1 0x40 MLOAD PUSH2 0x35D SWAP2 SWAP1 PUSH2 0x1706 JUMP JUMPDEST PUSH1 0x40 MLOAD DUP1 SWAP2 SUB SWAP1 RETURN JUMPDEST CALLVALUE DUP1 ISZERO PUSH2 0x371 JUMPI PUSH0 PUSH0 REVERT JUMPDEST POP PUSH2 0x37A PUSH2 0xC30 JUMP JUMPDEST PUSH1 0x40 MLOAD PUSH2 0x387 SWAP2 SWAP1 PUSH2 0x167D JUMP JUMPDEST PUSH1 0x40 MLOAD DUP1 SWAP2 SUB SWAP1 RETURN JUMPDEST PUSH2 0x398 PUSH2 0xC3B JUMP JUMPDEST STOP JUMPDEST CALLVALUE DUP1 ISZERO PUSH2 0x3A5 JUMPI PUSH0 PUSH0 REVERT JUMPDEST POP PUSH2 0x3C0 PUSH1 0x4 DUP1 CALLDATASIZE SUB DUP2 ADD SWAP1 PUSH2 0x3BB SWAP2 SWAP1 PUSH2 0x16C0 JUMP JUMPDEST PUSH2 0xC87 JUMP JUMPDEST STOP JUMPDEST CALLVALUE DUP1 ISZERO PUSH2 0x3CD JUMPI PUSH0 PUSH0 REVERT JUMPDEST POP PUSH2 0x3E8 PUSH1 0x4 DUP1 CALLDATASIZE SUB DUP2 ADD SWAP1 PUSH2 0x3E3 SWAP2 SWAP1 PUSH2 0x16C0 JUMP JUMPDEST PUSH2 0xF44 JUMP JUMPDEST STOP JUMPDEST CALLVALUE DUP1 ISZERO PUSH2 0x3F5 JUMPI PUSH0 PUSH0 REVERT JUMPDEST POP PUSH2 0x410 PUSH1 0x4 DUP1 CALLDATASIZE SUB DUP2 ADD SWAP1 PUSH2 0x40B SWAP2 SWAP1 PUSH2 0x16C0 JUMP JUMPDEST PUSH2 0x129C JUMP JUMPDEST PUSH1 0x40 MLOAD PUSH2 0x41D SWAP2 SWAP1 PUSH2 0x196A JUMP JUMPDEST PUSH1 0x40 MLOAD DUP1 SWAP2 SUB SWAP1 RETURN JUMPDEST PUSH1 0x60 PUSH1 0x1 PUSH0 DUP4 PUSH20 0xFFFFFFFFFFFFFFFFFFFFFFFFFFFFFFFFFFFFFFFF AND PUSH20 0xFFFFFFFFFFFFFFFFFFFFFFFFFFFFFFFFFFFFFFFF AND DUP2 MSTORE PUSH1 0x20 ADD SWAP1 DUP2 MSTORE PUSH1 0x20 ADD PUSH0 KECCAK256 DUP1 SLOAD DUP1 PUSH1 0x20 MUL PUSH1 0x20 ADD PUSH1 0x40 MLOAD SWAP1 DUP2 ADD PUSH1 0x40 MSTORE DUP1 SWAP3 SWAP2 SWAP1 DUP2 DUP2 MSTORE PUSH1 0x20 ADD DUP3 DUP1 SLOAD DUP1 ISZERO PUSH2 0x4AD JUMPI PUSH1 0x20 MUL DUP3 ADD SWAP2 SWAP1 PUSH0 MSTORE PUSH1 0x20 PUSH0 KECCAK256 SWAP1 JUMPDEST DUP2 SLOAD DUP2 MSTORE PUSH1 0x20 ADD SWAP1 PUSH1 0x1 ADD SWAP1 DUP1 DUP4 GT PUSH2 0x499 JUMPI JUMPDEST POP POP POP POP POP SWAP1 POP SWAP2 SWAP1 POP JUMP JUMPDEST PUSH1 0x3 PUSH0 SWAP1 SLOAD SWAP1 PUSH2 0x100 EXP SWAP1 DIV PUSH20 0xFFFFFFFFFFFFFFFFFFFFFFFFFFFFFFFFFFFFFFFF AND PUSH20 0xFFFFFFFFFFFFFFFFFFFFFFFFFFFFFFFFFFFFFFFF AND CALLER PUSH20 0xFFFFFFFFFFFFFFFFFFFFFFFFFFFFFFFFFFFFFFFF AND EQ PUSH2 0x548 JUMPI PUSH1 0x40 MLOAD PUSH32 0x8C379A000000000000000000000000000000000000000000000000000000000 DUP2 MSTORE PUSH1 0x4 ADD PUSH2 0x53F SWAP1 PUSH2 0x19DE JUMP JUMPDEST PUSH1 0x40 MLOAD DUP1 SWAP2 SUB SWAP1 REVERT JUMPDEST PUSH0 PUSH1 0x3 PUSH0 SWAP1 SLOAD SWAP1 PUSH2 0x100 EXP SWAP1 DIV PUSH20 0xFFFFFFFFFFFFFFFFFFFFFFFFFFFFFFFFFFFFFFFF AND PUSH20 0xFFFFFFFFFFFFFFFFFFFFFFFFFFFFFFFFFFFFFFFF AND SELFBALANCE PUSH1 0x40 MLOAD PUSH2 0x58E SWAP1 PUSH2 0x1A29 JUMP JUMPDEST PUSH0 PUSH1 0x40 MLOAD DUP1 DUP4 SUB DUP2 DUP6 DUP8 GAS CALL SWAP3 POP POP POP RETURNDATASIZE DUP1 PUSH0 DUP2 EQ PUSH2 0x5C8 JUMPI PUSH1 0x40 MLOAD SWAP2 POP PUSH1 0x1F NOT PUSH1 0x3F RETURNDATASIZE ADD AND DUP3 ADD PUSH1 0x40 MSTORE RETURNDATASIZE DUP3 MSTORE RETURNDATASIZE PUSH0 PUSH1 0x20 DUP5 ADD RETURNDATACOPY PUSH2 0x5CD JUMP JUMPDEST PUSH1 0x60 SWAP2 POP JUMPDEST POP POP SWAP1 POP DUP1 PUSH2 0x611 JUMPI PUSH1 0x40 MLOAD PUSH32 0x8C379A000000000000000000000000000000000000000000000000000000000 DUP2 MSTORE PUSH1 0x4 ADD PUSH2 0x608 SWAP1 PUSH2 0x1A87 JUMP JUMPDEST PUSH1 0x40 MLOAD DUP1 SWAP2 SUB SWAP1 REVERT JUMPDEST POP JUMP JUMPDEST PUSH1 0x3C DUP2 JUMP JUMPDEST PUSH0 PUSH7 0x38D7EA4C68000 CALLVALUE LT ISZERO PUSH2 0x664 JUMPI PUSH1 0x40 MLOAD PUSH32 0x8C379A000000000000000000000000000000000000000000000000000000000 DUP2 MSTORE PUSH1 0x4 ADD PUSH2 0x65B SWAP1 PUSH2 0x1AEF JUMP JUMPDEST PUSH1 0x40 MLOAD DUP1 SWAP2 SUB SWAP1 REVERT JUMPDEST PUSH1 0x2 PUSH0 DUP2 SLOAD DUP1 SWAP3 SWAP2 SWAP1 PUSH2 0x676 SWAP1 PUSH2 0x1B3A JUMP JUMPDEST SWAP2 SWAP1 POP SSTORE POP PUSH0 PUSH1 0x2 SLOAD SWAP1 POP PUSH0 PUSH1 0x40 MLOAD DUP1 PUSH2 0x100 ADD PUSH1 0x40 MSTORE DUP1 DUP4 DUP2 MSTORE PUSH1 0x20 ADD CALLER PUSH20 0xFFFFFFFFFFFFFFFFFFFFFFFFFFFFFFFFFFFFFFFF AND DUP2 MSTORE PUSH1 0x20 ADD PUSH0 PUSH1 0x3 DUP2 GT ISZERO PUSH2 0x6C3 JUMPI PUSH2 0x6C2 PUSH2 0x1785 JUMP JUMPDEST JUMPDEST DUP2 MSTORE PUSH1 0x20 ADD TIMESTAMP DUP2 MSTORE PUSH1 0x20 ADD TIMESTAMP DUP2 MSTORE PUSH1 0x20 ADD PUSH1 0x64 PUSH1 0xFF AND DUP2 MSTORE PUSH1 0x20 ADD PUSH1 0x1 ISZERO ISZERO DUP2 MSTORE PUSH1 0x20 ADD PUSH0 ISZERO ISZERO DUP2 MSTORE POP SWAP1 POP DUP1 PUSH0 PUSH0 PUSH1 0x2 SLOAD DUP2 MSTORE PUSH1 0x20 ADD SWAP1 DUP2 MSTORE PUSH1 0x20 ADD PUSH0 KECCAK256 PUSH0 DUP3 ADD MLOAD DUP2 PUSH0 ADD SSTORE PUSH1 0x20 DUP3 ADD MLOAD DUP2 PUSH1 0x1 ADD PUSH0 PUSH2 0x100 EXP DUP2 SLOAD DUP2 PUSH20 0xFFFFFFFFFFFFFFFFFFFFFFFFFFFFFFFFFFFFFFFF MUL NOT AND SWAP1 DUP4 PUSH20 0xFFFFFFFFFFFFFFFFFFFFFFFFFFFFFFFFFFFFFFFF AND MUL OR SWAP1 SSTORE POP PUSH1 0x40 DUP3 ADD MLOAD DUP2 PUSH1 0x1 ADD PUSH1 0x14 PUSH2 0x100 EXP DUP2 SLOAD DUP2 PUSH1 0xFF MUL NOT AND SWAP1 DUP4 PUSH1 0x3 DUP2 GT ISZERO PUSH2 0x77B JUMPI PUSH2 0x77A PUSH2 0x1785 JUMP JUMPDEST JUMPDEST MUL OR SWAP1 SSTORE POP PUSH1 0x60 DUP3 ADD MLOAD DUP2 PUSH1 0x2 ADD SSTORE PUSH1 0x80 DUP3 ADD MLOAD DUP2 PUSH1 0x3 ADD SSTORE PUSH1 0xA0 DUP3 ADD MLOAD DUP2 PUSH1 0x4 ADD PUSH0 PUSH2 0x100 EXP DUP2 SLOAD DUP2 PUSH1 0xFF MUL NOT AND SWAP1 DUP4 PUSH1 0xFF AND MUL OR SWAP1 SSTORE POP PUSH1 0xC0 DUP3 ADD MLOAD DUP2 PUSH1 0x4 ADD PUSH1 0x1 PUSH2 0x100 EXP DUP2 SLOAD DUP2 PUSH1 0xFF MUL NOT AND SWAP1 DUP4 ISZERO ISZERO MUL OR SWAP1 SSTORE POP PUSH1 0xE0 DUP3 ADD MLOAD DUP2 PUSH1 0x4 ADD PUSH1 0x2 PUSH2 0x100 EXP DUP2 SLOAD DUP2 PUSH1 0xFF MUL NOT AND SWAP1 DUP4 ISZERO ISZERO MUL OR SWAP1 SSTORE POP SWAP1 POP POP PUSH1 0x1 PUSH0 CALLER PUSH20 0xFFFFFFFFFFFFFFFFFFFFFFFFFFFFFFFFFFFFFFFF AND PUSH20 0xFFFFFFFFFFFFFFFFFFFFFFFFFFFFFFFFFFFFFFFF AND DUP2 MSTORE PUSH1 0x20 ADD SWAP1 DUP2 MSTORE PUSH1 0x20 ADD PUSH0 KECCAK256 DUP3 SWAP1 DUP1 PUSH1 0x1 DUP2 SLOAD ADD DUP1 DUP3 SSTORE DUP1 SWAP2 POP POP PUSH1 0x1 SWAP1 SUB SWAP1 PUSH0 MSTORE PUSH1 0x20 PUSH0 KECCAK256 ADD PUSH0 SWAP1 SWAP2 SWAP1 SWAP2 SWAP1 SWAP2 POP SSTORE DUP2 CALLER PUSH20 0xFFFFFFFFFFFFFFFFFFFFFFFFFFFFFFFFFFFFFFFF AND PUSH32 0x4F5B22082AC57121703B0B6C1203EF527CFBFA5069616FEE6DEB979D124ADBF0 PUSH1 0x40 MLOAD PUSH1 0x40 MLOAD DUP1 SWAP2 SUB SWAP1 LOG3 DUP2 SWAP3 POP POP POP SWAP1 JUMP JUMPDEST PUSH0 PUSH0 PUSH0 PUSH0 DUP5 DUP2 MSTORE PUSH1 0x20 ADD SWAP1 DUP2 MSTORE PUSH1 0x20 ADD PUSH0 KECCAK256 SWAP1 POP DUP1 PUSH1 0x4 ADD PUSH1 0x1 SWAP1 SLOAD SWAP1 PUSH2 0x100 EXP SWAP1 DIV PUSH1 0xFF AND ISZERO DUP1 PUSH2 0x8E4 JUMPI POP DUP1 PUSH1 0x4 ADD PUSH1 0x2 SWAP1 SLOAD SWAP1 PUSH2 0x100 EXP SWAP1 DIV PUSH1 0xFF AND JUMPDEST ISZERO PUSH2 0x8F2 JUMPI PUSH0 SWAP2 POP POP PUSH2 0x974 JUMP JUMPDEST PUSH0 DUP2 PUSH1 0x3 ADD SLOAD TIMESTAMP PUSH2 0x903 SWAP2 SWAP1 PUSH2 0x1B81 JUMP JUMPDEST SWAP1 POP PUSH0 PUSH1 0x1E DUP3 PUSH2 0x913 SWAP2 SWAP1 PUSH2 0x1BE1 JUMP JUMPDEST SWAP1 POP PUSH0 PUSH1 0x2 PUSH1 0xFF AND DUP3 PUSH2 0x926 SWAP2 SWAP1 PUSH2 0x1C11 JUMP JUMPDEST SWAP1 POP DUP4 PUSH1 0x4 ADD PUSH0 SWAP1 SLOAD SWAP1 PUSH2 0x100 EXP SWAP1 DIV PUSH1 0xFF AND PUSH1 0xFF AND DUP2 LT PUSH2 0x94E JUMPI PUSH0 SWAP5 POP POP POP POP POP PUSH2 0x974 JUMP JUMPDEST DUP1 DUP5 PUSH1 0x4 ADD PUSH0 SWAP1 SLOAD SWAP1 PUSH2 0x100 EXP SWAP1 DIV PUSH1 0xFF AND PUSH1 0xFF AND PUSH2 0x96D SWAP2 SWAP1 PUSH2 0x1B81 JUMP JUMPDEST SWAP5 POP POP POP POP POP JUMPDEST SWAP2 SWAP1 POP JUMP JUMPDEST PUSH1 0x1E DUP2 JUMP JUMPDEST PUSH7 0xAA87BEE538000 DUP2 JUMP JUMPDEST PUSH1 0x1 PUSH1 0x20 MSTORE DUP2 PUSH0 MSTORE PUSH1 0x40 PUSH0 KECCAK256 DUP2 DUP2 SLOAD DUP2 LT PUSH2 0x9A2 JUMPI PUSH0 DUP1 REVERT JUMPDEST SWAP1 PUSH0 MSTORE PUSH1 0x20 PUSH0 KECCAK256 ADD PUSH0 SWAP2 POP SWAP2 POP POP SLOAD DUP2 JUMP JUMPDEST PUSH1 0x3 PUSH0 SWAP1 SLOAD SWAP1 PUSH2 0x100 EXP SWAP1 DIV PUSH20 0xFFFFFFFFFFFFFFFFFFFFFFFFFFFFFFFFFFFFFFFF AND DUP2 JUMP JUMPDEST PUSH0 PUSH1 0x20 MSTORE DUP1 PUSH0 MSTORE PUSH1 0x40 PUSH0 KECCAK256 PUSH0 SWAP2 POP SWAP1 POP DUP1 PUSH0 ADD SLOAD SWAP1 DUP1 PUSH1 0x1 ADD PUSH0 SWAP1 SLOAD SWAP1 PUSH2 0x100 EXP SWAP1 DIV PUSH20 0xFFFFFFFFFFFFFFFFFFFFFFFFFFFFFFFFFFFFFFFF AND SWAP1 DUP1 PUSH1 0x1 ADD PUSH1 0x14 SWAP1 SLOAD SWAP1 PUSH2 0x100 EXP SWAP1 DIV PUSH1 0xFF AND SWAP1 DUP1 PUSH1 0x2 ADD SLOAD SWAP1 DUP1 PUSH1 0x3 ADD SLOAD SWAP1 DUP1 PUSH1 0x4 ADD PUSH0 SWAP1 SLOAD SWAP1 PUSH2 0x100 EXP SWAP1 DIV PUSH1 0xFF AND SWAP1 DUP1 PUSH1 0x4 ADD PUSH1 0x1 SWAP1 SLOAD SWAP1 PUSH2 0x100 EXP SWAP1 DIV PUSH1 0xFF AND SWAP1 DUP1 PUSH1 0x4 ADD PUSH1 0x2 SWAP1 SLOAD SWAP1 PUSH2 0x100 EXP SWAP1 DIV PUSH1 0xFF AND SWAP1 POP DUP9 JUMP JUMPDEST PUSH0 PUSH0 PUSH0 DUP4 DUP2 MSTORE PUSH1 0x20 ADD SWAP1 DUP2 MSTORE PUSH1 0x20 ADD PUSH0 KECCAK256 SWAP1 POP DUP1 PUSH1 0x4 ADD PUSH1 0x1 SWAP1 SLOAD SWAP1 PUSH2 0x100 EXP SWAP1 DIV PUSH1 0xFF AND PUSH2 0xAD2 JUMPI PUSH1 0x40 MLOAD PUSH32 0x8C379A000000000000000000000000000000000000000000000000000000000 DUP2 MSTORE PUSH1 0x4 ADD PUSH2 0xAC9 SWAP1 PUSH2 0x1C9C JUMP JUMPDEST PUSH1 0x40 MLOAD DUP1 SWAP2 SUB SWAP1 REVERT JUMPDEST CALLER PUSH20 0xFFFFFFFFFFFFFFFFFFFFFFFFFFFFFFFFFFFFFFFF AND DUP2 PUSH1 0x1 ADD PUSH0 SWAP1 SLOAD SWAP1 PUSH2 0x100 EXP SWAP1 DIV PUSH20 0xFFFFFFFFFFFFFFFFFFFFFFFFFFFFFFFFFFFFFFFF AND PUSH20 0xFFFFFFFFFFFFFFFFFFFFFFFFFFFFFFFFFFFFFFFF AND EQ PUSH2 0xB63 JUMPI PUSH1 0x40 MLOAD PUSH32 0x8C379A000000000000000000000000000000000000000000000000000000000 DUP2 MSTORE PUSH1 0x4 ADD PUSH2 0xB5A SWAP1 PUSH2 0x1D04 JUMP JUMPDEST PUSH1 0x40 MLOAD DUP1 SWAP2 SUB SWAP1 REVERT JUMPDEST DUP1 PUSH1 0x4 ADD PUSH1 0x2 SWAP1 SLOAD SWAP1 PUSH2 0x100 EXP SWAP1 DIV PUSH1 0xFF AND ISZERO PUSH2 0xBB5 JUMPI PUSH1 0x40 MLOAD PUSH32 0x8C379A000000000000000000000000000000000000000000000000000000000 DUP2 MSTORE PUSH1 0x4 ADD PUSH2 0xBAC SWAP1 PUSH2 0x1D6C JUMP JUMPDEST PUSH1 0x40 MLOAD DUP1 SWAP2 SUB SWAP1 REVERT JUMPDEST PUSH0 PUSH1 0x64 SWAP1 POP DUP1 DUP3 PUSH1 0x4 ADD PUSH0 PUSH2 0x100 EXP DUP2 SLOAD DUP2 PUSH1 0xFF MUL NOT AND SWAP1 DUP4 PUSH1 0xFF AND MUL OR SWAP1 SSTORE POP TIMESTAMP DUP3 PUSH1 0x3 ADD DUP2 SWAP1 SSTORE POP DUP3 PUSH32 0xD4B742B9BA48FFFA1F14267075A7793851770764117C423FD0A6550DFC8CB574 DUP3 PUSH1 0x40 MLOAD PUSH2 0xC0F SWAP2 SWAP1 PUSH2 0x1706 JUMP JUMPDEST PUSH1 0x40 MLOAD DUP1 SWAP2 SUB SWAP1 LOG2 PUSH2 0xC20 DUP4 PUSH2 0xC87 JUMP JUMPDEST POP POP POP JUMP JUMPDEST PUSH1 0x2 SLOAD DUP2 JUMP JUMPDEST PUSH1 0x2 DUP2 JUMP JUMPDEST PUSH7 0x38D7EA4C68000 DUP2 JUMP JUMPDEST PUSH7 0xAA87BEE538000 CALLVALUE LT ISZERO PUSH2 0xC85 JUMPI PUSH1 0x40 MLOAD PUSH32 0x8C379A000000000000000000000000000000000000000000000000000000000 DUP2 MSTORE PUSH1 0x4 ADD PUSH2 0xC7C SWAP1 PUSH2 0x1DD4 JUMP JUMPDEST PUSH1 0x40 MLOAD DUP1 SWAP2 SUB SWAP1 REVERT JUMPDEST JUMP JUMPDEST PUSH0 PUSH0 PUSH0 DUP4 DUP2 MSTORE PUSH1 0x20 ADD SWAP1 DUP2 MSTORE PUSH1 0x20 ADD PUSH0 KECCAK256 SWAP1 POP DUP1 PUSH1 0x4 ADD PUSH1 0x1 SWAP1 SLOAD SWAP1 PUSH2 0x100 EXP SWAP1 DIV PUSH1 0xFF AND PUSH2 0xCEB JUMPI PUSH1 0x40 MLOAD PUSH32 0x8C379A000000000000000000000000000000000000000000000000000000000 DUP2 MSTORE PUSH1 0x4 ADD PUSH2 0xCE2 SWAP1 PUSH2 0x1C9C JUMP JUMPDEST PUSH1 0x40 MLOAD DUP1 SWAP2 SUB SWAP1 REVERT JUMPDEST PUSH2 0xCF4 DUP3 PUSH2 0x13E5 JUMP JUMPDEST DUP1 PUSH1 0x4 ADD PUSH1 0x2 SWAP1 SLOAD SWAP1 PUSH2 0x100 EXP SWAP1 DIV PUSH1 0xFF AND ISZERO PUSH2 0xD11 JUMPI POP PUSH2 0xF41 JUMP JUMPDEST PUSH0 DUP2 PUSH1 0x2 ADD SLOAD TIMESTAMP PUSH2 0xD22 SWAP2 SWAP1 PUSH2 0x1B81 JUMP JUMPDEST SWAP1 POP PUSH0 DUP3 PUSH1 0x1 ADD PUSH1 0x14 SWAP1 SLOAD SWAP1 PUSH2 0x100 EXP SWAP1 DIV PUSH1 0xFF AND SWAP1 POP PUSH1 0x3C DUP3 LT ISZERO DUP1 ISZERO PUSH2 0xD6D JUMPI POP PUSH0 PUSH1 0x3 DUP2 GT ISZERO PUSH2 0xD58 JUMPI PUSH2 0xD57 PUSH2 0x1785 JUMP JUMPDEST JUMPDEST DUP2 PUSH1 0x3 DUP2 GT ISZERO PUSH2 0xD6B JUMPI PUSH2 0xD6A PUSH2 0x1785 JUMP JUMPDEST JUMPDEST EQ JUMPDEST ISZERO PUSH2 0xDDD JUMPI PUSH1 0x1 DUP4 PUSH1 0x1 ADD PUSH1 0x14 PUSH2 0x100 EXP DUP2 SLOAD DUP2 PUSH1 0xFF MUL NOT AND SWAP1 DUP4 PUSH1 0x3 DUP2 GT ISZERO PUSH2 0xD9A JUMPI PUSH2 0xD99 PUSH2 0x1785 JUMP JUMPDEST JUMPDEST MUL OR SWAP1 SSTORE POP DUP4 PUSH32 0x338B8976706F9DA67298DDDFA1EA4FF7D99CCE68B9CA39C4F348994F8E2124A8 PUSH1 0x1 PUSH1 0x40 MLOAD PUSH2 0xDD0 SWAP2 SWAP1 PUSH2 0x1DF2 JUMP JUMPDEST PUSH1 0x40 MLOAD DUP1 SWAP2 SUB SWAP1 LOG2 PUSH2 0xF3D JUMP JUMPDEST PUSH1 0x2 PUSH1 0x3C PUSH2 0xDEB SWAP2 SWAP1 PUSH2 0x1C11 JUMP JUMPDEST DUP3 LT ISZERO DUP1 ISZERO PUSH2 0xE1E JUMPI POP PUSH1 0x1 PUSH1 0x3 DUP2 GT ISZERO PUSH2 0xE09 JUMPI PUSH2 0xE08 PUSH2 0x1785 JUMP JUMPDEST JUMPDEST DUP2 PUSH1 0x3 DUP2 GT ISZERO PUSH2 0xE1C JUMPI PUSH2 0xE1B PUSH2 0x1785 JUMP JUMPDEST JUMPDEST EQ JUMPDEST ISZERO PUSH2 0xE8E JUMPI PUSH1 0x2 DUP4 PUSH1 0x1 ADD PUSH1 0x14 PUSH2 0x100 EXP DUP2 SLOAD DUP2 PUSH1 0xFF MUL NOT AND SWAP1 DUP4 PUSH1 0x3 DUP2 GT ISZERO PUSH2 0xE4B JUMPI PUSH2 0xE4A PUSH2 0x1785 JUMP JUMPDEST JUMPDEST MUL OR SWAP1 SSTORE POP DUP4 PUSH32 0x338B8976706F9DA67298DDDFA1EA4FF7D99CCE68B9CA39C4F348994F8E2124A8 PUSH1 0x2 PUSH1 0x40 MLOAD PUSH2 0xE81 SWAP2 SWAP1 PUSH2 0x1DF2 JUMP JUMPDEST PUSH1 0x40 MLOAD DUP1 SWAP2 SUB SWAP1 LOG2 PUSH2 0xF3C JUMP JUMPDEST PUSH1 0x3 PUSH1 0x3C PUSH2 0xE9C SWAP2 SWAP1 PUSH2 0x1C11 JUMP JUMPDEST DUP3 LT ISZERO DUP1 ISZERO PUSH2 0xECF JUMPI POP PUSH1 0x2 PUSH1 0x3 DUP2 GT ISZERO PUSH2 0xEBA JUMPI PUSH2 0xEB9 PUSH2 0x1785 JUMP JUMPDEST JUMPDEST DUP2 PUSH1 0x3 DUP2 GT ISZERO PUSH2 0xECD JUMPI PUSH2 0xECC PUSH2 0x1785 JUMP JUMPDEST JUMPDEST EQ JUMPDEST ISZERO PUSH2 0xF3B JUMPI PUSH1 0x3 DUP4 PUSH1 0x1 ADD PUSH1 0x14 PUSH2 0x100 EXP DUP2 SLOAD DUP2 PUSH1 0xFF MUL NOT AND SWAP1 DUP4 PUSH1 0x3 DUP2 GT ISZERO PUSH2 0xEFC JUMPI PUSH2 0xEFB PUSH2 0x1785 JUMP JUMPDEST JUMPDEST MUL OR SWAP1 SSTORE POP DUP4 PUSH32 0x338B8976706F9DA67298DDDFA1EA4FF7D99CCE68B9CA39C4F348994F8E2124A8 PUSH1 0x3 PUSH1 0x40 MLOAD PUSH2 0xF32 SWAP2 SWAP1 PUSH2 0x1DF2 JUMP JUMPDEST PUSH1 0x40 MLOAD DUP1 SWAP2 SUB SWAP1 LOG2 JUMPDEST JUMPDEST JUMPDEST POP POP POP JUMPDEST POP JUMP JUMPDEST PUSH0 PUSH0 PUSH0 DUP4 DUP2 MSTORE PUSH1 0x20 ADD SWAP1 DUP2 MSTORE PUSH1 0x20 ADD PUSH0 KECCAK256 SWAP1 POP DUP1 PUSH1 0x4 ADD PUSH1 0x1 SWAP1 SLOAD SWAP1 PUSH2 0x100 EXP SWAP1 DIV PUSH1 0xFF AND PUSH2 0xFA8 JUMPI PUSH1 0x40 MLOAD PUSH32 0x8C379A000000000000000000000000000000000000000000000000000000000 DUP2 MSTORE PUSH1 0x4 ADD PUSH2 0xF9F SWAP1 PUSH2 0x1C9C JUMP JUMPDEST PUSH1 0x40 MLOAD DUP1 SWAP2 SUB SWAP1 REVERT JUMPDEST PUSH1 0x3 DUP1 DUP2 GT ISZERO PUSH2 0xFBB JUMPI PUSH2 0xFBA PUSH2 0x1785 JUMP JUMPDEST JUMPDEST DUP2 PUSH1 0x1 ADD PUSH1 0x14 SWAP1 SLOAD SWAP1 PUSH2 0x100 EXP SWAP1 DIV PUSH1 0xFF AND PUSH1 0x3 DUP2 GT ISZERO PUSH2 0xFDF JUMPI PUSH2 0xFDE PUSH2 0x1785 JUMP JUMPDEST JUMPDEST EQ PUSH2 0x101F JUMPI PUSH1 0x40 MLOAD PUSH32 0x8C379A000000000000000000000000000000000000000000000000000000000 DUP2 MSTORE PUSH1 0x4 ADD PUSH2 0x1016 SWAP1 PUSH2 0x1E55 JUMP JUMPDEST PUSH1 0x40 MLOAD DUP1 SWAP2 SUB SWAP1 REVERT JUMPDEST CALLER PUSH20 0xFFFFFFFFFFFFFFFFFFFFFFFFFFFFFFFFFFFFFFFF AND DUP2 PUSH1 0x1 ADD PUSH0 SWAP1 SLOAD SWAP1 PUSH2 0x100 EXP SWAP1 DIV PUSH20 0xFFFFFFFFFFFFFFFFFFFFFFFFFFFFFFFFFFFFFFFF AND PUSH20 0xFFFFFFFFFFFFFFFFFFFFFFFFFFFFFFFFFFFFFFFF AND EQ PUSH2 0x10B0 JUMPI PUSH1 0x40 MLOAD PUSH32 0x8C379A000000000000000000000000000000000000000000000000000000000 DUP2 MSTORE PUSH1 0x4 ADD PUSH2 0x10A7 SWAP1 PUSH2 0x1EBD JUMP JUMPDEST PUSH1 0x40 MLOAD DUP1 SWAP2 SUB SWAP1 REVERT JUMPDEST PUSH2 0x10B9 DUP3 PUSH2 0xC87 JUMP JUMPDEST PUSH1 0x3 DUP1 DUP2 GT ISZERO PUSH2 0x10CC JUMPI PUSH2 0x10CB PUSH2 0x1785 JUMP JUMPDEST JUMPDEST DUP2 PUSH1 0x1 ADD PUSH1 0x14 SWAP1 SLOAD SWAP1 PUSH2 0x100 EXP SWAP1 DIV PUSH1 0xFF AND PUSH1 0x3 DUP2 GT ISZERO PUSH2 0x10F0 JUMPI PUSH2 0x10EF PUSH2 0x1785 JUMP JUMPDEST JUMPDEST EQ PUSH2 0x1130 JUMPI PUSH1 0x40 MLOAD PUSH32 0x8C379A000000000000000000000000000000000000000000000000000000000 DUP2 MSTORE PUSH1 0x4 ADD PUSH2 0x1127 SWAP1 PUSH2 0x1E55 JUMP JUMPDEST PUSH1 0x40 MLOAD DUP1 SWAP2 SUB SWAP1 REVERT JUMPDEST PUSH0 DUP2 PUSH1 0x4 ADD PUSH1 0x1 PUSH2 0x100 EXP DUP2 SLOAD DUP2 PUSH1 0xFF MUL NOT AND SWAP1 DUP4 ISZERO ISZERO MUL OR SWAP1 SSTORE POP DUP1 PUSH1 0x1 ADD PUSH0 SWAP1 SLOAD SWAP1 PUSH2 0x100 EXP SWAP1 DIV PUSH20 0xFFFFFFFFFFFFFFFFFFFFFFFFFFFFFFFFFFFFFFFF AND PUSH20 0xFFFFFFFFFFFFFFFFFFFFFFFFFFFFFFFFFFFFFFFF AND DUP3 PUSH32 0x79F2138EA100070FF95B59C265DA7AA3C7A0F61595FE1BB2F5FDA2762F398847 PUSH7 0xAA87BEE538000 PUSH1 0x40 MLOAD PUSH2 0x11BD SWAP2 SWAP1 PUSH2 0x167D JUMP JUMPDEST PUSH1 0x40 MLOAD DUP1 SWAP2 SUB SWAP1 LOG3 PUSH0 DUP2 PUSH1 0x1 ADD PUSH0 SWAP1 SLOAD SWAP1 PUSH2 0x100 EXP SWAP1 DIV PUSH20 0xFFFFFFFFFFFFFFFFFFFFFFFFFFFFFFFFFFFFFFFF AND PUSH20 0xFFFFFFFFFFFFFFFFFFFFFFFFFFFFFFFFFFFFFFFF AND PUSH7 0xAA87BEE538000 PUSH1 0x40 MLOAD PUSH2 0x1214 SWAP1 PUSH2 0x1A29 JUMP JUMPDEST PUSH0 PUSH1 0x40 MLOAD DUP1 DUP4 SUB DUP2 DUP6 DUP8 GAS CALL SWAP3 POP POP POP RETURNDATASIZE DUP1 PUSH0 DUP2 EQ PUSH2 0x124E JUMPI PUSH1 0x40 MLOAD SWAP2 POP PUSH1 0x1F NOT PUSH1 0x3F RETURNDATASIZE ADD AND DUP3 ADD PUSH1 0x40 MSTORE RETURNDATASIZE DUP3 MSTORE RETURNDATASIZE PUSH0 PUSH1 0x20 DUP5 ADD RETURNDATACOPY PUSH2 0x1253 JUMP JUMPDEST PUSH1 0x60 SWAP2 POP JUMPDEST POP POP SWAP1 POP DUP1 PUSH2 0x1297 JUMPI PUSH1 0x40 MLOAD PUSH32 0x8C379A000000000000000000000000000000000000000000000000000000000 DUP2 MSTORE PUSH1 0x4 ADD PUSH2 0x128E SWAP1 PUSH2 0x1A87 JUMP JUMPDEST PUSH1 0x40 MLOAD DUP1 SWAP2 SUB SWAP1 REVERT JUMPDEST POP POP POP JUMP JUMPDEST PUSH2 0x12A4 PUSH2 0x1499 JUMP JUMPDEST PUSH0 PUSH0 PUSH0 DUP5 DUP2 MSTORE PUSH1 0x20 ADD SWAP1 DUP2 MSTORE PUSH1 0x20 ADD PUSH0 KECCAK256 PUSH1 0x40 MLOAD DUP1 PUSH2 0x100 ADD PUSH1 0x40 MSTORE SWAP1 DUP2 PUSH0 DUP3 ADD SLOAD DUP2 MSTORE PUSH1 0x20 ADD PUSH1 0x1 DUP3 ADD PUSH0 SWAP1 SLOAD SWAP1 PUSH2 0x100 EXP SWAP1 DIV PUSH20 0xFFFFFFFFFFFFFFFFFFFFFFFFFFFFFFFFFFFFFFFF AND PUSH20 0xFFFFFFFFFFFFFFFFFFFFFFFFFFFFFFFFFFFFFFFF AND PUSH20 0xFFFFFFFFFFFFFFFFFFFFFFFFFFFFFFFFFFFFFFFF AND DUP2 MSTORE PUSH1 0x20 ADD PUSH1 0x1 DUP3 ADD PUSH1 0x14 SWAP1 SLOAD SWAP1 PUSH2 0x100 EXP SWAP1 DIV PUSH1 0xFF AND PUSH1 0x3 DUP2 GT ISZERO PUSH2 0x1344 JUMPI PUSH2 0x1343 PUSH2 0x1785 JUMP JUMPDEST JUMPDEST PUSH1 0x3 DUP2 GT ISZERO PUSH2 0x1356 JUMPI PUSH2 0x1355 PUSH2 0x1785 JUMP JUMPDEST JUMPDEST DUP2 MSTORE PUSH1 0x20 ADD PUSH1 0x2 DUP3 ADD SLOAD DUP2 MSTORE PUSH1 0x20 ADD PUSH1 0x3 DUP3 ADD SLOAD DUP2 MSTORE PUSH1 0x20 ADD PUSH1 0x4 DUP3 ADD PUSH0 SWAP1 SLOAD SWAP1 PUSH2 0x100 EXP SWAP1 DIV PUSH1 0xFF AND PUSH1 0xFF AND PUSH1 0xFF AND DUP2 MSTORE PUSH1 0x20 ADD PUSH1 0x4 DUP3 ADD PUSH1 0x1 SWAP1 SLOAD SWAP1 PUSH2 0x100 EXP SWAP1 DIV PUSH1 0xFF AND ISZERO ISZERO ISZERO ISZERO DUP2 MSTORE PUSH1 0x20 ADD PUSH1 0x4 DUP3 ADD PUSH1 0x2 SWAP1 SLOAD SWAP1 PUSH2 0x100 EXP SWAP1 DIV PUSH1 0xFF AND ISZERO ISZERO ISZERO ISZERO DUP2 MSTORE POP POP SWAP1 POP PUSH2 0x13CB DUP4 PUSH2 0x8A4 JUMP JUMPDEST DUP2 PUSH1 0xA0 ADD SWAP1 PUSH1 0xFF AND SWAP1 DUP2 PUSH1 0xFF AND DUP2 MSTORE POP POP DUP1 SWAP2 POP POP SWAP2 SWAP1 POP JUMP JUMPDEST PUSH0 PUSH0 PUSH0 DUP4 DUP2 MSTORE PUSH1 0x20 ADD SWAP1 DUP2 MSTORE PUSH1 0x20 ADD PUSH0 KECCAK256 SWAP1 POP PUSH0 PUSH2 0x1405 DUP3 PUSH0 ADD SLOAD PUSH2 0x8A4 JUMP JUMPDEST PUSH1 0xFF AND SWAP1 POP DUP1 DUP3 PUSH1 0x4 ADD PUSH0 PUSH2 0x100 EXP DUP2 SLOAD DUP2 PUSH1 0xFF MUL NOT AND SWAP1 DUP4 PUSH1 0xFF AND MUL OR SWAP1 SSTORE POP PUSH0 DUP2 EQ DUP1 ISZERO PUSH2 0x1444 JUMPI POP DUP2 PUSH1 0x4 ADD PUSH1 0x2 SWAP1 SLOAD SWAP1 PUSH2 0x100 EXP SWAP1 DIV PUSH1 0xFF AND ISZERO JUMPDEST ISZERO PUSH2 0x1494 JUMPI PUSH1 0x1 DUP3 PUSH1 0x4 ADD PUSH1 0x2 PUSH2 0x100 EXP DUP2 SLOAD DUP2 PUSH1 0xFF MUL NOT AND SWAP1 DUP4 ISZERO ISZERO MUL OR SWAP1 SSTORE POP DUP3 PUSH32 0xCC296A21951F3E57F21AFB08547D835A0A9F0F06CC2867009CBE0CAE44D36BE9 PUSH1 0x40 MLOAD PUSH1 0x40 MLOAD DUP1 SWAP2 SUB SWAP1 LOG2 JUMPDEST POP POP POP JUMP JUMPDEST PUSH1 0x40 MLOAD DUP1 PUSH2 0x100 ADD PUSH1 0x40 MSTORE DUP1 PUSH0 DUP2 MSTORE PUSH1 0x20 ADD PUSH0 PUSH20 0xFFFFFFFFFFFFFFFFFFFFFFFFFFFFFFFFFFFFFFFF AND DUP2 MSTORE PUSH1 0x20 ADD PUSH0 PUSH1 0x3 DUP2 GT ISZERO PUSH2 0x14DA JUMPI PUSH2 0x14D9 PUSH2 0x1785 JUMP JUMPDEST JUMPDEST DUP2 MSTORE PUSH1 0x20 ADD PUSH0 DUP2 MSTORE PUSH1 0x20 ADD PUSH0 DUP2 MSTORE PUSH1 0x20 ADD PUSH0 PUSH1 0xFF AND DUP2 MSTORE PUSH1 0x20 ADD PUSH0 ISZERO ISZERO DUP2 MSTORE PUSH1 0x20 ADD PUSH0 ISZERO ISZERO DUP2 MSTORE POP SWAP1 JUMP JUMPDEST PUSH0 PUSH0 REVERT JUMPDEST PUSH0 PUSH20 0xFFFFFFFFFFFFFFFFFFFFFFFFFFFFFFFFFFFFFFFF DUP3 AND SWAP1 POP SWAP2 SWAP1 POP JUMP JUMPDEST PUSH0 PUSH2 0x1532 DUP3 PUSH2 0x1509 JUMP JUMPDEST SWAP1 POP SWAP2 SWAP1 POP JUMP JUMPDEST PUSH2 0x1542 DUP2 PUSH2 0x1528 JUMP JUMPDEST DUP2 EQ PUSH2 0x154C JUMPI PUSH0 PUSH0 REVERT JUMPDEST POP JUMP JUMPDEST PUSH0 DUP2 CALLDATALOAD SWAP1 POP PUSH2 0x155D DUP2 PUSH2 0x1539 JUMP JUMPDEST SWAP3 SWAP2 POP POP JUMP JUMPDEST PUSH0 PUSH1 0x20 DUP3 DUP5 SUB SLT ISZERO PUSH2 0x1578 JUMPI PUSH2 0x1577 PUSH2 0x1505 JUMP JUMPDEST JUMPDEST PUSH0 PUSH2 0x1585 DUP5 DUP3 DUP6 ADD PUSH2 0x154F JUMP JUMPDEST SWAP2 POP POP SWAP3 SWAP2 POP POP JUMP JUMPDEST PUSH0 DUP2 MLOAD SWAP1 POP SWAP2 SWAP1 POP JUMP JUMPDEST PUSH0 DUP3 DUP3 MSTORE PUSH1 0x20 DUP3 ADD SWAP1 POP SWAP3 SWAP2 POP POP JUMP JUMPDEST PUSH0 DUP2 SWAP1 POP PUSH1 0x20 DUP3 ADD SWAP1 POP SWAP2 SWAP1 POP JUMP JUMPDEST PUSH0 DUP2 SWAP1 POP SWAP2 SWAP1 POP JUMP JUMPDEST PUSH2 0x15C9 DUP2 PUSH2 0x15B7 JUMP JUMPDEST DUP3 MSTORE POP POP JUMP JUMPDEST PUSH0 PUSH2 0x15DA DUP4 DUP4 PUSH2 0x15C0 JUMP JUMPDEST PUSH1 0x20 DUP4 ADD SWAP1 POP SWAP3 SWAP2 POP POP JUMP JUMPDEST PUSH0 PUSH1 0x20 DUP3 ADD SWAP1 POP SWAP2 SWAP1 POP JUMP JUMPDEST PUSH0 PUSH2 0x15FC DUP3 PUSH2 0x158E JUMP JUMPDEST PUSH2 0x1606 DUP2 DUP6 PUSH2 0x1598 JUMP JUMPDEST SWAP4 POP PUSH2 0x1611 DUP4 PUSH2 0x15A8 JUMP JUMPDEST DUP1 PUSH0 JUMPDEST DUP4 DUP2 LT ISZERO PUSH2 0x1641 JUMPI DUP2 MLOAD PUSH2 0x1628 DUP9 DUP3 PUSH2 0x15CF JUMP JUMPDEST SWAP8 POP PUSH2 0x1633 DUP4 PUSH2 0x15E6 JUMP JUMPDEST SWAP3 POP POP PUSH1 0x1 DUP2 ADD SWAP1 POP PUSH2 0x1614 JUMP JUMPDEST POP DUP6 SWAP4 POP POP POP POP SWAP3 SWAP2 POP POP JUMP JUMPDEST PUSH0 PUSH1 0x20 DUP3 ADD SWAP1 POP DUP2 DUP2 SUB PUSH0 DUP4 ADD MSTORE PUSH2 0x1666 DUP2 DUP5 PUSH2 0x15F2 JUMP JUMPDEST SWAP1 POP SWAP3 SWAP2 POP POP JUMP JUMPDEST PUSH2 0x1677 DUP2 PUSH2 0x15B7 JUMP JUMPDEST DUP3 MSTORE POP POP JUMP JUMPDEST PUSH0 PUSH1 0x20 DUP3 ADD SWAP1 POP PUSH2 0x1690 PUSH0 DUP4 ADD DUP5 PUSH2 0x166E JUMP JUMPDEST SWAP3 SWAP2 POP POP JUMP JUMPDEST PUSH2 0x169F DUP2 PUSH2 0x15B7 JUMP JUMPDEST DUP2 EQ PUSH2 0x16A9 JUMPI PUSH0 PUSH0 REVERT JUMPDEST POP JUMP JUMPDEST PUSH0 DUP2 CALLDATALOAD SWAP1 POP PUSH2 0x16BA DUP2 PUSH2 0x1696 JUMP JUMPDEST SWAP3 SWAP2 POP POP JUMP JUMPDEST PUSH0 PUSH1 0x20 DUP3 DUP5 SUB SLT ISZERO PUSH2 0x16D5 JUMPI PUSH2 0x16D4 PUSH2 0x1505 JUMP JUMPDEST JUMPDEST PUSH0 PUSH2 0x16E2 DUP5 DUP3 DUP6 ADD PUSH2 0x16AC JUMP JUMPDEST SWAP2 POP POP SWAP3 SWAP2 POP POP JUMP JUMPDEST PUSH0 PUSH1 0xFF DUP3 AND SWAP1 POP SWAP2 SWAP1 POP JUMP JUMPDEST PUSH2 0x1700 DUP2 PUSH2 0x16EB JUMP JUMPDEST DUP3 MSTORE POP POP JUMP JUMPDEST PUSH0 PUSH1 0x20 DUP3 ADD SWAP1 POP PUSH2 0x1719 PUSH0 DUP4 ADD DUP5 PUSH2 0x16F7 JUMP JUMPDEST SWAP3 SWAP2 POP POP JUMP JUMPDEST PUSH0 PUSH0 PUSH1 0x40 DUP4 DUP6 SUB SLT ISZERO PUSH2 0x1735 JUMPI PUSH2 0x1734 PUSH2 0x1505 JUMP JUMPDEST JUMPDEST PUSH0 PUSH2 0x1742 DUP6 DUP3 DUP7 ADD PUSH2 0x154F JUMP JUMPDEST SWAP3 POP POP PUSH1 0x20 PUSH2 0x1753 DUP6 DUP3 DUP7 ADD PUSH2 0x16AC JUMP JUMPDEST SWAP2 POP POP SWAP3 POP SWAP3 SWAP1 POP JUMP JUMPDEST PUSH2 0x1766 DUP2 PUSH2 0x1528 JUMP JUMPDEST DUP3 MSTORE POP POP JUMP JUMPDEST PUSH0 PUSH1 0x20 DUP3 ADD SWAP1 POP PUSH2 0x177F PUSH0 DUP4 ADD DUP5 PUSH2 0x175D JUMP JUMPDEST SWAP3 SWAP2 POP POP JUMP JUMPDEST PUSH32 0x4E487B7100000000000000000000000000000000000000000000000000000000 PUSH0 MSTORE PUSH1 0x21 PUSH1 0x4 MSTORE PUSH1 0x24 PUSH0 REVERT JUMPDEST PUSH1 0x4 DUP2 LT PUSH2 0x17C3 JUMPI PUSH2 0x17C2 PUSH2 0x1785 JUMP JUMPDEST JUMPDEST POP JUMP JUMPDEST PUSH0 DUP2 SWAP1 POP PUSH2 0x17D3 DUP3 PUSH2 0x17B2 JUMP JUMPDEST SWAP2 SWAP1 POP JUMP JUMPDEST PUSH0 PUSH2 0x17E2 DUP3 PUSH2 0x17C6 JUMP JUMPDEST SWAP1 POP SWAP2 SWAP1 POP JUMP JUMPDEST PUSH2 0x17F2 DUP2 PUSH2 0x17D8 JUMP JUMPDEST DUP3 MSTORE POP POP JUMP JUMPDEST PUSH0 DUP2 ISZERO ISZERO SWAP1 POP SWAP2 SWAP1 POP JUMP JUMPDEST PUSH2 0x180C DUP2 PUSH2 0x17F8 JUMP JUMPDEST DUP3 MSTORE POP POP JUMP JUMPDEST PUSH0 PUSH2 0x100 DUP3 ADD SWAP1 POP PUSH2 0x1826 PUSH0 DUP4 ADD DUP12 PUSH2 0x166E JUMP JUMPDEST PUSH2 0x1833 PUSH1 0x20 DUP4 ADD DUP11 PUSH2 0x175D JUMP JUMPDEST PUSH2 0x1840 PUSH1 0x40 DUP4 ADD DUP10 PUSH2 0x17E9 JUMP JUMPDEST PUSH2 0x184D PUSH1 0x60 DUP4 ADD DUP9 PUSH2 0x166E JUMP JUMPDEST PUSH2 0x185A PUSH1 0x80 DUP4 ADD DUP8 PUSH2 0x166E JUMP JUMPDEST PUSH2 0x1867 PUSH1 0xA0 DUP4 ADD DUP7 PUSH2 0x16F7 JUMP JUMPDEST PUSH2 0x1874 PUSH1 0xC0 DUP4 ADD DUP6 PUSH2 0x1803 JUMP JUMPDEST PUSH2 0x1881 PUSH1 0xE0 DUP4 ADD DUP5 PUSH2 0x1803 JUMP JUMPDEST SWAP10 SWAP9 POP POP POP POP POP POP POP POP POP JUMP JUMPDEST PUSH2 0x1897 DUP2 PUSH2 0x1528 JUMP JUMPDEST DUP3 MSTORE POP POP JUMP JUMPDEST PUSH2 0x18A6 DUP2 PUSH2 0x17D8 JUMP JUMPDEST DUP3 MSTORE POP POP JUMP JUMPDEST PUSH2 0x18B5 DUP2 PUSH2 0x16EB JUMP JUMPDEST DUP3 MSTORE POP POP JUMP JUMPDEST PUSH2 0x18C4 DUP2 PUSH2 0x17F8 JUMP JUMPDEST DUP3 MSTORE POP POP JUMP JUMPDEST PUSH2 0x100 DUP3 ADD PUSH0 DUP3 ADD MLOAD PUSH2 0x18DF PUSH0 DUP6 ADD DUP3 PUSH2 0x15C0 JUMP JUMPDEST POP PUSH1 0x20 DUP3 ADD MLOAD PUSH2 0x18F2 PUSH1 0x20 DUP6 ADD DUP3 PUSH2 0x188E JUMP JUMPDEST POP PUSH1 0x40 DUP3 ADD MLOAD PUSH2 0x1905 PUSH1 0x40 DUP6 ADD DUP3 PUSH2 0x189D JUMP JUMPDEST POP PUSH1 0x60 DUP3 ADD MLOAD PUSH2 0x1918 PUSH1 0x60 DUP6 ADD DUP3 PUSH2 0x15C0 JUMP JUMPDEST POP PUSH1 0x80 DUP3 ADD MLOAD PUSH2 0x192B PUSH1 0x80 DUP6 ADD DUP3 PUSH2 0x15C0 JUMP JUMPDEST POP PUSH1 0xA0 DUP3 ADD MLOAD PUSH2 0x193E PUSH1 0xA0 DUP6 ADD DUP3 PUSH2 0x18AC JUMP JUMPDEST POP PUSH1 0xC0 DUP3 ADD MLOAD PUSH2 0x1951 PUSH1 0xC0 DUP6 ADD DUP3 PUSH2 0x18BB JUMP JUMPDEST POP PUSH1 0xE0 DUP3 ADD MLOAD PUSH2 0x1964 PUSH1 0xE0 DUP6 ADD DUP3 PUSH2 0x18BB JUMP JUMPDEST POP POP POP POP JUMP JUMPDEST PUSH0 PUSH2 0x100 DUP3 ADD SWAP1 POP PUSH2 0x197E PUSH0 DUP4 ADD DUP5 PUSH2 0x18CA JUMP JUMPDEST SWAP3 SWAP2 POP POP JUMP JUMPDEST PUSH0 DUP3 DUP3 MSTORE PUSH1 0x20 DUP3 ADD SWAP1 POP SWAP3 SWAP2 POP POP JUMP JUMPDEST PUSH32 0x42756B616E206F776E6572000000000000000000000000000000000000000000 PUSH0 DUP3 ADD MSTORE POP JUMP JUMPDEST PUSH0 PUSH2 0x19C8 PUSH1 0xB DUP4 PUSH2 0x1984 JUMP JUMPDEST SWAP2 POP PUSH2 0x19D3 DUP3 PUSH2 0x1994 JUMP JUMPDEST PUSH1 0x20 DUP3 ADD SWAP1 POP SWAP2 SWAP1 POP JUMP JUMPDEST PUSH0 PUSH1 0x20 DUP3 ADD SWAP1 POP DUP2 DUP2 SUB PUSH0 DUP4 ADD MSTORE PUSH2 0x19F5 DUP2 PUSH2 0x19BC JUMP JUMPDEST SWAP1 POP SWAP2 SWAP1 POP JUMP JUMPDEST PUSH0 DUP2 SWAP1 POP SWAP3 SWAP2 POP POP JUMP JUMPDEST POP JUMP JUMPDEST PUSH0 PUSH2 0x1A14 PUSH0 DUP4 PUSH2 0x19FC JUMP JUMPDEST SWAP2 POP PUSH2 0x1A1F DUP3 PUSH2 0x1A06 JUMP JUMPDEST PUSH0 DUP3 ADD SWAP1 POP SWAP2 SWAP1 POP JUMP JUMPDEST PUSH0 PUSH2 0x1A33 DUP3 PUSH2 0x1A09 JUMP JUMPDEST SWAP2 POP DUP2 SWAP1 POP SWAP2 SWAP1 POP JUMP JUMPDEST PUSH32 0x5472616E7366657220676167616C000000000000000000000000000000000000 PUSH0 DUP3 ADD MSTORE POP JUMP JUMPDEST PUSH0 PUSH2 0x1A71 PUSH1 0xE DUP4 PUSH2 0x1984 JUMP JUMPDEST SWAP2 POP PUSH2 0x1A7C DUP3 PUSH2 0x1A3D JUMP JUMPDEST PUSH1 0x20 DUP3 ADD SWAP1 POP SWAP2 SWAP1 POP JUMP JUMPDEST PUSH0 PUSH1 0x20 DUP3 ADD SWAP1 POP DUP2 DUP2 SUB PUSH0 DUP4 ADD MSTORE PUSH2 0x1A9E DUP2 PUSH2 0x1A65 JUMP JUMPDEST SWAP1 POP SWAP2 SWAP1 POP JUMP JUMPDEST PUSH32 0x5065726C7520302E303031204554480000000000000000000000000000000000 PUSH0 DUP3 ADD MSTORE POP JUMP JUMPDEST PUSH0 PUSH2 0x1AD9 PUSH1 0xF DUP4 PUSH2 0x1984 JUMP JUMPDEST SWAP2 POP PUSH2 0x1AE4 DUP3 PUSH2 0x1AA5 JUMP JUMPDEST PUSH1 0x20 DUP3 ADD SWAP1 POP SWAP2 SWAP1 POP JUMP JUMPDEST PUSH0 PUSH1 0x20 DUP3 ADD SWAP1 POP DUP2 DUP2 SUB PUSH0 DUP4 ADD MSTORE PUSH2 0x1B06 DUP2 PUSH2 0x1ACD JUMP JUMPDEST SWAP1 POP SWAP2 SWAP1 POP JUMP JUMPDEST PUSH32 0x4E487B7100000000000000000000000000000000000000000000000000000000 PUSH0 MSTORE PUSH1 0x11 PUSH1 0x4 MSTORE PUSH1 0x24 PUSH0 REVERT JUMPDEST PUSH0 PUSH2 0x1B44 DUP3 PUSH2 0x15B7 JUMP JUMPDEST SWAP2 POP PUSH32 0xFFFFFFFFFFFFFFFFFFFFFFFFFFFFFFFFFFFFFFFFFFFFFFFFFFFFFFFFFFFFFFFF DUP3 SUB PUSH2 0x1B76 JUMPI PUSH2 0x1B75 PUSH2 0x1B0D JUMP JUMPDEST JUMPDEST PUSH1 0x1 DUP3 ADD SWAP1 POP SWAP2 SWAP1 POP JUMP JUMPDEST PUSH0 PUSH2 0x1B8B DUP3 PUSH2 0x15B7 JUMP JUMPDEST SWAP2 POP PUSH2 0x1B96 DUP4 PUSH2 0x15B7 JUMP JUMPDEST SWAP3 POP DUP3 DUP3 SUB SWAP1 POP DUP2 DUP2 GT ISZERO PUSH2 0x1BAE JUMPI PUSH2 0x1BAD PUSH2 0x1B0D JUMP JUMPDEST JUMPDEST SWAP3 SWAP2 POP POP JUMP JUMPDEST PUSH32 0x4E487B7100000000000000000000000000000000000000000000000000000000 PUSH0 MSTORE PUSH1 0x12 PUSH1 0x4 MSTORE PUSH1 0x24 PUSH0 REVERT JUMPDEST PUSH0 PUSH2 0x1BEB DUP3 PUSH2 0x15B7 JUMP JUMPDEST SWAP2 POP PUSH2 0x1BF6 DUP4 PUSH2 0x15B7 JUMP JUMPDEST SWAP3 POP DUP3 PUSH2 0x1C06 JUMPI PUSH2 0x1C05 PUSH2 0x1BB4 JUMP JUMPDEST JUMPDEST DUP3 DUP3 DIV SWAP1 POP SWAP3 SWAP2 POP POP JUMP JUMPDEST PUSH0 PUSH2 0x1C1B DUP3 PUSH2 0x15B7 JUMP JUMPDEST SWAP2 POP PUSH2 0x1C26 DUP4 PUSH2 0x15B7 JUMP JUMPDEST SWAP3 POP DUP3 DUP3 MUL PUSH2 0x1C34 DUP2 PUSH2 0x15B7 JUMP JUMPDEST SWAP2 POP DUP3 DUP3 DIV DUP5 EQ DUP4 ISZERO OR PUSH2 0x1C4B JUMPI PUSH2 0x1C4A PUSH2 0x1B0D JUMP JUMPDEST JUMPDEST POP SWAP3 SWAP2 POP POP JUMP JUMPDEST PUSH32 0x506C616E74206E6F742045786973740000000000000000000000000000000000 PUSH0 DUP3 ADD MSTORE POP JUMP JUMPDEST PUSH0 PUSH2 0x1C86 PUSH1 0xF DUP4 PUSH2 0x1984 JUMP JUMPDEST SWAP2 POP PUSH2 0x1C91 DUP3 PUSH2 0x1C52 JUMP JUMPDEST PUSH1 0x20 DUP3 ADD SWAP1 POP SWAP2 SWAP1 POP JUMP JUMPDEST PUSH0 PUSH1 0x20 DUP3 ADD SWAP1 POP DUP2 DUP2 SUB PUSH0 DUP4 ADD MSTORE PUSH2 0x1CB3 DUP2 PUSH2 0x1C7A JUMP JUMPDEST SWAP1 POP SWAP2 SWAP1 POP JUMP JUMPDEST PUSH32 0x596F7520617265206E6F7420746865206F776E65720000000000000000000000 PUSH0 DUP3 ADD MSTORE POP JUMP JUMPDEST PUSH0 PUSH2 0x1CEE PUSH1 0x15 DUP4 PUSH2 0x1984 JUMP JUMPDEST SWAP2 POP PUSH2 0x1CF9 DUP3 PUSH2 0x1CBA JUMP JUMPDEST PUSH1 0x20 DUP3 ADD SWAP1 POP SWAP2 SWAP1 POP JUMP JUMPDEST PUSH0 PUSH1 0x20 DUP3 ADD SWAP1 POP DUP2 DUP2 SUB PUSH0 DUP4 ADD MSTORE PUSH2 0x1D1B DUP2 PUSH2 0x1CE2 JUMP JUMPDEST SWAP1 POP SWAP2 SWAP1 POP JUMP JUMPDEST PUSH32 0x506C616E74206973206465616400000000000000000000000000000000000000 PUSH0 DUP3 ADD MSTORE POP JUMP JUMPDEST PUSH0 PUSH2 0x1D56 PUSH1 0xD DUP4 PUSH2 0x1984 JUMP JUMPDEST SWAP2 POP PUSH2 0x1D61 DUP3 PUSH2 0x1D22 JUMP JUMPDEST PUSH1 0x20 DUP3 ADD SWAP1 POP SWAP2 SWAP1 POP JUMP JUMPDEST PUSH0 PUSH1 0x20 DUP3 ADD SWAP1 POP DUP2 DUP2 SUB PUSH0 DUP4 ADD MSTORE PUSH2 0x1D83 DUP2 PUSH2 0x1D4A JUMP JUMPDEST SWAP1 POP SWAP2 SWAP1 POP JUMP JUMPDEST PUSH32 0x5065726C7520302E303033204554480000000000000000000000000000000000 PUSH0 DUP3 ADD MSTORE POP JUMP JUMPDEST PUSH0 PUSH2 0x1DBE PUSH1 0xF DUP4 PUSH2 0x1984 JUMP JUMPDEST SWAP2 POP PUSH2 0x1DC9 DUP3 PUSH2 0x1D8A JUMP JUMPDEST PUSH1 0x20 DUP3 ADD SWAP1 POP SWAP2 SWAP1 POP JUMP JUMPDEST PUSH0 PUSH1 0x20 DUP3 ADD SWAP1 POP DUP2 DUP2 SUB PUSH0 DUP4 ADD MSTORE PUSH2 0x1DEB DUP2 PUSH2 0x1DB2 JUMP JUMPDEST SWAP1 POP SWAP2 SWAP1 POP JUMP JUMPDEST PUSH0 PUSH1 0x20 DUP3 ADD SWAP1 POP PUSH2 0x1E05 PUSH0 DUP4 ADD DUP5 PUSH2 0x17E9 JUMP JUMPDEST SWAP3 SWAP2 POP POP JUMP JUMPDEST PUSH32 0x506C616E74206E6F7420726561647920746F2068617276657374000000000000 PUSH0 DUP3 ADD MSTORE POP JUMP JUMPDEST PUSH0 PUSH2 0x1E3F PUSH1 0x1A DUP4 PUSH2 0x1984 JUMP JUMPDEST SWAP2 POP PUSH2 0x1E4A DUP3 PUSH2 0x1E0B JUMP JUMPDEST PUSH1 0x20 DUP3 ADD SWAP1 POP SWAP2 SWAP1 POP JUMP JUMPDEST PUSH0 PUSH1 0x20 DUP3 ADD SWAP1 POP DUP2 DUP2 SUB PUSH0 DUP4 ADD MSTORE PUSH2 0x1E6C DUP2 PUSH2 0x1E33 JUMP JUMPDEST SWAP1 POP SWAP2 SWAP1 POP JUMP JUMPDEST PUSH32 0x4F6E6C7920746865206F776E65722063616E2068617276657374000000000000 PUSH0 DUP3 ADD MSTORE POP JUMP JUMPDEST PUSH0 PUSH2 0x1EA7 PUSH1 0x1A DUP4 PUSH2 0x1984 JUMP JUMPDEST SWAP2 POP PUSH2 0x1EB2 DUP3 PUSH2 0x1E73 JUMP JUMPDEST PUSH1 0x20 DUP3 ADD SWAP1 POP SWAP2 SWAP1 POP JUMP JUMPDEST PUSH0 PUSH1 0x20 DUP3 ADD SWAP1 POP DUP2 DUP2 SUB PUSH0 DUP4 ADD MSTORE PUSH2 0x1ED4 DUP2 PUSH2 0x1E9B JUMP JUMPDEST SWAP1 POP SWAP2 SWAP1 POP JUMP INVALID LOG2 PUSH5 0x6970667358 0x22 SLT KECCAK256 SWAP3 ADDMOD 0xCD LOG1 0x4E EXP DUP5 0xAD 0xAB 0x2B PUSH27 0x4B9B39CC6DE83C42B9582B44AD4BCFD0D4DC98BEE64736F6C6343 STOP ADDMOD 0x1E STOP CALLER "
				},
				"gasEstimates": {
					"creation": {
						"codeDepositCost": "1590600",
						"executionCost": "25929",
						"totalCost": "1616529"
					},
					"external": {
						"HARVEST_REWARD()": "392",
						"PLANT_PRICE()": "347",
						"STAGE_DURATION()": "393",
						"WATER_DEPLETION_RATE()": "420",
						"WATER_DEPLETION_TIME()": "370",
						"calculateWaterLevel(uint256)": "infinite",
						"deposit()": "472",
						"getPlant(uint256)": "infinite",
						"getUserPlants(address)": "infinite",
						"harvestPlant(uint256)": "infinite",
						"owner()": "2619",
						"plantCounter()": "2492",
						"plantSeed()": "infinite",
						"plants(uint256)": "infinite",
						"updatePlantStage(uint256)": "infinite",
						"userPlants(address,uint256)": "infinite",
						"waterPlant(uint256)": "infinite",
						"withdraw()": "infinite"
					},
					"internal": {
						"updateWaterLevel(uint256)": "infinite"
					}
				},
				"methodIdentifiers": {
					"HARVEST_REWARD()": "891c0785",
					"PLANT_PRICE()": "cfc9a5f8",
					"STAGE_DURATION()": "51f9efde",
					"WATER_DEPLETION_RATE()": "bacb5ebd",
					"WATER_DEPLETION_TIME()": "7ed4c5be",
					"calculateWaterLevel(uint256)": "754e150d",
					"deposit()": "d0e30db0",
					"getPlant(uint256)": "ed0b1f5f",
					"getUserPlants(address)": "30cec0eb",
					"harvestPlant(uint256)": "e38f8448",
					"owner()": "8da5cb5b",
					"plantCounter()": "9c471749",
					"plantSeed()": "74119a38",
					"plants(uint256)": "8dd2361c",
					"updatePlantStage(uint256)": "ddd42596",
					"userPlants(address,uint256)": "8aee578b",
					"waterPlant(uint256)": "9886bcfa",
					"withdraw()": "3ccfd60b"
				}
			},
			"storageLayout": {
				"storage": [
					{
						"astId": 29,
						"contract": "contracts/LiskGarden.sol:LiskGarden",
						"label": "plants",
						"offset": 0,
						"slot": "0",
						"type": "t_mapping(t_uint256,t_struct(Plant)24_storage)"
					},
					{
						"astId": 34,
						"contract": "contracts/LiskGarden.sol:LiskGarden",
						"label": "userPlants",
						"offset": 0,
						"slot": "1",
						"type": "t_mapping(t_address,t_array(t_uint256)dyn_storage)"
					},
					{
						"astId": 36,
						"contract": "contracts/LiskGarden.sol:LiskGarden",
						"label": "plantCounter",
						"offset": 0,
						"slot": "2",
						"type": "t_uint256"
					},
					{
						"astId": 38,
						"contract": "contracts/LiskGarden.sol:LiskGarden",
						"label": "owner",
						"offset": 0,
						"slot": "3",
						"type": "t_address"
					}
				],
				"types": {
					"t_address": {
						"encoding": "inplace",
						"label": "address",
						"numberOfBytes": "20"
					},
					"t_array(t_uint256)dyn_storage": {
						"base": "t_uint256",
						"encoding": "dynamic_array",
						"label": "uint256[]",
						"numberOfBytes": "32"
					},
					"t_bool": {
						"encoding": "inplace",
						"label": "bool",
						"numberOfBytes": "1"
					},
					"t_enum(GrowthStage)6": {
						"encoding": "inplace",
						"label": "enum LiskGarden.GrowthStage",
						"numberOfBytes": "1"
					},
					"t_mapping(t_address,t_array(t_uint256)dyn_storage)": {
						"encoding": "mapping",
						"key": "t_address",
						"label": "mapping(address => uint256[])",
						"numberOfBytes": "32",
						"value": "t_array(t_uint256)dyn_storage"
					},
					"t_mapping(t_uint256,t_struct(Plant)24_storage)": {
						"encoding": "mapping",
						"key": "t_uint256",
						"label": "mapping(uint256 => struct LiskGarden.Plant)",
						"numberOfBytes": "32",
						"value": "t_struct(Plant)24_storage"
					},
					"t_struct(Plant)24_storage": {
						"encoding": "inplace",
						"label": "struct LiskGarden.Plant",
						"members": [
							{
								"astId": 8,
								"contract": "contracts/LiskGarden.sol:LiskGarden",
								"label": "id",
								"offset": 0,
								"slot": "0",
								"type": "t_uint256"
							},
							{
								"astId": 10,
								"contract": "contracts/LiskGarden.sol:LiskGarden",
								"label": "owner",
								"offset": 0,
								"slot": "1",
								"type": "t_address"
							},
							{
								"astId": 13,
								"contract": "contracts/LiskGarden.sol:LiskGarden",
								"label": "stage",
								"offset": 20,
								"slot": "1",
								"type": "t_enum(GrowthStage)6"
							},
							{
								"astId": 15,
								"contract": "contracts/LiskGarden.sol:LiskGarden",
								"label": "plantedDate",
								"offset": 0,
								"slot": "2",
								"type": "t_uint256"
							},
							{
								"astId": 17,
								"contract": "contracts/LiskGarden.sol:LiskGarden",
								"label": "lastWatered",
								"offset": 0,
								"slot": "3",
								"type": "t_uint256"
							},
							{
								"astId": 19,
								"contract": "contracts/LiskGarden.sol:LiskGarden",
								"label": "waterLevel",
								"offset": 0,
								"slot": "4",
								"type": "t_uint8"
							},
							{
								"astId": 21,
								"contract": "contracts/LiskGarden.sol:LiskGarden",
								"label": "exist",
								"offset": 1,
								"slot": "4",
								"type": "t_bool"
							},
							{
								"astId": 23,
								"contract": "contracts/LiskGarden.sol:LiskGarden",
								"label": "isDead",
								"offset": 2,
								"slot": "4",
								"type": "t_bool"
							}
						],
						"numberOfBytes": "160"
					},
					"t_uint256": {
						"encoding": "inplace",
						"label": "uint256",
						"numberOfBytes": "32"
					},
					"t_uint8": {
						"encoding": "inplace",
						"label": "uint8",
						"numberOfBytes": "1"
					}
				}
			},
			"userdoc": {
				"kind": "user",
				"methods": {},
				"version": 1
			}
		}
	}
}